{
  "_format": "hh-sol-artifact-1",
  "contractName": "ArenaCards",
  "sourceName": "contracts/ArenaCards.sol",
  "abi": [
    {
      "inputs": [],
      "stateMutability": "nonpayable",
      "type": "constructor"
    },
    {
      "inputs": [
        {
          "internalType": "address",
          "name": "sender",
          "type": "address"
        },
        {
          "internalType": "uint256",
          "name": "tokenId",
          "type": "uint256"
        },
        {
          "internalType": "address",
          "name": "owner",
          "type": "address"
        }
      ],
      "name": "ERC721IncorrectOwner",
      "type": "error"
    },
    {
      "inputs": [
        {
          "internalType": "address",
          "name": "operator",
          "type": "address"
        },
        {
          "internalType": "uint256",
          "name": "tokenId",
          "type": "uint256"
        }
      ],
      "name": "ERC721InsufficientApproval",
      "type": "error"
    },
    {
      "inputs": [
        {
          "internalType": "address",
          "name": "approver",
          "type": "address"
        }
      ],
      "name": "ERC721InvalidApprover",
      "type": "error"
    },
    {
      "inputs": [
        {
          "internalType": "address",
          "name": "operator",
          "type": "address"
        }
      ],
      "name": "ERC721InvalidOperator",
      "type": "error"
    },
    {
      "inputs": [
        {
          "internalType": "address",
          "name": "owner",
          "type": "address"
        }
      ],
      "name": "ERC721InvalidOwner",
      "type": "error"
    },
    {
      "inputs": [
        {
          "internalType": "address",
          "name": "receiver",
          "type": "address"
        }
      ],
      "name": "ERC721InvalidReceiver",
      "type": "error"
    },
    {
      "inputs": [
        {
          "internalType": "address",
          "name": "sender",
          "type": "address"
        }
      ],
      "name": "ERC721InvalidSender",
      "type": "error"
    },
    {
      "inputs": [
        {
          "internalType": "uint256",
          "name": "tokenId",
          "type": "uint256"
        }
      ],
      "name": "ERC721NonexistentToken",
      "type": "error"
    },
    {
      "inputs": [
        {
          "internalType": "address",
          "name": "owner",
          "type": "address"
        }
      ],
      "name": "OwnableInvalidOwner",
      "type": "error"
    },
    {
      "inputs": [
        {
          "internalType": "address",
          "name": "account",
          "type": "address"
        }
      ],
      "name": "OwnableUnauthorizedAccount",
      "type": "error"
    },
    {
      "anonymous": false,
      "inputs": [
        {
          "indexed": true,
          "internalType": "address",
          "name": "owner",
          "type": "address"
        },
        {
          "indexed": true,
          "internalType": "address",
          "name": "approved",
          "type": "address"
        },
        {
          "indexed": true,
          "internalType": "uint256",
          "name": "tokenId",
          "type": "uint256"
        }
      ],
      "name": "Approval",
      "type": "event"
    },
    {
      "anonymous": false,
      "inputs": [
        {
          "indexed": true,
          "internalType": "address",
          "name": "owner",
          "type": "address"
        },
        {
          "indexed": true,
          "internalType": "address",
          "name": "operator",
          "type": "address"
        },
        {
          "indexed": false,
          "internalType": "bool",
          "name": "approved",
          "type": "bool"
        }
      ],
      "name": "ApprovalForAll",
      "type": "event"
    },
    {
      "anonymous": false,
      "inputs": [
        {
          "indexed": true,
          "internalType": "uint256",
          "name": "tokenId",
          "type": "uint256"
        },
        {
          "indexed": false,
          "internalType": "uint256",
          "name": "unlockTime",
          "type": "uint256"
        }
      ],
      "name": "CardLocked",
      "type": "event"
    },
    {
      "anonymous": false,
      "inputs": [
        {
          "indexed": true,
          "internalType": "uint256",
          "name": "tokenId",
          "type": "uint256"
        },
        {
          "indexed": true,
          "internalType": "address",
          "name": "owner",
          "type": "address"
        },
        {
          "indexed": false,
          "internalType": "string",
          "name": "name",
          "type": "string"
        },
        {
          "indexed": false,
          "internalType": "string",
          "name": "rarity",
          "type": "string"
        }
      ],
      "name": "CardMinted",
      "type": "event"
    },
    {
      "anonymous": false,
      "inputs": [
        {
          "indexed": true,
          "internalType": "uint256",
          "name": "tokenId1",
          "type": "uint256"
        },
        {
          "indexed": true,
          "internalType": "uint256",
          "name": "tokenId2",
          "type": "uint256"
        },
        {
          "indexed": true,
          "internalType": "uint256",
          "name": "newTokenId",
          "type": "uint256"
        },
        {
          "indexed": false,
          "internalType": "uint256",
          "name": "newLevel",
          "type": "uint256"
        }
      ],
      "name": "CardsFused",
      "type": "event"
    },
    {
      "anonymous": false,
      "inputs": [
        {
          "indexed": true,
          "internalType": "address",
          "name": "previousOwner",
          "type": "address"
        },
        {
          "indexed": true,
          "internalType": "address",
          "name": "newOwner",
          "type": "address"
        }
      ],
      "name": "OwnershipTransferred",
      "type": "event"
    },
    {
      "anonymous": false,
      "inputs": [
        {
          "indexed": true,
          "internalType": "address",
          "name": "from",
          "type": "address"
        },
        {
          "indexed": true,
          "internalType": "address",
          "name": "to",
          "type": "address"
        },
        {
          "indexed": true,
          "internalType": "uint256",
          "name": "tokenId",
          "type": "uint256"
        }
      ],
      "name": "Transfer",
      "type": "event"
    },
    {
      "inputs": [],
      "name": "COOLDOWN",
      "outputs": [
        {
          "internalType": "uint256",
          "name": "",
          "type": "uint256"
        }
      ],
      "stateMutability": "view",
      "type": "function"
    },
    {
      "inputs": [],
      "name": "LOCK_TIME",
      "outputs": [
        {
          "internalType": "uint256",
          "name": "",
          "type": "uint256"
        }
      ],
      "stateMutability": "view",
      "type": "function"
    },
    {
      "inputs": [],
      "name": "MAX_CARDS",
      "outputs": [
        {
          "internalType": "uint256",
          "name": "",
          "type": "uint256"
        }
      ],
      "stateMutability": "view",
      "type": "function"
    },
    {
      "inputs": [
        {
          "internalType": "address",
          "name": "to",
          "type": "address"
        },
        {
          "internalType": "uint256",
          "name": "tokenId",
          "type": "uint256"
        }
      ],
      "name": "approve",
      "outputs": [],
      "stateMutability": "nonpayable",
      "type": "function"
    },
    {
      "inputs": [
        {
          "internalType": "address",
          "name": "",
          "type": "address"
        }
      ],
      "name": "authorizedMinters",
      "outputs": [
        {
          "internalType": "bool",
          "name": "",
          "type": "bool"
        }
      ],
      "stateMutability": "view",
      "type": "function"
    },
    {
      "inputs": [
        {
          "internalType": "address",
          "name": "owner",
          "type": "address"
        }
      ],
      "name": "balanceOf",
      "outputs": [
        {
          "internalType": "uint256",
          "name": "",
          "type": "uint256"
        }
      ],
      "stateMutability": "view",
      "type": "function"
    },
    {
      "inputs": [
        {
          "internalType": "uint256",
          "name": "tokenId",
          "type": "uint256"
        }
      ],
      "name": "burnFromFusion",
      "outputs": [],
      "stateMutability": "nonpayable",
      "type": "function"
    },
    {
      "inputs": [
        {
          "internalType": "uint256",
          "name": "",
          "type": "uint256"
        }
      ],
      "name": "cardDetails",
      "outputs": [
        {
          "internalType": "uint256",
          "name": "level",
          "type": "uint256"
        },
        {
          "internalType": "string",
          "name": "rarity",
          "type": "string"
        },
        {
          "internalType": "string",
          "name": "name",
          "type": "string"
        },
        {
          "internalType": "uint256",
          "name": "createdAt",
          "type": "uint256"
        },
        {
          "internalType": "uint256",
          "name": "lastTransferAt",
          "type": "uint256"
        },
        {
          "components": [
            {
              "internalType": "uint256",
              "name": "attack",
              "type": "uint256"
            }
          ],
          "internalType": "struct ArenaCards.CardStats",
          "name": "stats",
          "type": "tuple"
        }
      ],
      "stateMutability": "view",
      "type": "function"
    },
    {
      "inputs": [],
      "name": "fusionContract",
      "outputs": [
        {
          "internalType": "address",
          "name": "",
          "type": "address"
        }
      ],
      "stateMutability": "view",
      "type": "function"
    },
    {
      "inputs": [
        {
          "internalType": "uint256",
          "name": "tokenId",
          "type": "uint256"
        }
      ],
      "name": "getApproved",
      "outputs": [
        {
          "internalType": "address",
          "name": "",
          "type": "address"
        }
      ],
      "stateMutability": "view",
      "type": "function"
    },
    {
      "inputs": [
        {
          "internalType": "string",
          "name": "rarity",
          "type": "string"
        },
        {
          "internalType": "string",
          "name": "name",
          "type": "string"
        }
      ],
      "name": "getBaseStats",
      "outputs": [
        {
          "internalType": "uint256",
          "name": "attack",
          "type": "uint256"
        }
      ],
      "stateMutability": "view",
      "type": "function"
    },
    {
      "inputs": [
        {
          "internalType": "uint256",
          "name": "tokenId",
          "type": "uint256"
        }
      ],
      "name": "getCardStats",
      "outputs": [
        {
          "internalType": "string",
          "name": "name",
          "type": "string"
        },
        {
          "internalType": "string",
          "name": "rarity",
          "type": "string"
        },
        {
          "internalType": "uint256",
          "name": "level",
          "type": "uint256"
        },
        {
          "internalType": "uint256",
          "name": "attack",
          "type": "uint256"
        }
      ],
      "stateMutability": "view",
      "type": "function"
    },
    {
      "inputs": [
        {
          "internalType": "string",
          "name": "rarity",
          "type": "string"
        },
        {
          "internalType": "string",
          "name": "name",
          "type": "string"
        }
      ],
      "name": "getImageURI",
      "outputs": [
        {
          "internalType": "string",
          "name": "",
          "type": "string"
        }
      ],
      "stateMutability": "view",
      "type": "function"
    },
    {
      "inputs": [
        {
          "internalType": "uint256",
          "name": "tokenId",
          "type": "uint256"
        }
      ],
      "name": "getPreviousOwners",
      "outputs": [
        {
          "internalType": "address[]",
          "name": "",
          "type": "address[]"
        }
      ],
      "stateMutability": "view",
      "type": "function"
    },
    {
      "inputs": [
        {
          "internalType": "address",
          "name": "owner",
          "type": "address"
        },
        {
          "internalType": "address",
          "name": "operator",
          "type": "address"
        }
      ],
      "name": "isApprovedForAll",
      "outputs": [
        {
          "internalType": "bool",
          "name": "",
          "type": "bool"
        }
      ],
      "stateMutability": "view",
      "type": "function"
    },
    {
      "inputs": [
        {
          "internalType": "address",
          "name": "",
          "type": "address"
        }
      ],
      "name": "lastAction",
      "outputs": [
        {
          "internalType": "uint256",
          "name": "",
          "type": "uint256"
        }
      ],
      "stateMutability": "view",
      "type": "function"
    },
    {
      "inputs": [
        {
          "internalType": "uint256",
          "name": "",
          "type": "uint256"
        }
      ],
      "name": "lockUntil",
      "outputs": [
        {
          "internalType": "uint256",
          "name": "",
          "type": "uint256"
        }
      ],
      "stateMutability": "view",
      "type": "function"
    },
    {
      "inputs": [
        {
          "internalType": "address",
          "name": "to",
          "type": "address"
        },
        {
          "internalType": "string",
          "name": "name",
          "type": "string"
        },
        {
          "internalType": "string",
          "name": "rarity",
          "type": "string"
        }
      ],
      "name": "mintCard",
      "outputs": [],
      "stateMutability": "nonpayable",
      "type": "function"
    },
    {
      "inputs": [
        {
          "internalType": "address",
          "name": "to",
          "type": "address"
        },
        {
          "internalType": "string",
          "name": "name",
          "type": "string"
        },
        {
          "internalType": "string",
          "name": "rarity",
          "type": "string"
        },
        {
          "internalType": "uint256",
          "name": "level",
          "type": "uint256"
        }
      ],
      "name": "mintFusion",
      "outputs": [
        {
          "internalType": "uint256",
          "name": "",
          "type": "uint256"
        }
      ],
      "stateMutability": "nonpayable",
      "type": "function"
    },
    {
      "inputs": [],
      "name": "name",
      "outputs": [
        {
          "internalType": "string",
          "name": "",
          "type": "string"
        }
      ],
      "stateMutability": "view",
      "type": "function"
    },
    {
      "inputs": [],
      "name": "owner",
      "outputs": [
        {
          "internalType": "address",
          "name": "",
          "type": "address"
        }
      ],
      "stateMutability": "view",
      "type": "function"
    },
    {
      "inputs": [
        {
          "internalType": "uint256",
          "name": "tokenId",
          "type": "uint256"
        }
      ],
      "name": "ownerOf",
      "outputs": [
        {
          "internalType": "address",
          "name": "",
          "type": "address"
        }
      ],
      "stateMutability": "view",
      "type": "function"
    },
    {
      "inputs": [
        {
          "internalType": "uint256",
          "name": "",
          "type": "uint256"
        },
        {
          "internalType": "uint256",
          "name": "",
          "type": "uint256"
        }
      ],
      "name": "previousOwners",
      "outputs": [
        {
          "internalType": "address",
          "name": "",
          "type": "address"
        }
      ],
      "stateMutability": "view",
      "type": "function"
    },
    {
      "inputs": [],
      "name": "renounceOwnership",
      "outputs": [],
      "stateMutability": "nonpayable",
      "type": "function"
    },
    {
      "inputs": [
        {
          "internalType": "address",
          "name": "from",
          "type": "address"
        },
        {
          "internalType": "address",
          "name": "to",
          "type": "address"
        },
        {
          "internalType": "uint256",
          "name": "tokenId",
          "type": "uint256"
        }
      ],
      "name": "safeTransferFrom",
      "outputs": [],
      "stateMutability": "nonpayable",
      "type": "function"
    },
    {
      "inputs": [
        {
          "internalType": "address",
          "name": "from",
          "type": "address"
        },
        {
          "internalType": "address",
          "name": "to",
          "type": "address"
        },
        {
          "internalType": "uint256",
          "name": "tokenId",
          "type": "uint256"
        },
        {
          "internalType": "bytes",
          "name": "data",
          "type": "bytes"
        }
      ],
      "name": "safeTransferFrom",
      "outputs": [],
      "stateMutability": "nonpayable",
      "type": "function"
    },
    {
      "inputs": [
        {
          "internalType": "address",
          "name": "operator",
          "type": "address"
        },
        {
          "internalType": "bool",
          "name": "approved",
          "type": "bool"
        }
      ],
      "name": "setApprovalForAll",
      "outputs": [],
      "stateMutability": "nonpayable",
      "type": "function"
    },
    {
      "inputs": [
        {
          "internalType": "address",
          "name": "_minter",
          "type": "address"
        },
        {
          "internalType": "bool",
          "name": "_authorized",
          "type": "bool"
        }
      ],
      "name": "setAuthorizedMinter",
      "outputs": [],
      "stateMutability": "nonpayable",
      "type": "function"
    },
    {
      "inputs": [
        {
          "internalType": "string",
          "name": "rarity",
          "type": "string"
        },
        {
          "internalType": "string",
          "name": "name",
          "type": "string"
        },
        {
          "internalType": "uint256",
          "name": "attack",
          "type": "uint256"
        }
      ],
      "name": "setBaseStats",
      "outputs": [],
      "stateMutability": "nonpayable",
      "type": "function"
    },
    {
      "inputs": [
        {
          "internalType": "address",
          "name": "_fusion",
          "type": "address"
        }
      ],
      "name": "setFusionContract",
      "outputs": [],
      "stateMutability": "nonpayable",
      "type": "function"
    },
    {
      "inputs": [
        {
          "internalType": "string",
          "name": "rarity",
          "type": "string"
        },
        {
          "internalType": "string",
          "name": "name",
          "type": "string"
        },
        {
          "internalType": "string",
          "name": "newImageURI",
          "type": "string"
        }
      ],
      "name": "setImageURI",
      "outputs": [],
      "stateMutability": "nonpayable",
      "type": "function"
    },
    {
      "inputs": [
        {
          "internalType": "bytes4",
          "name": "interfaceId",
          "type": "bytes4"
        }
      ],
      "name": "supportsInterface",
      "outputs": [
        {
          "internalType": "bool",
          "name": "",
          "type": "bool"
        }
      ],
      "stateMutability": "view",
      "type": "function"
    },
    {
      "inputs": [],
      "name": "symbol",
      "outputs": [
        {
          "internalType": "string",
          "name": "",
          "type": "string"
        }
      ],
      "stateMutability": "view",
      "type": "function"
    },
    {
      "inputs": [],
      "name": "tokenCounter",
      "outputs": [
        {
          "internalType": "uint256",
          "name": "",
          "type": "uint256"
        }
      ],
      "stateMutability": "view",
      "type": "function"
    },
    {
      "inputs": [
        {
          "internalType": "uint256",
          "name": "tokenId",
          "type": "uint256"
        }
      ],
      "name": "tokenURI",
      "outputs": [
        {
          "internalType": "string",
          "name": "",
          "type": "string"
        }
      ],
      "stateMutability": "view",
      "type": "function"
    },
    {
      "inputs": [
        {
          "internalType": "address",
          "name": "from",
          "type": "address"
        },
        {
          "internalType": "address",
          "name": "to",
          "type": "address"
        },
        {
          "internalType": "uint256",
          "name": "tokenId",
          "type": "uint256"
        }
      ],
      "name": "transferFrom",
      "outputs": [],
      "stateMutability": "nonpayable",
      "type": "function"
    },
    {
      "inputs": [
        {
          "internalType": "address",
          "name": "newOwner",
          "type": "address"
        }
      ],
      "name": "transferOwnership",
      "outputs": [],
      "stateMutability": "nonpayable",
      "type": "function"
    }
  ],
  "bytecode": "0x60806040523480156200001157600080fd5b50336040518060400160405280600b81526020016a4172656e6120436172647360a81b815250604051806040016040528060058152602001641050d0549160da1b815250816000908162000066919062000d9c565b50600162000075828262000d9c565b5050506001600160a01b038116620000a757604051631e4fbdf760e01b81526000600482015260240160405180910390fd5b620000b28162000667565b50620000bd620006b9565b6200066160408051602081018252609681529051696c6567656e646169726560b01b8152600a9081019081526040519081900360200181206a447261676f6e20446f726560a81b825290600b01908152604080516020928190038301812093519093559082018152608c825251696c6567656e646169726560b01b8152600a9081019081526040519081900360200181206f141a1bd95b9a5e08125b5b5bdc9d195b60821b82529060100190815260408051602092819003830181209351909355908201815260648252516565706971756560d01b8152600a906006019081526040519081900360200181206d21b432bb30b634b2b9102737b4b960911b825290600e01908152604080516020928190038301812093519093559082018152605a8252516565706971756560d01b8152600a906006019081526040519081900360200181206e4d6167652064657320476c6163657360881b825290600f01908152604080516020928190038301812093519093559082018152605f8252516565706971756560d01b8152600a906006019081526040519081900360200181206f417373617373696e2046616e746f6d6560801b825290601001908152604080516020928190038301812093519093559082018152604b825251637261726560e01b8152600a906004019081526040519081900360200181206a41726368657220456c666560a81b825290600b019081526040805160209281900383018120935190935590820181526046825251637261726560e01b8152600a906004019081526040519081900360200181206c50616c6164696e20536163726560981b825290600d019081526040805160209281900383018120935190935590820181526041825251637261726560e01b8152600a906004019081526040519081900360200181206c22393ab4b2329020b731b4b2b760991b825290600d0190815260408051602092819003830181209351909355908201815260378252516a70657520636f6d6d756e6560a81b8152600a90600b019081526040519081900360200181206d477565727269657220427261766560901b825290600e0190815260408051602092819003830181209351909355908201815260328252516a70657520636f6d6d756e6560a81b8152600a90600b019081526040519081900360200181206b566f6c657572204167696c6560a01b825290600c01908152604080516020928190038301812093519093559082018152602d8252516a70657520636f6d6d756e6560a81b8152600a90600b019081526040519081900360200181206a507265747265205361676560a81b825290600b01908152604080516020928190038301812093519093559082018152602d82525166636f6d6d756e6560c81b8152600a906007019081526040519081900360200181206b476f62656c696e205275736560a01b825290600c01908152604080516020928190038301812093519093559082018152602882525166636f6d6d756e6560c81b8152600a906007019081526040519081900360200181206d536f726369657265204e6f69726560901b825290600e01908152604080516020928190038301812093519093559082018152603282525166636f6d6d756e6560c81b8152600a906007019081526040519081900360200181206e42617262617265205361757661676560881b825290600f01908152604080516020928190038301812093519093559082018152602382525166636f6d6d756e6560c81b8152600a906007019081526040519081900360200181206f14dc5d595b195d1d194814dbdb19185d60821b825290601001908152604080516020928190038301812093519093559082018152601e82525166636f6d6d756e6560c81b8152600a906007019081526040519081900360200181206b14db1a5b594811db1d585b9d60a21b825290600c0190815260405190819003602001902090519055565b62000e68565b600680546001600160a01b038381166001600160a01b0319831681179093556040519116919082907f8be0079c531659141344cd1fd0a4f28419497f9722a3daafe3b4186f6b6457e090600090a35050565b60006040518060a00160405280606a815260200162003a45606a9139905080600c604051620006f890696c6567656e646169726560b01b8152600a0190565b9081526040519081900360200181206a447261676f6e20446f726560a81b825290600b019081526020016040518091039020908162000738919062000d9c565b5080600c6040516200075a90696c6567656e646169726560b01b8152600a0190565b9081526040519081900360200181206f141a1bd95b9a5e08125b5b5bdc9d195b60821b825290601001908152602001604051809103902090816200079f919062000d9c565b5080600c604051620007bd906565706971756560d01b815260060190565b9081526040519081900360200181206d21b432bb30b634b2b9102737b4b960911b825290600e019081526020016040518091039020908162000800919062000d9c565b5080600c6040516200081e906565706971756560d01b815260060190565b9081526040519081900360200181206e4d6167652064657320476c6163657360881b825290600f019081526020016040518091039020908162000862919062000d9c565b5080600c60405162000880906565706971756560d01b815260060190565b9081526040519081900360200181206f417373617373696e2046616e746f6d6560801b82529060100190815260200160405180910390209081620008c5919062000d9c565b5080600c604051620008e190637261726560e01b815260040190565b9081526040519081900360200181206a41726368657220456c666560a81b825290600b019081526020016040518091039020908162000921919062000d9c565b5080600c6040516200093d90637261726560e01b815260040190565b9081526040519081900360200181206c50616c6164696e20536163726560981b825290600d01908152602001604051809103902090816200097f919062000d9c565b5080600c6040516200099b90637261726560e01b815260040190565b9081526040519081900360200181206c22393ab4b2329020b731b4b2b760991b825290600d0190815260200160405180910390209081620009dd919062000d9c565b5080600c60405162000a00906a70657520636f6d6d756e6560a81b8152600b0190565b9081526040519081900360200181206d477565727269657220427261766560901b825290600e019081526020016040518091039020908162000a43919062000d9c565b5080600c60405162000a66906a70657520636f6d6d756e6560a81b8152600b0190565b9081526040519081900360200181206b566f6c657572204167696c6560a01b825290600c019081526020016040518091039020908162000aa7919062000d9c565b5080600c60405162000aca906a70657520636f6d6d756e6560a81b8152600b0190565b9081526040519081900360200181206a507265747265205361676560a81b825290600b019081526020016040518091039020908162000b0a919062000d9c565b5080600c60405162000b299066636f6d6d756e6560c81b815260070190565b9081526040519081900360200181206b476f62656c696e205275736560a01b825290600c019081526020016040518091039020908162000b6a919062000d9c565b5080600c60405162000b899066636f6d6d756e6560c81b815260070190565b9081526040519081900360200181206d536f726369657265204e6f69726560901b825290600e019081526020016040518091039020908162000bcc919062000d9c565b5080600c60405162000beb9066636f6d6d756e6560c81b815260070190565b9081526040519081900360200181206e42617262617265205361757661676560881b825290600f019081526020016040518091039020908162000c2f919062000d9c565b5080600c60405162000c4e9066636f6d6d756e6560c81b815260070190565b9081526040519081900360200181206f14dc5d595b195d1d194814dbdb19185d60821b8252906010019081526020016040518091039020908162000c93919062000d9c565b5080600c60405162000cb29066636f6d6d756e6560c81b815260070190565b9081526040519081900360200181206b14db1a5b594811db1d585b9d60a21b825290600c019081526020016040518091039020908162000cf3919062000d9c565b5050565b634e487b7160e01b600052604160045260246000fd5b600181811c9082168062000d2257607f821691505b60208210810362000d4357634e487b7160e01b600052602260045260246000fd5b50919050565b601f82111562000d9757600081815260208120601f850160051c8101602086101562000d725750805b601f850160051c820191505b8181101562000d935782815560010162000d7e565b5050505b505050565b81516001600160401b0381111562000db85762000db862000cf7565b62000dd08162000dc9845462000d0d565b8462000d49565b602080601f83116001811462000e08576000841562000def5750858301515b600019600386901b1c1916600185901b17855562000d93565b600085815260208120601f198616915b8281101562000e395788860151825594840194600190910190840162000e18565b508582101562000e585787850151600019600388901b60f8161c191681555b5050505050600190811b01905550565b612bcd8062000e786000396000f3fe608060405234801561001057600080fd5b50600436106102275760003560e01c80638da5cb5b11610130578063c89d2ff4116100b8578063ed58bad81161007c578063ed58bad8146104c4578063ef7c8959146104d7578063f1a0995c146104fc578063f2fde38b1461051c578063f95e8b761461052f57600080fd5b8063c89d2ff41461045f578063d082e38114610472578063d2b5dab81461047b578063d44888fe1461048e578063e985e9c5146104b157600080fd5b8063aa2fe91b116100ff578063aa2fe91b146103f0578063b54fb04a14610413578063b88d4fde14610426578063bff0fa5214610439578063c87b56dd1461044c57600080fd5b80638da5cb5b146103bb57806395d89b41146103cc578063a22cb465146103d4578063a2724a4d146103e757600080fd5b806338c9c3db116101b3578063674efce011610182578063674efce01461036557806370720d1f1461037857806370a0823114610398578063715018a6146103ab5780637e744a76146103b357600080fd5b806338c9c3db14610323578063413d9c3a1461033657806342842e0e1461033f5780636352211e1461035257600080fd5b8063095ea7b3116101fa578063095ea7b3146102a95780630ceea305146102bc5780630e9749be146102ea5780631a6feef1146102fd57806323b872dd1461031057600080fd5b806301ffc9a71461022c5780630661723f1461025457806306fdde0314610269578063081812fc1461027e575b600080fd5b61023f61023a366004612150565b610542565b60405190151581526020015b60405180910390f35b610267610262366004612219565b610594565b005b6102716105e9565b60405161024b91906122f1565b61029161028c366004612304565b61067b565b6040516001600160a01b03909116815260200161024b565b6102676102b7366004612339565b6106a4565b6102dc6102ca366004612304565b600f6020526000908152604090205481565b60405190815260200161024b565b600954610291906001600160a01b031681565b61026761030b366004612363565b6106b3565b61026761031e36600461237e565b6106dd565b610267610331366004612304565b610767565b6102dc61025881565b61026761034d36600461237e565b610807565b610291610360366004612304565b610827565b6102dc6103733660046123ba565b610832565b6102dc610386366004612363565b600e6020526000908152604090205481565b6102dc6103a6366004612363565b610886565b6102676108ce565b6102dc601e81565b6006546001600160a01b0316610291565b6102716108e2565b6102676103e236600461241e565b6108f1565b6102dc61012c81565b61023f6103fe366004612363565b60086020526000908152604090205460ff1681565b61029161042136600461245a565b6108fc565b61026761043436600461247c565b610934565b6102dc6104473660046124f8565b61094c565b61027161045a366004612304565b610ac6565b61027161046d3660046123ba565b610e05565b6102dc60075481565b610267610489366004612574565b610ed2565b6104a161049c366004612304565b6111f1565b60405161024b94939291906125af565b61023f6104bf3660046125e8565b611405565b6102676104d236600461241e565b611433565b6104ea6104e5366004612304565b611466565b60405161024b9695949392919061261b565b61050f61050a366004612304565b6115b9565b60405161024b9190612666565b61026761052a366004612363565b611625565b61026761053d3660046126a7565b611663565b60006001600160e01b031982166380ac58cd60e01b148061057357506001600160e01b03198216635b5e139f60e01b145b8061058e57506301ffc9a760e01b6001600160e01b03198316145b92915050565b61059c6116be565b80600c846040516105ad9190612730565b9081526020016040518091039020836040516105c99190612730565b908152602001604051809103902090816105e391906127cc565b50505050565b6060600080546105f89061274c565b80601f01602080910402602001604051908101604052809291908181526020018280546106249061274c565b80156106715780601f1061064657610100808354040283529160200191610671565b820191906000526020600020905b81548152906001019060200180831161065457829003601f168201915b5050505050905090565b6000610686826116eb565b506000828152600460205260409020546001600160a01b031661058e565b6106af828233611724565b5050565b6106bb6116be565b600980546001600160a01b0319166001600160a01b0392909216919091179055565b6001600160a01b03821661070c57604051633250574960e11b8152600060048201526024015b60405180910390fd5b6000610719838333611731565b9050836001600160a01b0316816001600160a01b0316146105e3576040516364283d7b60e01b81526001600160a01b0380861660048301526024820184905282166044820152606401610703565b6009546001600160a01b031633146107b75760405162461bcd60e51b8152602060048201526013602482015272139bdd08199d5cda5bdb8818dbdb9d1c9858dd606a1b6044820152606401610703565b6107c081611824565b6000818152600b60205260408120818155906107df60018301826120ec565b6107ed6002830160006120ec565b506000600382018190556004820181905560059091015550565b61082283838360405180602001604052806000815250610934565b505050565b600061058e826116eb565b600080600a846040516108459190612730565b9081526020016040518091039020836040516108619190612730565b9081526040805160209281900383018120928101909152905490819052949350505050565b60006001600160a01b0382166108b2576040516322718ad960e21b815260006004820152602401610703565b506001600160a01b031660009081526003602052604090205490565b6108d66116be565b6108e0600061185f565b565b6060600180546105f89061274c565b6106af3383836118b1565b600d602052816000526040600020818154811061091857600080fd5b6000918252602090912001546001600160a01b03169150829050565b61093f8484846106dd565b6105e33385858585611950565b6009546000906001600160a01b0316331461099f5760405162461bcd60e51b8152602060048201526013602482015272139bdd08199d5cda5bdb8818dbdb9d1c9858dd606a1b6044820152606401610703565b6007546109ac8682611a7b565b6000600a856040516109be9190612730565b9081526020016040518091039020866040516109da9190612730565b908152602001604051809103902060405180602001604052908160008201548152505090506040518060c001604052808581526020018681526020018781526020014281526020014281526020016040518060200160405280878560000151610a4391906128a2565b905290526000838152600b6020908152604090912082518155908201516001820190610a6f90826127cc565b5060408201516002820190610a8490826127cc565b50606082015160038201556080820151600482015560a0909101515160059091015560078054906000610ab6836128b9565b9091555091979650505050505050565b6000818152600260205260409020546060906001600160a01b0316610b245760405162461bcd60e51b8152602060048201526014602482015273151bdad95b88191bd95cc81b9bdd08195e1a5cdd60621b6044820152606401610703565b6000600b60008481526020019081526020016000206040518060c001604052908160008201548152602001600182018054610b5e9061274c565b80601f0160208091040260200160405190810160405280929190818152602001828054610b8a9061274c565b8015610bd75780601f10610bac57610100808354040283529160200191610bd7565b820191906000526020600020905b815481529060010190602001808311610bba57829003601f168201915b50505050508152602001600282018054610bf09061274c565b80601f0160208091040260200160405190810160405280929190818152602001828054610c1c9061274c565b8015610c695780601f10610c3e57610100808354040283529160200191610c69565b820191906000526020600020905b815481529060010190602001808311610c4c57829003601f168201915b505050505081526020016003820154815260200160048201548152602001600582016040518060200160405290816000820154815250508152505090506000600c8260200151604051610cbc9190612730565b90815260200160405180910390208260400151604051610cdc9190612730565b90815260200160405180910390208054610cf59061274c565b80601f0160208091040260200160405190810160405280929190818152602001828054610d219061274c565b8015610d6e5780601f10610d4357610100808354040283529160200191610d6e565b820191906000526020600020905b815481529060010190602001808311610d5157829003601f168201915b5050505050905060008260400151610d8586611a95565b838560200151610d988760000151611a95565b60a088015151610da790611a95565b604051602001610dbc969594939291906128d2565b60405160208183030381529060405290506000610dd882611b28565b905080604051602001610deb9190612a5e565b604051602081830303815290604052945050505050919050565b6060600c83604051610e179190612730565b908152602001604051809103902082604051610e339190612730565b90815260200160405180910390208054610e4c9061274c565b80601f0160208091040260200160405190810160405280929190818152602001828054610e789061274c565b8015610ec55780601f10610e9a57610100808354040283529160200191610ec5565b820191906000526020600020905b815481529060010190602001808311610ea857829003601f168201915b5050505050905092915050565b82601e610ede82610886565b10610f1f5760405162461bcd60e51b815260206004820152601160248201527013585e0818d85c991cc81c995858da1959607a1b6044820152606401610703565b3360009081526008602052604090205460ff16610f446006546001600160a01b031690565b6001600160a01b0316336001600160a01b03161480610f605750805b610fa55760405162461bcd60e51b8152602060048201526016602482015275139bdd08185d5d1a1bdc9a5e9959081d1bc81b5a5b9d60521b6044820152606401610703565b80611051576001600160a01b0385166000908152600e60205260409020541580610ff457506001600160a01b0385166000908152600e6020526040902054610ff09061012c90612aa3565b4210155b6110355760405162461bcd60e51b815260206004820152601260248201527120b1ba34b7b71037b71031b7b7b63237bbb760711b6044820152606401610703565b6001600160a01b0385166000908152600e602052604090204290555b60075461106061025842612aa3565b6000828152600f6020526040908190208290555182917f17cb401a0fe657bce1050511a2fdd187a7910abf4653dc8129277c4668964af7916110a491815260200190565b60405180910390a26110b68682611a7b565b6000600a856040516110c89190612730565b9081526020016040518091039020866040516110e49190612730565b90815260408051602092819003830181208382018352548152815160c08101835260018082528185018a81528285018c905242606084018190526080840152845180870186528451815260a08401526000888152600b909652939094208151815592519194509282019061115890826127cc565b506040820151600282019061116d90826127cc565b50606082015160038201556080820151600482015560a090910151516005909101556007805490600061119f836128b9565b9190505550866001600160a01b0316827f09394dacdfb781605e27c4bf5b7bf8a7e3abacb7086d4d35ce8f51182407b0f188886040516111e0929190612ab6565b60405180910390a350505050505050565b60608060008080611217866000908152600260205260409020546001600160a01b031690565b6001600160a01b0316036112645760405162461bcd60e51b8152602060048201526014602482015273151bdad95b88191bd95cc81b9bdd08195e1a5cdd60621b6044820152606401610703565b6000600b60008781526020019081526020016000206040518060c00160405290816000820154815260200160018201805461129e9061274c565b80601f01602080910402602001604051908101604052809291908181526020018280546112ca9061274c565b80156113175780601f106112ec57610100808354040283529160200191611317565b820191906000526020600020905b8154815290600101906020018083116112fa57829003601f168201915b505050505081526020016002820180546113309061274c565b80601f016020809104026020016040519081016040528092919081815260200182805461135c9061274c565b80156113a95780601f1061137e576101008083540402835291602001916113a9565b820191906000526020600020905b81548152906001019060200180831161138c57829003601f168201915b50505091835250506003820154602080830191909152600483015460408084019190915280518083018252600590940154845260609092019290925282015190820151825160a090930151519199909850919650945092505050565b6001600160a01b03918216600090815260056020908152604080832093909416825291909152205460ff1690565b61143b6116be565b6001600160a01b03919091166000908152600860205260409020805460ff1916911515919091179055565b600b60205260009081526040902080546001820180549192916114889061274c565b80601f01602080910402602001604051908101604052809291908181526020018280546114b49061274c565b80156115015780601f106114d657610100808354040283529160200191611501565b820191906000526020600020905b8154815290600101906020018083116114e457829003601f168201915b5050505050908060020180546115169061274c565b80601f01602080910402602001604051908101604052809291908181526020018280546115429061274c565b801561158f5780601f106115645761010080835404028352916020019161158f565b820191906000526020600020905b81548152906001019060200180831161157257829003601f168201915b50505050600383015460048401546040805160208101909152600590950154855292939092915086565b6000818152600d602090815260409182902080548351818402810184019094528084526060939283018282801561161957602002820191906000526020600020905b81546001600160a01b031681526001909101906020018083116115fb575b50505050509050919050565b61162d6116be565b6001600160a01b03811661165757604051631e4fbdf760e01b815260006004820152602401610703565b6116608161185f565b50565b61166b6116be565b604051806020016040528082815250600a8460405161168a9190612730565b9081526020016040518091039020836040516116a69190612730565b90815260405190819003602001902090519055505050565b6006546001600160a01b031633146108e05760405163118cdaa760e01b8152336004820152602401610703565b6000818152600260205260408120546001600160a01b03168061058e57604051637e27328960e01b815260048101849052602401610703565b6108228383836001611b4e565b6000828152600260205260408120546001600160a01b0316801580159061176057506001600160a01b03851615155b1561180e576000848152600f60205260409020544210156117c35760405162461bcd60e51b815260206004820152601a60248201527f436172642069732074656d706f726172696c79206c6f636b65640000000000006044820152606401610703565b6000848152600d6020908152604080832080546001810182559084528284200180546001600160a01b0319166001600160a01b038616179055868352600b9091529020426004909101555b611819858585611c54565b9150505b9392505050565b60006118336000836000611731565b90506001600160a01b0381166106af57604051637e27328960e01b815260048101839052602401610703565b600680546001600160a01b038381166001600160a01b0319831681179093556040519116919082907f8be0079c531659141344cd1fd0a4f28419497f9722a3daafe3b4186f6b6457e090600090a35050565b6001600160a01b0382166118e357604051630b61174360e31b81526001600160a01b0383166004820152602401610703565b6001600160a01b03838116600081815260056020908152604080832094871680845294825291829020805460ff191686151590811790915591519182527f17307eab39ab6107e8899845ad3d59bd9653f200f220920489ca2b5937696c31910160405180910390a3505050565b6001600160a01b0383163b15611a7457604051630a85bd0160e11b81526001600160a01b0384169063150b7a0290611992908890889087908790600401612adb565b6020604051808303816000875af19250505080156119cd575060408051601f3d908101601f191682019092526119ca91810190612b18565b60015b611a36573d8080156119fb576040519150601f19603f3d011682016040523d82523d6000602084013e611a00565b606091505b508051600003611a2e57604051633250574960e11b81526001600160a01b0385166004820152602401610703565b805160208201fd5b6001600160e01b03198116630a85bd0160e11b14611a7257604051633250574960e11b81526001600160a01b0385166004820152602401610703565b505b5050505050565b6106af828260405180602001604052806000815250611d4d565b60606000611aa283611d65565b600101905060008167ffffffffffffffff811115611ac257611ac261216d565b6040519080825280601f01601f191660200182016040528015611aec576020820181803683370190505b5090508181016020015b600019016f181899199a1a9b1b9c1cb0b131b232b360811b600a86061a8153600a8504945084611af657509392505050565b606061058e82604051806060016040528060408152602001612b58604091396001611e3d565b8080611b6257506001600160a01b03821615155b15611c24576000611b72846116eb565b90506001600160a01b03831615801590611b9e5750826001600160a01b0316816001600160a01b031614155b8015611bb15750611baf8184611405565b155b15611bda5760405163a9fbf51f60e01b81526001600160a01b0384166004820152602401610703565b8115611c225783856001600160a01b0316826001600160a01b03167f8c5be1e5ebec7d5bd14f71427d1e84f3dd0314c0f7b2291e5b200ac8c7c3b92560405160405180910390a45b505b5050600090815260046020526040902080546001600160a01b0319166001600160a01b0392909216919091179055565b6000828152600260205260408120546001600160a01b0390811690831615611c8157611c81818486611fbd565b6001600160a01b03811615611cbf57611c9e600085600080611b4e565b6001600160a01b038116600090815260036020526040902080546000190190555b6001600160a01b03851615611cee576001600160a01b0385166000908152600360205260409020805460010190555b60008481526002602052604080822080546001600160a01b0319166001600160a01b0389811691821790925591518793918516917fddf252ad1be2c89b69c2b068fc378daa952ba7f163c4a11628f55a4df523b3ef91a4949350505050565b611d578383612021565b610822336000858585611950565b60008072184f03e93ff9f4daa797ed6e38ed64bf6a1f0160401b8310611da45772184f03e93ff9f4daa797ed6e38ed64bf6a1f0160401b830492506040015b6d04ee2d6d415b85acef81000000008310611dd0576d04ee2d6d415b85acef8100000000830492506020015b662386f26fc100008310611dee57662386f26fc10000830492506010015b6305f5e1008310611e06576305f5e100830492506008015b6127108310611e1a57612710830492506004015b60648310611e2c576064830492506002015b600a831061058e5760010192915050565b60608351600003611e5d575060408051602081019091526000815261181d565b600082611e8e57600385516004611e7491906128a2565b611e7f906002612aa3565b611e899190612b35565b611eb3565b600385516002611e9e9190612aa3565b611ea89190612b35565b611eb39060046128a2565b905060008167ffffffffffffffff811115611ed057611ed061216d565b6040519080825280601f01601f191660200182016040528015611efa576020820181803683370190505b50905060018501602082018788518901602081018051600082525b82841015611f70576003840193508351603f8160121c168701518653600186019550603f81600c1c168701518653600186019550603f8160061c168701518653600186019550603f8116870151865350600185019450611f15565b905250508515611fb157600388510660018114611f945760028114611fa757611faf565b603d6001830353603d6002830353611faf565b603d60018303535b505b50909695505050505050565b611fc8838383612086565b610822576001600160a01b038316611ff657604051637e27328960e01b815260048101829052602401610703565b60405163177e802f60e01b81526001600160a01b038316600482015260248101829052604401610703565b6001600160a01b03821661204b57604051633250574960e11b815260006004820152602401610703565b600061205983836000611731565b90506001600160a01b03811615610822576040516339e3563760e11b815260006004820152602401610703565b60006001600160a01b038316158015906120e45750826001600160a01b0316846001600160a01b031614806120c057506120c08484611405565b806120e457506000828152600460205260409020546001600160a01b038481169116145b949350505050565b5080546120f89061274c565b6000825580601f10612108575050565b601f01602090049060005260206000209081019061166091905b808211156121365760008155600101612122565b5090565b6001600160e01b03198116811461166057600080fd5b60006020828403121561216257600080fd5b813561181d8161213a565b634e487b7160e01b600052604160045260246000fd5b600067ffffffffffffffff8084111561219e5761219e61216d565b604051601f8501601f19908116603f011681019082821181831017156121c6576121c661216d565b816040528093508581528686860111156121df57600080fd5b858560208301376000602087830101525050509392505050565b600082601f83011261220a57600080fd5b61181d83833560208501612183565b60008060006060848603121561222e57600080fd5b833567ffffffffffffffff8082111561224657600080fd5b612252878388016121f9565b9450602086013591508082111561226857600080fd5b612274878388016121f9565b9350604086013591508082111561228a57600080fd5b50612297868287016121f9565b9150509250925092565b60005b838110156122bc5781810151838201526020016122a4565b50506000910152565b600081518084526122dd8160208601602086016122a1565b601f01601f19169290920160200192915050565b60208152600061181d60208301846122c5565b60006020828403121561231657600080fd5b5035919050565b80356001600160a01b038116811461233457600080fd5b919050565b6000806040838503121561234c57600080fd5b6123558361231d565b946020939093013593505050565b60006020828403121561237557600080fd5b61181d8261231d565b60008060006060848603121561239357600080fd5b61239c8461231d565b92506123aa6020850161231d565b9150604084013590509250925092565b600080604083850312156123cd57600080fd5b823567ffffffffffffffff808211156123e557600080fd5b6123f1868387016121f9565b9350602085013591508082111561240757600080fd5b50612414858286016121f9565b9150509250929050565b6000806040838503121561243157600080fd5b61243a8361231d565b91506020830135801515811461244f57600080fd5b809150509250929050565b6000806040838503121561246d57600080fd5b50508035926020909101359150565b6000806000806080858703121561249257600080fd5b61249b8561231d565b93506124a96020860161231d565b925060408501359150606085013567ffffffffffffffff8111156124cc57600080fd5b8501601f810187136124dd57600080fd5b6124ec87823560208401612183565b91505092959194509250565b6000806000806080858703121561250e57600080fd5b6125178561231d565b9350602085013567ffffffffffffffff8082111561253457600080fd5b612540888389016121f9565b9450604087013591508082111561255657600080fd5b50612563878288016121f9565b949793965093946060013593505050565b60008060006060848603121561258957600080fd5b6125928461231d565b9250602084013567ffffffffffffffff8082111561226857600080fd5b6080815260006125c260808301876122c5565b82810360208401526125d481876122c5565b604084019590955250506060015292915050565b600080604083850312156125fb57600080fd5b6126048361231d565b91506126126020840161231d565b90509250929050565b86815260c06020820152600061263460c08301886122c5565b828103604084015261264681886122c5565b6060840196909652505060808101929092525160a0909101529392505050565b6020808252825182820181905260009190848201906040850190845b81811015611fb15783516001600160a01b031683529284019291840191600101612682565b6000806000606084860312156126bc57600080fd5b833567ffffffffffffffff808211156126d457600080fd5b6126e0878388016121f9565b945060208601359150808211156126f657600080fd5b50612703868287016121f9565b925050604084013590509250925092565b600081516127268185602086016122a1565b9290920192915050565b600082516127428184602087016122a1565b9190910192915050565b600181811c9082168061276057607f821691505b60208210810361278057634e487b7160e01b600052602260045260246000fd5b50919050565b601f82111561082257600081815260208120601f850160051c810160208610156127ad5750805b601f850160051c820191505b81811015611a72578281556001016127b9565b815167ffffffffffffffff8111156127e6576127e661216d565b6127fa816127f4845461274c565b84612786565b602080601f83116001811461282f57600084156128175750858301515b600019600386901b1c1916600185901b178555611a72565b600085815260208120601f198616915b8281101561285e5788860151825594840194600190910190840161283f565b508582101561287c5787850151600019600388901b60f8161c191681555b5050505050600190811b01905550565b634e487b7160e01b600052601160045260246000fd5b808202811582820484141761058e5761058e61288c565b6000600182016128cb576128cb61288c565b5060010190565b683d913730b6b2911d1160b91b815286516000906128f7816009850160208c016122a1565b61202360f01b600991840191820152875161291981600b840160208c016122a1565b6a11161134b6b0b3b2911d1160a91b600b92909101918201528651612945816016840160208b016122a1565b6f222c2261747472696275746573223a5b60801b601692909101918201527f7b2274726169745f74797065223a22526172697479222c2276616c7565223a226026820152855161299c816046840160208a016122a1565b612a50612a42612a35612a2f612a066129f86129f26129c96046898b010162089f4b60ea1b815260030190565b7f7b2274726169745f74797065223a224c6576656c222c2276616c7565223a00008152601e0190565b8c612714565b611f4b60f21b815260020190565b7f7b2274726169745f74797065223a2241747461636b222c2276616c7565223a008152601f0190565b88612714565b607d60f81b815260010190565b615d7d60f01b815260020190565b9a9950505050505050505050565b7f646174613a6170706c69636174696f6e2f6a736f6e3b6261736536342c000000815260008251612a9681601d8501602087016122a1565b91909101601d0192915050565b8082018082111561058e5761058e61288c565b604081526000612ac960408301856122c5565b828103602084015261181981856122c5565b6001600160a01b0385811682528416602082015260408101839052608060608201819052600090612b0e908301846122c5565b9695505050505050565b600060208284031215612b2a57600080fd5b815161181d8161213a565b600082612b5257634e487b7160e01b600052601260045260246000fd5b50049056fe4142434445464748494a4b4c4d4e4f505152535455565758595a6162636465666768696a6b6c6d6e6f707172737475767778797a303132333435363738392b2fa26469706673582212201fc2907033e7ec5cc516e1026fc6f48f5c2f1f4603e131e6df0d78ff21629f4564736f6c6343000814003368747470733a2f2f706c756d2d77726f6e672d646f672d3731352e6d7970696e6174612e636c6f75642f697066732f6261666b726569646d75633264716f646877666f7a626c3674686e627234626876706d716636786876776d6e6e34356d3771667963706874787679",
  "linkReferences": {},
  "deployedLinkReferences": {}
}