{
  "_format": "hh-sol-artifact-1",
  "contractName": "ArenaCards",
  "sourceName": "contracts/ArenaCards.sol",
  "abi": [
    {
      "inputs": [],
      "stateMutability": "nonpayable",
      "type": "constructor"
    },
    {
      "inputs": [
        {
          "internalType": "address",
          "name": "sender",
          "type": "address"
        },
        {
          "internalType": "uint256",
          "name": "tokenId",
          "type": "uint256"
        },
        {
          "internalType": "address",
          "name": "owner",
          "type": "address"
        }
      ],
      "name": "ERC721IncorrectOwner",
      "type": "error"
    },
    {
      "inputs": [
        {
          "internalType": "address",
          "name": "operator",
          "type": "address"
        },
        {
          "internalType": "uint256",
          "name": "tokenId",
          "type": "uint256"
        }
      ],
      "name": "ERC721InsufficientApproval",
      "type": "error"
    },
    {
      "inputs": [
        {
          "internalType": "address",
          "name": "approver",
          "type": "address"
        }
      ],
      "name": "ERC721InvalidApprover",
      "type": "error"
    },
    {
      "inputs": [
        {
          "internalType": "address",
          "name": "operator",
          "type": "address"
        }
      ],
      "name": "ERC721InvalidOperator",
      "type": "error"
    },
    {
      "inputs": [
        {
          "internalType": "address",
          "name": "owner",
          "type": "address"
        }
      ],
      "name": "ERC721InvalidOwner",
      "type": "error"
    },
    {
      "inputs": [
        {
          "internalType": "address",
          "name": "receiver",
          "type": "address"
        }
      ],
      "name": "ERC721InvalidReceiver",
      "type": "error"
    },
    {
      "inputs": [
        {
          "internalType": "address",
          "name": "sender",
          "type": "address"
        }
      ],
      "name": "ERC721InvalidSender",
      "type": "error"
    },
    {
      "inputs": [
        {
          "internalType": "uint256",
          "name": "tokenId",
          "type": "uint256"
        }
      ],
      "name": "ERC721NonexistentToken",
      "type": "error"
    },
    {
      "inputs": [
        {
          "internalType": "address",
          "name": "owner",
          "type": "address"
        }
      ],
      "name": "OwnableInvalidOwner",
      "type": "error"
    },
    {
      "inputs": [
        {
          "internalType": "address",
          "name": "account",
          "type": "address"
        }
      ],
      "name": "OwnableUnauthorizedAccount",
      "type": "error"
    },
    {
      "anonymous": false,
      "inputs": [
        {
          "indexed": true,
          "internalType": "address",
          "name": "owner",
          "type": "address"
        },
        {
          "indexed": true,
          "internalType": "address",
          "name": "approved",
          "type": "address"
        },
        {
          "indexed": true,
          "internalType": "uint256",
          "name": "tokenId",
          "type": "uint256"
        }
      ],
      "name": "Approval",
      "type": "event"
    },
    {
      "anonymous": false,
      "inputs": [
        {
          "indexed": true,
          "internalType": "address",
          "name": "owner",
          "type": "address"
        },
        {
          "indexed": true,
          "internalType": "address",
          "name": "operator",
          "type": "address"
        },
        {
          "indexed": false,
          "internalType": "bool",
          "name": "approved",
          "type": "bool"
        }
      ],
      "name": "ApprovalForAll",
      "type": "event"
    },
    {
      "anonymous": false,
      "inputs": [
        {
          "indexed": true,
          "internalType": "address",
          "name": "newMinter",
          "type": "address"
        }
      ],
      "name": "AuthorizedMinterUpdated",
      "type": "event"
    },
    {
      "anonymous": false,
      "inputs": [
        {
          "indexed": false,
          "internalType": "uint256",
          "name": "_fromTokenId",
          "type": "uint256"
        },
        {
          "indexed": false,
          "internalType": "uint256",
          "name": "_toTokenId",
          "type": "uint256"
        }
      ],
      "name": "BatchMetadataUpdate",
      "type": "event"
    },
    {
      "anonymous": false,
      "inputs": [
        {
          "indexed": true,
          "internalType": "uint256",
          "name": "tokenId",
          "type": "uint256"
        },
        {
          "indexed": false,
          "internalType": "uint256",
          "name": "unlockTime",
          "type": "uint256"
        }
      ],
      "name": "CardLocked",
      "type": "event"
    },
    {
      "anonymous": false,
      "inputs": [
        {
          "indexed": true,
          "internalType": "uint256",
          "name": "tokenId",
          "type": "uint256"
        },
        {
          "indexed": true,
          "internalType": "address",
          "name": "owner",
          "type": "address"
        },
        {
          "indexed": false,
          "internalType": "string",
          "name": "name",
          "type": "string"
        },
        {
          "indexed": false,
          "internalType": "string",
          "name": "rarity",
          "type": "string"
        }
      ],
      "name": "CardMinted",
      "type": "event"
    },
    {
      "anonymous": false,
      "inputs": [
        {
          "indexed": true,
          "internalType": "uint256",
          "name": "tokenId1",
          "type": "uint256"
        },
        {
          "indexed": true,
          "internalType": "uint256",
          "name": "tokenId2",
          "type": "uint256"
        },
        {
          "indexed": true,
          "internalType": "uint256",
          "name": "newTokenId",
          "type": "uint256"
        },
        {
          "indexed": false,
          "internalType": "uint256",
          "name": "newLevel",
          "type": "uint256"
        }
      ],
      "name": "CardsFused",
      "type": "event"
    },
    {
      "anonymous": false,
      "inputs": [
        {
          "indexed": false,
          "internalType": "uint256",
          "name": "_tokenId",
          "type": "uint256"
        }
      ],
      "name": "MetadataUpdate",
      "type": "event"
    },
    {
      "anonymous": false,
      "inputs": [
        {
          "indexed": true,
          "internalType": "address",
          "name": "previousOwner",
          "type": "address"
        },
        {
          "indexed": true,
          "internalType": "address",
          "name": "newOwner",
          "type": "address"
        }
      ],
      "name": "OwnershipTransferred",
      "type": "event"
    },
    {
      "anonymous": false,
      "inputs": [
        {
          "indexed": true,
          "internalType": "address",
          "name": "from",
          "type": "address"
        },
        {
          "indexed": true,
          "internalType": "address",
          "name": "to",
          "type": "address"
        },
        {
          "indexed": true,
          "internalType": "uint256",
          "name": "tokenId",
          "type": "uint256"
        }
      ],
      "name": "Transfer",
      "type": "event"
    },
    {
      "inputs": [],
      "name": "COOLDOWN",
      "outputs": [
        {
          "internalType": "uint256",
          "name": "",
          "type": "uint256"
        }
      ],
      "stateMutability": "view",
      "type": "function"
    },
    {
      "inputs": [],
      "name": "LOCK_TIME",
      "outputs": [
        {
          "internalType": "uint256",
          "name": "",
          "type": "uint256"
        }
      ],
      "stateMutability": "view",
      "type": "function"
    },
    {
      "inputs": [],
      "name": "MAX_CARDS",
      "outputs": [
        {
          "internalType": "uint256",
          "name": "",
          "type": "uint256"
        }
      ],
      "stateMutability": "view",
      "type": "function"
    },
    {
      "inputs": [
        {
          "internalType": "address",
          "name": "to",
          "type": "address"
        },
        {
          "internalType": "uint256",
          "name": "tokenId",
          "type": "uint256"
        }
      ],
      "name": "approve",
      "outputs": [],
      "stateMutability": "nonpayable",
      "type": "function"
    },
    {
      "inputs": [],
      "name": "authorizedMinter",
      "outputs": [
        {
          "internalType": "address",
          "name": "",
          "type": "address"
        }
      ],
      "stateMutability": "view",
      "type": "function"
    },
    {
      "inputs": [
        {
          "internalType": "address",
          "name": "owner",
          "type": "address"
        }
      ],
      "name": "balanceOf",
      "outputs": [
        {
          "internalType": "uint256",
          "name": "",
          "type": "uint256"
        }
      ],
      "stateMutability": "view",
      "type": "function"
    },
    {
      "inputs": [
        {
          "internalType": "uint256",
          "name": "",
          "type": "uint256"
        }
      ],
      "name": "cardDetails",
      "outputs": [
        {
          "internalType": "uint256",
          "name": "level",
          "type": "uint256"
        },
        {
          "internalType": "string",
          "name": "rarity",
          "type": "string"
        },
        {
          "internalType": "string",
          "name": "name",
          "type": "string"
        },
        {
          "internalType": "uint256",
          "name": "createdAt",
          "type": "uint256"
        },
        {
          "internalType": "uint256",
          "name": "lastTransferAt",
          "type": "uint256"
        }
      ],
      "stateMutability": "view",
      "type": "function"
    },
    {
      "inputs": [
        {
          "internalType": "uint256",
          "name": "tokenId1",
          "type": "uint256"
        },
        {
          "internalType": "uint256",
          "name": "tokenId2",
          "type": "uint256"
        },
        {
          "internalType": "string",
          "name": "newTokenURI",
          "type": "string"
        }
      ],
      "name": "fusecards",
      "outputs": [],
      "stateMutability": "nonpayable",
      "type": "function"
    },
    {
      "inputs": [
        {
          "internalType": "uint256",
          "name": "tokenId",
          "type": "uint256"
        }
      ],
      "name": "getApproved",
      "outputs": [
        {
          "internalType": "address",
          "name": "",
          "type": "address"
        }
      ],
      "stateMutability": "view",
      "type": "function"
    },
    {
      "inputs": [
        {
          "internalType": "uint256",
          "name": "tokenId",
          "type": "uint256"
        }
      ],
      "name": "getPreviousOwners",
      "outputs": [
        {
          "internalType": "address[]",
          "name": "",
          "type": "address[]"
        }
      ],
      "stateMutability": "view",
      "type": "function"
    },
    {
      "inputs": [
        {
          "internalType": "address",
          "name": "owner",
          "type": "address"
        },
        {
          "internalType": "address",
          "name": "operator",
          "type": "address"
        }
      ],
      "name": "isApprovedForAll",
      "outputs": [
        {
          "internalType": "bool",
          "name": "",
          "type": "bool"
        }
      ],
      "stateMutability": "view",
      "type": "function"
    },
    {
      "inputs": [
        {
          "internalType": "address",
          "name": "",
          "type": "address"
        }
      ],
      "name": "lastAction",
      "outputs": [
        {
          "internalType": "uint256",
          "name": "",
          "type": "uint256"
        }
      ],
      "stateMutability": "view",
      "type": "function"
    },
    {
      "inputs": [
        {
          "internalType": "uint256",
          "name": "",
          "type": "uint256"
        }
      ],
      "name": "lockUntil",
      "outputs": [
        {
          "internalType": "uint256",
          "name": "",
          "type": "uint256"
        }
      ],
      "stateMutability": "view",
      "type": "function"
    },
    {
      "inputs": [
        {
          "internalType": "address",
          "name": "to",
          "type": "address"
        },
        {
          "internalType": "string",
          "name": "tokenURI",
          "type": "string"
        },
        {
          "internalType": "string",
          "name": "name",
          "type": "string"
        },
        {
          "internalType": "string",
          "name": "rarity",
          "type": "string"
        }
      ],
      "name": "mintCard",
      "outputs": [],
      "stateMutability": "nonpayable",
      "type": "function"
    },
    {
      "inputs": [],
      "name": "name",
      "outputs": [
        {
          "internalType": "string",
          "name": "",
          "type": "string"
        }
      ],
      "stateMutability": "view",
      "type": "function"
    },
    {
      "inputs": [],
      "name": "owner",
      "outputs": [
        {
          "internalType": "address",
          "name": "",
          "type": "address"
        }
      ],
      "stateMutability": "view",
      "type": "function"
    },
    {
      "inputs": [
        {
          "internalType": "uint256",
          "name": "tokenId",
          "type": "uint256"
        }
      ],
      "name": "ownerOf",
      "outputs": [
        {
          "internalType": "address",
          "name": "",
          "type": "address"
        }
      ],
      "stateMutability": "view",
      "type": "function"
    },
    {
      "inputs": [
        {
          "internalType": "uint256",
          "name": "",
          "type": "uint256"
        },
        {
          "internalType": "uint256",
          "name": "",
          "type": "uint256"
        }
      ],
      "name": "previousOwners",
      "outputs": [
        {
          "internalType": "address",
          "name": "",
          "type": "address"
        }
      ],
      "stateMutability": "view",
      "type": "function"
    },
    {
      "inputs": [],
      "name": "renounceOwnership",
      "outputs": [],
      "stateMutability": "nonpayable",
      "type": "function"
    },
    {
      "inputs": [
        {
          "internalType": "address",
          "name": "from",
          "type": "address"
        },
        {
          "internalType": "address",
          "name": "to",
          "type": "address"
        },
        {
          "internalType": "uint256",
          "name": "tokenId",
          "type": "uint256"
        }
      ],
      "name": "safeTransferFrom",
      "outputs": [],
      "stateMutability": "nonpayable",
      "type": "function"
    },
    {
      "inputs": [
        {
          "internalType": "address",
          "name": "from",
          "type": "address"
        },
        {
          "internalType": "address",
          "name": "to",
          "type": "address"
        },
        {
          "internalType": "uint256",
          "name": "tokenId",
          "type": "uint256"
        },
        {
          "internalType": "bytes",
          "name": "data",
          "type": "bytes"
        }
      ],
      "name": "safeTransferFrom",
      "outputs": [],
      "stateMutability": "nonpayable",
      "type": "function"
    },
    {
      "inputs": [
        {
          "internalType": "address",
          "name": "operator",
          "type": "address"
        },
        {
          "internalType": "bool",
          "name": "approved",
          "type": "bool"
        }
      ],
      "name": "setApprovalForAll",
      "outputs": [],
      "stateMutability": "nonpayable",
      "type": "function"
    },
    {
      "inputs": [
        {
          "internalType": "address",
          "name": "_minter",
          "type": "address"
        }
      ],
      "name": "setAuthorizedMinter",
      "outputs": [],
      "stateMutability": "nonpayable",
      "type": "function"
    },
    {
      "inputs": [
        {
          "internalType": "bytes4",
          "name": "interfaceId",
          "type": "bytes4"
        }
      ],
      "name": "supportsInterface",
      "outputs": [
        {
          "internalType": "bool",
          "name": "",
          "type": "bool"
        }
      ],
      "stateMutability": "view",
      "type": "function"
    },
    {
      "inputs": [],
      "name": "symbol",
      "outputs": [
        {
          "internalType": "string",
          "name": "",
          "type": "string"
        }
      ],
      "stateMutability": "view",
      "type": "function"
    },
    {
      "inputs": [],
      "name": "tokenCounter",
      "outputs": [
        {
          "internalType": "uint256",
          "name": "",
          "type": "uint256"
        }
      ],
      "stateMutability": "view",
      "type": "function"
    },
    {
      "inputs": [
        {
          "internalType": "uint256",
          "name": "tokenId",
          "type": "uint256"
        }
      ],
      "name": "tokenURI",
      "outputs": [
        {
          "internalType": "string",
          "name": "",
          "type": "string"
        }
      ],
      "stateMutability": "view",
      "type": "function"
    },
    {
      "inputs": [
        {
          "internalType": "address",
          "name": "from",
          "type": "address"
        },
        {
          "internalType": "address",
          "name": "to",
          "type": "address"
        },
        {
          "internalType": "uint256",
          "name": "tokenId",
          "type": "uint256"
        }
      ],
      "name": "transferFrom",
      "outputs": [],
      "stateMutability": "nonpayable",
      "type": "function"
    },
    {
      "inputs": [
        {
          "internalType": "address",
          "name": "newOwner",
          "type": "address"
        }
      ],
      "name": "transferOwnership",
      "outputs": [],
      "stateMutability": "nonpayable",
      "type": "function"
    }
  ],
  "bytecode": "0x60806040523480156200001157600080fd5b50336040518060400160405280600b81526020017f4172656e612043617264730000000000000000000000000000000000000000008152506040518060400160405280600581526020017f4143415244000000000000000000000000000000000000000000000000000000815250816000908162000090919062000472565b508060019081620000a2919062000472565b505050600073ffffffffffffffffffffffffffffffffffffffff168173ffffffffffffffffffffffffffffffffffffffff16036200011a5760006040517f1e4fbdf70000000000000000000000000000000000000000000000000000000081526004016200011191906200059e565b60405180910390fd5b6200012b816200013260201b60201c565b50620005bb565b6000600760009054906101000a900473ffffffffffffffffffffffffffffffffffffffff16905081600760006101000a81548173ffffffffffffffffffffffffffffffffffffffff021916908373ffffffffffffffffffffffffffffffffffffffff1602179055508173ffffffffffffffffffffffffffffffffffffffff168173ffffffffffffffffffffffffffffffffffffffff167f8be0079c531659141344cd1fd0a4f28419497f9722a3daafe3b4186f6b6457e060405160405180910390a35050565b600081519050919050565b7f4e487b7100000000000000000000000000000000000000000000000000000000600052604160045260246000fd5b7f4e487b7100000000000000000000000000000000000000000000000000000000600052602260045260246000fd5b600060028204905060018216806200027a57607f821691505b60208210810362000290576200028f62000232565b5b50919050565b60008190508160005260206000209050919050565b60006020601f8301049050919050565b600082821b905092915050565b600060088302620002fa7fffffffffffffffffffffffffffffffffffffffffffffffffffffffffffffffff82620002bb565b620003068683620002bb565b95508019841693508086168417925050509392505050565b6000819050919050565b6000819050919050565b6000620003536200034d62000347846200031e565b62000328565b6200031e565b9050919050565b6000819050919050565b6200036f8362000332565b620003876200037e826200035a565b848454620002c8565b825550505050565b600090565b6200039e6200038f565b620003ab81848462000364565b505050565b5b81811015620003d357620003c760008262000394565b600181019050620003b1565b5050565b601f8211156200042257620003ec8162000296565b620003f784620002ab565b8101602085101562000407578190505b6200041f6200041685620002ab565b830182620003b0565b50505b505050565b600082821c905092915050565b6000620004476000198460080262000427565b1980831691505092915050565b600062000462838362000434565b9150826002028217905092915050565b6200047d82620001f8565b67ffffffffffffffff81111562000499576200049862000203565b5b620004a5825462000261565b620004b2828285620003d7565b600060209050601f831160018114620004ea5760008415620004d5578287015190505b620004e1858262000454565b86555062000551565b601f198416620004fa8662000296565b60005b828110156200052457848901518255600182019150602085019450602081019050620004fd565b8683101562000544578489015162000540601f89168262000434565b8355505b6001600288020188555050505b505050505050565b600073ffffffffffffffffffffffffffffffffffffffff82169050919050565b6000620005868262000559565b9050919050565b620005988162000579565b82525050565b6000602082019050620005b560008301846200058d565b92915050565b61417f80620005cb6000396000f3fe608060405234801561001057600080fd5b50600436106101cf5760003560e01c80637e744a7611610104578063b88d4fde116100a2578063e985e9c511610071578063e985e9c51461052e578063ef7c89591461055e578063f1a0995c14610592578063f2fde38b146105c2576101cf565b8063b88d4fde146104a8578063c87b56dd146104c4578063d082e381146104f4578063dea2a72014610512576101cf565b806395d89b41116100de57806395d89b4114610420578063a22cb4651461043e578063a2724a4d1461045a578063b54fb04a14610478576101cf565b80637e744a76146103c857806389a59662146103e65780638da5cb5b14610402576101cf565b806323b872dd116101715780636352211e1161014b5780636352211e1461032e57806370720d1f1461035e57806370a082311461038e578063715018a6146103be576101cf565b806323b872dd146102d8578063413d9c3a146102f457806342842e0e14610312576101cf565b8063095ea7b3116101ad578063095ea7b3146102525780630ceea3051461026e5780631928b7c31461029e5780631ba538cd146102ba576101cf565b806301ffc9a7146101d457806306fdde0314610204578063081812fc14610222575b600080fd5b6101ee60048036038101906101e99190612f42565b6105de565b6040516101fb9190612f8a565b60405180910390f35b61020c61063f565b6040516102199190613035565b60405180910390f35b61023c6004803603810190610237919061308d565b6106d1565b60405161024991906130fb565b60405180910390f35b61026c60048036038101906102679190613142565b6106ed565b005b6102886004803603810190610283919061308d565b610703565b6040516102959190613191565b60405180910390f35b6102b860048036038101906102b391906131ac565b61071b565b005b6102c26107aa565b6040516102cf91906130fb565b60405180910390f35b6102f260048036038101906102ed91906131d9565b6107d0565b005b6102fc6108d2565b6040516103099190613191565b60405180910390f35b61032c600480360381019061032791906131d9565b6108d8565b005b6103486004803603810190610343919061308d565b6108f8565b60405161035591906130fb565b60405180910390f35b610378600480360381019061037391906131ac565b61090a565b6040516103859190613191565b60405180910390f35b6103a860048036038101906103a391906131ac565b610922565b6040516103b59190613191565b60405180910390f35b6103c66109dc565b005b6103d06109f0565b6040516103dd9190613191565b60405180910390f35b61040060048036038101906103fb9190613361565b6109f5565b005b61040a610e10565b60405161041791906130fb565b60405180910390f35b610428610e3a565b6040516104359190613035565b60405180910390f35b61045860048036038101906104539190613448565b610ecc565b005b610462610ee2565b60405161046f9190613191565b60405180910390f35b610492600480360381019061048d9190613488565b610ee8565b60405161049f91906130fb565b60405180910390f35b6104c260048036038101906104bd9190613569565b610f36565b005b6104de60048036038101906104d9919061308d565b610f5b565b6040516104eb9190613035565b60405180910390f35b6104fc61106e565b6040516105099190613191565b60405180910390f35b61052c600480360381019061052791906135ec565b611074565b005b6105486004803603810190610543919061365b565b611944565b6040516105559190612f8a565b60405180910390f35b6105786004803603810190610573919061308d565b6119d8565b60405161058995949392919061369b565b60405180910390f35b6105ac60048036038101906105a7919061308d565b611b1e565b6040516105b991906137ba565b60405180910390f35b6105dc60048036038101906105d791906131ac565b611bbf565b005b6000634906490660e01b7bffffffffffffffffffffffffffffffffffffffffffffffffffffffff1916827bffffffffffffffffffffffffffffffffffffffffffffffffffffffff19161480610638575061063782611c45565b5b9050919050565b60606000805461064e9061380b565b80601f016020809104026020016040519081016040528092919081815260200182805461067a9061380b565b80156106c75780601f1061069c576101008083540402835291602001916106c7565b820191906000526020600020905b8154815290600101906020018083116106aa57829003601f168201915b5050505050905090565b60006106dc82611d27565b506106e682611daf565b9050919050565b6106ff82826106fa611dec565b611df4565b5050565b600d6020528060005260406000206000915090505481565b610723611e06565b80600960006101000a81548173ffffffffffffffffffffffffffffffffffffffff021916908373ffffffffffffffffffffffffffffffffffffffff1602179055508073ffffffffffffffffffffffffffffffffffffffff167f22f4232b4b10ff18b9664d275d7c8d22a51d252662889574fb0e5efb5af208fd60405160405180910390a250565b600960009054906101000a900473ffffffffffffffffffffffffffffffffffffffff1681565b600073ffffffffffffffffffffffffffffffffffffffff168273ffffffffffffffffffffffffffffffffffffffff16036108425760006040517f64a0ae9200000000000000000000000000000000000000000000000000000000815260040161083991906130fb565b60405180910390fd5b60006108568383610851611dec565b611e8d565b90508373ffffffffffffffffffffffffffffffffffffffff168173ffffffffffffffffffffffffffffffffffffffff16146108cc578382826040517f64283d7b0000000000000000000000000000000000000000000000000000000081526004016108c39392919061383c565b60405180910390fd5b50505050565b61025881565b6108f383838360405180602001604052806000815250610f36565b505050565b600061090382611d27565b9050919050565b600c6020528060005260406000206000915090505481565b60008073ffffffffffffffffffffffffffffffffffffffff168273ffffffffffffffffffffffffffffffffffffffff16036109955760006040517f89c62b6400000000000000000000000000000000000000000000000000000000815260040161098c91906130fb565b60405180910390fd5b600360008373ffffffffffffffffffffffffffffffffffffffff1673ffffffffffffffffffffffffffffffffffffffff168152602001908152602001600020549050919050565b6109e4611e06565b6109ee6000611fca565b565b601e81565b83601e610a0182610922565b10610a41576040517f08c379a0000000000000000000000000000000000000000000000000000000008152600401610a38906138bf565b60405180910390fd5b610a49610e10565b73ffffffffffffffffffffffffffffffffffffffff163373ffffffffffffffffffffffffffffffffffffffff161480610acf5750600960009054906101000a900473ffffffffffffffffffffffffffffffffffffffff1673ffffffffffffffffffffffffffffffffffffffff163373ffffffffffffffffffffffffffffffffffffffff16145b610b0e576040517f08c379a0000000000000000000000000000000000000000000000000000000008152600401610b059061392b565b60405180910390fd5b600960009054906101000a900473ffffffffffffffffffffffffffffffffffffffff1673ffffffffffffffffffffffffffffffffffffffff163373ffffffffffffffffffffffffffffffffffffffff1614610c3d576000600c60008773ffffffffffffffffffffffffffffffffffffffff1673ffffffffffffffffffffffffffffffffffffffff168152602001908152602001600020541480610bfd575061012c600c60008773ffffffffffffffffffffffffffffffffffffffff1673ffffffffffffffffffffffffffffffffffffffff16815260200190815260200160002054610bf9919061397a565b4210155b610c3c576040517f08c379a0000000000000000000000000000000000000000000000000000000008152600401610c33906139fa565b60405180910390fd5b5b60006008549050610c4e8682612090565b610c5881866120ae565b6040518060a001604052806001815260200184815260200185815260200142815260200142815250600a6000838152602001908152602001600020600082015181600001556020820151816001019081610cb29190613bc6565b506040820151816002019081610cc89190613bc6565b50606082015181600301556080820151816004015590505061025842610cee919061397a565b600d600083815260200190815260200160002081905550600960009054906101000a900473ffffffffffffffffffffffffffffffffffffffff1673ffffffffffffffffffffffffffffffffffffffff163373ffffffffffffffffffffffffffffffffffffffff1614610d9f5742600c60008873ffffffffffffffffffffffffffffffffffffffff1673ffffffffffffffffffffffffffffffffffffffff168152602001908152602001600020819055505b60086000815480929190610db290613c98565b91905055508573ffffffffffffffffffffffffffffffffffffffff16817f09394dacdfb781605e27c4bf5b7bf8a7e3abacb7086d4d35ce8f51182407b0f18686604051610e00929190613ce0565b60405180910390a3505050505050565b6000600760009054906101000a900473ffffffffffffffffffffffffffffffffffffffff16905090565b606060018054610e499061380b565b80601f0160208091040260200160405190810160405280929190818152602001828054610e759061380b565b8015610ec25780601f10610e9757610100808354040283529160200191610ec2565b820191906000526020600020905b815481529060010190602001808311610ea557829003601f168201915b5050505050905090565b610ede610ed7611dec565b838361210a565b5050565b61012c81565b600b6020528160005260406000208181548110610f0457600080fd5b906000526020600020016000915091509054906101000a900473ffffffffffffffffffffffffffffffffffffffff1681565b610f418484846107d0565b610f55610f4c611dec565b85858585612279565b50505050565b6060610f6682611d27565b506000600660008481526020019081526020016000208054610f879061380b565b80601f0160208091040260200160405190810160405280929190818152602001828054610fb39061380b565b80156110005780601f10610fd557610100808354040283529160200191611000565b820191906000526020600020905b815481529060010190602001808311610fe357829003601f168201915b50505050509050600061101161242a565b90506000815103611026578192505050611069565b60008251111561105b578082604051602001611043929190613d53565b60405160208183030381529060405292505050611069565b61106484612441565b925050505b919050565b60085481565b336000600c60008373ffffffffffffffffffffffffffffffffffffffff1673ffffffffffffffffffffffffffffffffffffffff16815260200190815260200160002054148061110f575061012c600c60008373ffffffffffffffffffffffffffffffffffffffff1673ffffffffffffffffffffffffffffffffffffffff1681526020019081526020016000205461110b919061397a565b4210155b61114e576040517f08c379a0000000000000000000000000000000000000000000000000000000008152600401611145906139fa565b60405180910390fd5b33601e61115a82610922565b1061119a576040517f08c379a0000000000000000000000000000000000000000000000000000000008152600401611191906138bf565b60405180910390fd5b84600d6000828152602001908152602001600020544210156111f1576040517f08c379a00000000000000000000000000000000000000000000000000000000081526004016111e890613dc3565b60405180910390fd5b84600d600082815260200190815260200160002054421015611248576040517f08c379a000000000000000000000000000000000000000000000000000000000815260040161123f90613dc3565b60405180910390fd5b3373ffffffffffffffffffffffffffffffffffffffff16611268886108f8565b73ffffffffffffffffffffffffffffffffffffffff16146112be576040517f08c379a00000000000000000000000000000000000000000000000000000000081526004016112b590613e2f565b60405180910390fd5b3373ffffffffffffffffffffffffffffffffffffffff166112de876108f8565b73ffffffffffffffffffffffffffffffffffffffff1614611334576040517f08c379a000000000000000000000000000000000000000000000000000000000815260040161132b90613e9b565b60405180910390fd5b858703611376576040517f08c379a000000000000000000000000000000000000000000000000000000000815260040161136d90613f07565b60405180910390fd5b6000600a60008981526020019081526020016000206040518060a0016040529081600082015481526020016001820180546113b09061380b565b80601f01602080910402602001604051908101604052809291908181526020018280546113dc9061380b565b80156114295780601f106113fe57610100808354040283529160200191611429565b820191906000526020600020905b81548152906001019060200180831161140c57829003601f168201915b505050505081526020016002820180546114429061380b565b80601f016020809104026020016040519081016040528092919081815260200182805461146e9061380b565b80156114bb5780601f10611490576101008083540402835291602001916114bb565b820191906000526020600020905b81548152906001019060200180831161149e57829003601f168201915b505050505081526020016003820154815260200160048201548152505090506000600a60008981526020019081526020016000206040518060a0016040529081600082015481526020016001820180546115149061380b565b80601f01602080910402602001604051908101604052809291908181526020018280546115409061380b565b801561158d5780601f106115625761010080835404028352916020019161158d565b820191906000526020600020905b81548152906001019060200180831161157057829003601f168201915b505050505081526020016002820180546115a69061380b565b80601f01602080910402602001604051908101604052809291908181526020018280546115d29061380b565b801561161f5780601f106115f45761010080835404028352916020019161161f565b820191906000526020600020905b81548152906001019060200180831161160257829003601f168201915b5050505050815260200160038201548152602001600482015481525050905080602001518051906020012082602001518051906020012014611696576040517f08c379a000000000000000000000000000000000000000000000000000000000815260040161168d90613f73565b60405180910390fd5b6000816000015183600001516116ac919061397a565b90506000836040015183604001516040516020016116cb929190613fdf565b60405160208183030381529060405290506116e58b6124aa565b6116ee8a6124aa565b600a60008c815260200190815260200160002060008082016000905560018201600061171a9190612e79565b60028201600061172a9190612e79565b600382016000905560048201600090555050600a60008b81526020019081526020016000206000808201600090556001820160006117689190612e79565b6002820160006117789190612e79565b6003820160009055600482016000905550506000600854905061179b3382612090565b6117a5818b6120ae565b6040518060a001604052808481526020018660200151815260200183815260200142815260200142815250600a60008381526020019081526020016000206000820151816000015560208201518160010190816118029190613bc6565b5060408201518160020190816118189190613bc6565b5060608201518160030155608082015181600401559050506102584261183e919061397a565b600d60008381526020019081526020016000208190555042600c60003373ffffffffffffffffffffffffffffffffffffffff1673ffffffffffffffffffffffffffffffffffffffff16815260200190815260200160002081905550600860008154809291906118ac90613c98565b9190505550808b8d7f2ebad7029487c6d3ee9e61fa96fa562610a8b6fcc5621ee72fff388779f8c9b2866040516118e39190613191565b60405180910390a4807f17cb401a0fe657bce1050511a2fdd187a7910abf4653dc8129277c4668964af7600d60008481526020019081526020016000205460405161192e9190613191565b60405180910390a2505050505050505050505050565b6000600560008473ffffffffffffffffffffffffffffffffffffffff1673ffffffffffffffffffffffffffffffffffffffff16815260200190815260200160002060008373ffffffffffffffffffffffffffffffffffffffff1673ffffffffffffffffffffffffffffffffffffffff16815260200190815260200160002060009054906101000a900460ff16905092915050565b600a602052806000526040600020600091509050806000015490806001018054611a019061380b565b80601f0160208091040260200160405190810160405280929190818152602001828054611a2d9061380b565b8015611a7a5780601f10611a4f57610100808354040283529160200191611a7a565b820191906000526020600020905b815481529060010190602001808311611a5d57829003601f168201915b505050505090806002018054611a8f9061380b565b80601f0160208091040260200160405190810160405280929190818152602001828054611abb9061380b565b8015611b085780601f10611add57610100808354040283529160200191611b08565b820191906000526020600020905b815481529060010190602001808311611aeb57829003601f168201915b5050505050908060030154908060040154905085565b6060600b6000838152602001908152602001600020805480602002602001604051908101604052809291908181526020018280548015611bb357602002820191906000526020600020905b8160009054906101000a900473ffffffffffffffffffffffffffffffffffffffff1673ffffffffffffffffffffffffffffffffffffffff1681526020019060010190808311611b69575b50505050509050919050565b611bc7611e06565b600073ffffffffffffffffffffffffffffffffffffffff168173ffffffffffffffffffffffffffffffffffffffff1603611c395760006040517f1e4fbdf7000000000000000000000000000000000000000000000000000000008152600401611c3091906130fb565b60405180910390fd5b611c4281611fca565b50565b60007f80ac58cd000000000000000000000000000000000000000000000000000000007bffffffffffffffffffffffffffffffffffffffffffffffffffffffff1916827bffffffffffffffffffffffffffffffffffffffffffffffffffffffff19161480611d1057507f5b5e139f000000000000000000000000000000000000000000000000000000007bffffffffffffffffffffffffffffffffffffffffffffffffffffffff1916827bffffffffffffffffffffffffffffffffffffffffffffffffffffffff1916145b80611d205750611d1f82612530565b5b9050919050565b600080611d338361259a565b9050600073ffffffffffffffffffffffffffffffffffffffff168173ffffffffffffffffffffffffffffffffffffffff1603611da657826040517f7e273289000000000000000000000000000000000000000000000000000000008152600401611d9d9190613191565b60405180910390fd5b80915050919050565b60006004600083815260200190815260200160002060009054906101000a900473ffffffffffffffffffffffffffffffffffffffff169050919050565b600033905090565b611e0183838360016125d7565b505050565b611e0e611dec565b73ffffffffffffffffffffffffffffffffffffffff16611e2c610e10565b73ffffffffffffffffffffffffffffffffffffffff1614611e8b57611e4f611dec565b6040517f118cdaa7000000000000000000000000000000000000000000000000000000008152600401611e8291906130fb565b60405180910390fd5b565b600080611e998461259a565b9050600073ffffffffffffffffffffffffffffffffffffffff168173ffffffffffffffffffffffffffffffffffffffff1614611fb557600d600085815260200190815260200160002054421015611f25576040517f08c379a0000000000000000000000000000000000000000000000000000000008152600401611f1c90613dc3565b60405180910390fd5b600b6000858152602001908152602001600020819080600181540180825580915050600190039060005260206000200160009091909190916101000a81548173ffffffffffffffffffffffffffffffffffffffff021916908373ffffffffffffffffffffffffffffffffffffffff16021790555042600a6000868152602001908152602001600020600401819055505b611fc085858561279c565b9150509392505050565b6000600760009054906101000a900473ffffffffffffffffffffffffffffffffffffffff16905081600760006101000a81548173ffffffffffffffffffffffffffffffffffffffff021916908373ffffffffffffffffffffffffffffffffffffffff1602179055508173ffffffffffffffffffffffffffffffffffffffff168173ffffffffffffffffffffffffffffffffffffffff167f8be0079c531659141344cd1fd0a4f28419497f9722a3daafe3b4186f6b6457e060405160405180910390a35050565b6120aa8282604051806020016040528060008152506129b6565b5050565b806006600084815260200190815260200160002090816120ce9190613bc6565b507ff8e1a15aba9398e019f0b49df1a4fde98ee17ae345cb5f6b5e2c27f5033e8ce7826040516120fe9190613191565b60405180910390a15050565b600073ffffffffffffffffffffffffffffffffffffffff168273ffffffffffffffffffffffffffffffffffffffff160361217b57816040517f5b08ba1800000000000000000000000000000000000000000000000000000000815260040161217291906130fb565b60405180910390fd5b80600560008573ffffffffffffffffffffffffffffffffffffffff1673ffffffffffffffffffffffffffffffffffffffff16815260200190815260200160002060008473ffffffffffffffffffffffffffffffffffffffff1673ffffffffffffffffffffffffffffffffffffffff16815260200190815260200160002060006101000a81548160ff0219169083151502179055508173ffffffffffffffffffffffffffffffffffffffff168373ffffffffffffffffffffffffffffffffffffffff167f17307eab39ab6107e8899845ad3d59bd9653f200f220920489ca2b5937696c318360405161226c9190612f8a565b60405180910390a3505050565b60008373ffffffffffffffffffffffffffffffffffffffff163b1115612423578273ffffffffffffffffffffffffffffffffffffffff1663150b7a02868685856040518563ffffffff1660e01b81526004016122d89493929190614063565b6020604051808303816000875af192505050801561231457506040513d601f19601f8201168201806040525081019061231191906140c4565b60015b612398573d8060008114612344576040519150601f19603f3d011682016040523d82523d6000602084013e612349565b606091505b50600081510361239057836040517f64a0ae9200000000000000000000000000000000000000000000000000000000815260040161238791906130fb565b60405180910390fd5b805160208201fd5b63150b7a0260e01b7bffffffffffffffffffffffffffffffffffffffffffffffffffffffff1916817bffffffffffffffffffffffffffffffffffffffffffffffffffffffff19161461242157836040517f64a0ae9200000000000000000000000000000000000000000000000000000000815260040161241891906130fb565b60405180910390fd5b505b5050505050565b606060405180602001604052806000815250905090565b606061244c82611d27565b50600061245761242a565b9050600081511161247757604051806020016040528060008152506124a2565b80612481846129da565b604051602001612492929190613d53565b6040516020818303038152906040525b915050919050565b60006124b96000836000611e8d565b9050600073ffffffffffffffffffffffffffffffffffffffff168173ffffffffffffffffffffffffffffffffffffffff160361252c57816040517f7e2732890000000000000000000000000000000000000000000000000000000081526004016125239190613191565b60405180910390fd5b5050565b60007f01ffc9a7000000000000000000000000000000000000000000000000000000007bffffffffffffffffffffffffffffffffffffffffffffffffffffffff1916827bffffffffffffffffffffffffffffffffffffffffffffffffffffffff1916149050919050565b60006002600083815260200190815260200160002060009054906101000a900473ffffffffffffffffffffffffffffffffffffffff169050919050565b80806126105750600073ffffffffffffffffffffffffffffffffffffffff168273ffffffffffffffffffffffffffffffffffffffff1614155b1561274457600061262084611d27565b9050600073ffffffffffffffffffffffffffffffffffffffff168373ffffffffffffffffffffffffffffffffffffffff161415801561268b57508273ffffffffffffffffffffffffffffffffffffffff168173ffffffffffffffffffffffffffffffffffffffff1614155b801561269e575061269c8184611944565b155b156126e057826040517fa9fbf51f0000000000000000000000000000000000000000000000000000000081526004016126d791906130fb565b60405180910390fd5b811561274257838573ffffffffffffffffffffffffffffffffffffffff168273ffffffffffffffffffffffffffffffffffffffff167f8c5be1e5ebec7d5bd14f71427d1e84f3dd0314c0f7b2291e5b200ac8c7c3b92560405160405180910390a45b505b836004600085815260200190815260200160002060006101000a81548173ffffffffffffffffffffffffffffffffffffffff021916908373ffffffffffffffffffffffffffffffffffffffff16021790555050505050565b6000806127a88461259a565b9050600073ffffffffffffffffffffffffffffffffffffffff168373ffffffffffffffffffffffffffffffffffffffff16146127ea576127e9818486612aa8565b5b600073ffffffffffffffffffffffffffffffffffffffff168173ffffffffffffffffffffffffffffffffffffffff161461287b5761282c6000856000806125d7565b6001600360008373ffffffffffffffffffffffffffffffffffffffff1673ffffffffffffffffffffffffffffffffffffffff168152602001908152602001600020600082825403925050819055505b600073ffffffffffffffffffffffffffffffffffffffff168573ffffffffffffffffffffffffffffffffffffffff16146128fe576001600360008773ffffffffffffffffffffffffffffffffffffffff1673ffffffffffffffffffffffffffffffffffffffff168152602001908152602001600020600082825401925050819055505b846002600086815260200190815260200160002060006101000a81548173ffffffffffffffffffffffffffffffffffffffff021916908373ffffffffffffffffffffffffffffffffffffffff160217905550838573ffffffffffffffffffffffffffffffffffffffff168273ffffffffffffffffffffffffffffffffffffffff167fddf252ad1be2c89b69c2b068fc378daa952ba7f163c4a11628f55a4df523b3ef60405160405180910390a4809150509392505050565b6129c08383612b6c565b6129d56129cb611dec565b6000858585612279565b505050565b6060600060016129e984612c65565b01905060008167ffffffffffffffff811115612a0857612a07613236565b5b6040519080825280601f01601f191660200182016040528015612a3a5781602001600182028036833780820191505090505b509050600082602083010190505b600115612a9d578080600190039150507f3031323334353637383961626364656600000000000000000000000000000000600a86061a8153600a8581612a9157612a906140f1565b5b04945060008503612a48575b819350505050919050565b612ab3838383612db8565b612b6757600073ffffffffffffffffffffffffffffffffffffffff168373ffffffffffffffffffffffffffffffffffffffff1603612b2857806040517f7e273289000000000000000000000000000000000000000000000000000000008152600401612b1f9190613191565b60405180910390fd5b81816040517f177e802f000000000000000000000000000000000000000000000000000000008152600401612b5e929190614120565b60405180910390fd5b505050565b600073ffffffffffffffffffffffffffffffffffffffff168273ffffffffffffffffffffffffffffffffffffffff1603612bde5760006040517f64a0ae92000000000000000000000000000000000000000000000000000000008152600401612bd591906130fb565b60405180910390fd5b6000612bec83836000611e8d565b9050600073ffffffffffffffffffffffffffffffffffffffff168173ffffffffffffffffffffffffffffffffffffffff1614612c605760006040517f73c6ac6e000000000000000000000000000000000000000000000000000000008152600401612c5791906130fb565b60405180910390fd5b505050565b600080600090507a184f03e93ff9f4daa797ed6e38ed64bf6a1f0100000000000000008310612cc3577a184f03e93ff9f4daa797ed6e38ed64bf6a1f0100000000000000008381612cb957612cb86140f1565b5b0492506040810190505b6d04ee2d6d415b85acef81000000008310612d00576d04ee2d6d415b85acef81000000008381612cf657612cf56140f1565b5b0492506020810190505b662386f26fc100008310612d2f57662386f26fc100008381612d2557612d246140f1565b5b0492506010810190505b6305f5e1008310612d58576305f5e1008381612d4e57612d4d6140f1565b5b0492506008810190505b6127108310612d7d576127108381612d7357612d726140f1565b5b0492506004810190505b60648310612da05760648381612d9657612d956140f1565b5b0492506002810190505b600a8310612daf576001810190505b80915050919050565b60008073ffffffffffffffffffffffffffffffffffffffff168373ffffffffffffffffffffffffffffffffffffffff1614158015612e7057508273ffffffffffffffffffffffffffffffffffffffff168473ffffffffffffffffffffffffffffffffffffffff161480612e315750612e308484611944565b5b80612e6f57508273ffffffffffffffffffffffffffffffffffffffff16612e5783611daf565b73ffffffffffffffffffffffffffffffffffffffff16145b5b90509392505050565b508054612e859061380b565b6000825580601f10612e975750612eb6565b601f016020900490600052602060002090810190612eb59190612eb9565b5b50565b5b80821115612ed2576000816000905550600101612eba565b5090565b6000604051905090565b600080fd5b600080fd5b60007fffffffff0000000000000000000000000000000000000000000000000000000082169050919050565b612f1f81612eea565b8114612f2a57600080fd5b50565b600081359050612f3c81612f16565b92915050565b600060208284031215612f5857612f57612ee0565b5b6000612f6684828501612f2d565b91505092915050565b60008115159050919050565b612f8481612f6f565b82525050565b6000602082019050612f9f6000830184612f7b565b92915050565b600081519050919050565b600082825260208201905092915050565b60005b83811015612fdf578082015181840152602081019050612fc4565b60008484015250505050565b6000601f19601f8301169050919050565b600061300782612fa5565b6130118185612fb0565b9350613021818560208601612fc1565b61302a81612feb565b840191505092915050565b6000602082019050818103600083015261304f8184612ffc565b905092915050565b6000819050919050565b61306a81613057565b811461307557600080fd5b50565b60008135905061308781613061565b92915050565b6000602082840312156130a3576130a2612ee0565b5b60006130b184828501613078565b91505092915050565b600073ffffffffffffffffffffffffffffffffffffffff82169050919050565b60006130e5826130ba565b9050919050565b6130f5816130da565b82525050565b600060208201905061311060008301846130ec565b92915050565b61311f816130da565b811461312a57600080fd5b50565b60008135905061313c81613116565b92915050565b6000806040838503121561315957613158612ee0565b5b60006131678582860161312d565b925050602061317885828601613078565b9150509250929050565b61318b81613057565b82525050565b60006020820190506131a66000830184613182565b92915050565b6000602082840312156131c2576131c1612ee0565b5b60006131d08482850161312d565b91505092915050565b6000806000606084860312156131f2576131f1612ee0565b5b60006132008682870161312d565b93505060206132118682870161312d565b925050604061322286828701613078565b9150509250925092565b600080fd5b600080fd5b7f4e487b7100000000000000000000000000000000000000000000000000000000600052604160045260246000fd5b61326e82612feb565b810181811067ffffffffffffffff8211171561328d5761328c613236565b5b80604052505050565b60006132a0612ed6565b90506132ac8282613265565b919050565b600067ffffffffffffffff8211156132cc576132cb613236565b5b6132d582612feb565b9050602081019050919050565b82818337600083830152505050565b60006133046132ff846132b1565b613296565b9050828152602081018484840111156133205761331f613231565b5b61332b8482856132e2565b509392505050565b600082601f8301126133485761334761322c565b5b81356133588482602086016132f1565b91505092915050565b6000806000806080858703121561337b5761337a612ee0565b5b60006133898782880161312d565b945050602085013567ffffffffffffffff8111156133aa576133a9612ee5565b5b6133b687828801613333565b935050604085013567ffffffffffffffff8111156133d7576133d6612ee5565b5b6133e387828801613333565b925050606085013567ffffffffffffffff81111561340457613403612ee5565b5b61341087828801613333565b91505092959194509250565b61342581612f6f565b811461343057600080fd5b50565b6000813590506134428161341c565b92915050565b6000806040838503121561345f5761345e612ee0565b5b600061346d8582860161312d565b925050602061347e85828601613433565b9150509250929050565b6000806040838503121561349f5761349e612ee0565b5b60006134ad85828601613078565b92505060206134be85828601613078565b9150509250929050565b600067ffffffffffffffff8211156134e3576134e2613236565b5b6134ec82612feb565b9050602081019050919050565b600061350c613507846134c8565b613296565b90508281526020810184848401111561352857613527613231565b5b6135338482856132e2565b509392505050565b600082601f8301126135505761354f61322c565b5b81356135608482602086016134f9565b91505092915050565b6000806000806080858703121561358357613582612ee0565b5b60006135918782880161312d565b94505060206135a28782880161312d565b93505060406135b387828801613078565b925050606085013567ffffffffffffffff8111156135d4576135d3612ee5565b5b6135e08782880161353b565b91505092959194509250565b60008060006060848603121561360557613604612ee0565b5b600061361386828701613078565b935050602061362486828701613078565b925050604084013567ffffffffffffffff81111561364557613644612ee5565b5b61365186828701613333565b9150509250925092565b6000806040838503121561367257613671612ee0565b5b60006136808582860161312d565b92505060206136918582860161312d565b9150509250929050565b600060a0820190506136b06000830188613182565b81810360208301526136c28187612ffc565b905081810360408301526136d68186612ffc565b90506136e56060830185613182565b6136f26080830184613182565b9695505050505050565b600081519050919050565b600082825260208201905092915050565b6000819050602082019050919050565b613731816130da565b82525050565b60006137438383613728565b60208301905092915050565b6000602082019050919050565b6000613767826136fc565b6137718185613707565b935061377c83613718565b8060005b838110156137ad5781516137948882613737565b975061379f8361374f565b925050600181019050613780565b5085935050505092915050565b600060208201905081810360008301526137d4818461375c565b905092915050565b7f4e487b7100000000000000000000000000000000000000000000000000000000600052602260045260246000fd5b6000600282049050600182168061382357607f821691505b602082108103613836576138356137dc565b5b50919050565b600060608201905061385160008301866130ec565b61385e6020830185613182565b61386b60408301846130ec565b949350505050565b7f4d61782063617264732072656163686564000000000000000000000000000000600082015250565b60006138a9601183612fb0565b91506138b482613873565b602082019050919050565b600060208201905081810360008301526138d88161389c565b9050919050565b7f4e6f7420617574686f72697a656420746f206d696e7400000000000000000000600082015250565b6000613915601683612fb0565b9150613920826138df565b602082019050919050565b6000602082019050818103600083015261394481613908565b9050919050565b7f4e487b7100000000000000000000000000000000000000000000000000000000600052601160045260246000fd5b600061398582613057565b915061399083613057565b92508282019050808211156139a8576139a761394b565b5b92915050565b7f416374696f6e206f6e20636f6f6c646f776e0000000000000000000000000000600082015250565b60006139e4601283612fb0565b91506139ef826139ae565b602082019050919050565b60006020820190508181036000830152613a13816139d7565b9050919050565b60008190508160005260206000209050919050565b60006020601f8301049050919050565b600082821b905092915050565b600060088302613a7c7fffffffffffffffffffffffffffffffffffffffffffffffffffffffffffffffff82613a3f565b613a868683613a3f565b95508019841693508086168417925050509392505050565b6000819050919050565b6000613ac3613abe613ab984613057565b613a9e565b613057565b9050919050565b6000819050919050565b613add83613aa8565b613af1613ae982613aca565b848454613a4c565b825550505050565b600090565b613b06613af9565b613b11818484613ad4565b505050565b5b81811015613b3557613b2a600082613afe565b600181019050613b17565b5050565b601f821115613b7a57613b4b81613a1a565b613b5484613a2f565b81016020851015613b63578190505b613b77613b6f85613a2f565b830182613b16565b50505b505050565b600082821c905092915050565b6000613b9d60001984600802613b7f565b1980831691505092915050565b6000613bb68383613b8c565b9150826002028217905092915050565b613bcf82612fa5565b67ffffffffffffffff811115613be857613be7613236565b5b613bf2825461380b565b613bfd828285613b39565b600060209050601f831160018114613c305760008415613c1e578287015190505b613c288582613baa565b865550613c90565b601f198416613c3e86613a1a565b60005b82811015613c6657848901518255600182019150602085019450602081019050613c41565b86831015613c835784890151613c7f601f891682613b8c565b8355505b6001600288020188555050505b505050505050565b6000613ca382613057565b91507fffffffffffffffffffffffffffffffffffffffffffffffffffffffffffffffff8203613cd557613cd461394b565b5b600182019050919050565b60006040820190508181036000830152613cfa8185612ffc565b90508181036020830152613d0e8184612ffc565b90509392505050565b600081905092915050565b6000613d2d82612fa5565b613d378185613d17565b9350613d47818560208601612fc1565b80840191505092915050565b6000613d5f8285613d22565b9150613d6b8284613d22565b91508190509392505050565b7f436172642069732074656d706f726172696c79206c6f636b6564000000000000600082015250565b6000613dad601a83612fb0565b9150613db882613d77565b602082019050919050565b60006020820190508181036000830152613ddc81613da0565b9050919050565b7f4e6f74206f776e6572206f662063617264203100000000000000000000000000600082015250565b6000613e19601383612fb0565b9150613e2482613de3565b602082019050919050565b60006020820190508181036000830152613e4881613e0c565b9050919050565b7f4e6f74206f776e6572206f662063617264203200000000000000000000000000600082015250565b6000613e85601383612fb0565b9150613e9082613e4f565b602082019050919050565b60006020820190508181036000830152613eb481613e78565b9050919050565b7f43616e6e6f7420667573652073616d6520636172640000000000000000000000600082015250565b6000613ef1601583612fb0565b9150613efc82613ebb565b602082019050919050565b60006020820190508181036000830152613f2081613ee4565b9050919050565b7f5261726974696573206d757374206d6174636800000000000000000000000000600082015250565b6000613f5d601383612fb0565b9150613f6882613f27565b602082019050919050565b60006020820190508181036000830152613f8c81613f50565b9050919050565b7f2d00000000000000000000000000000000000000000000000000000000000000600082015250565b6000613fc9600183613d17565b9150613fd482613f93565b600182019050919050565b6000613feb8285613d22565b9150613ff682613fbc565b91506140028284613d22565b91508190509392505050565b600081519050919050565b600082825260208201905092915050565b60006140358261400e565b61403f8185614019565b935061404f818560208601612fc1565b61405881612feb565b840191505092915050565b600060808201905061407860008301876130ec565b61408560208301866130ec565b6140926040830185613182565b81810360608301526140a4818461402a565b905095945050505050565b6000815190506140be81612f16565b92915050565b6000602082840312156140da576140d9612ee0565b5b60006140e8848285016140af565b91505092915050565b7f4e487b7100000000000000000000000000000000000000000000000000000000600052601260045260246000fd5b600060408201905061413560008301856130ec565b6141426020830184613182565b939250505056fea2646970667358221220a593b7b79dd9bbeb83436cf4b05df365abdf06a58f3d1554e8d9ae142c0cd5a364736f6c63430008140033",
  "linkReferences": {},
  "deployedLinkReferences": {}
}