{
  "_format": "hh-sol-artifact-1",
  "contractName": "Booster",
  "sourceName": "contracts/Booster.sol",
  "abi": [
    {
      "inputs": [
        {
          "internalType": "address",
          "name": "_arenaCardsAddress",
          "type": "address"
        }
      ],
      "stateMutability": "nonpayable",
      "type": "constructor"
    },
    {
      "anonymous": false,
      "inputs": [
        {
          "indexed": true,
          "internalType": "address",
          "name": "user",
          "type": "address"
        },
        {
          "indexed": false,
          "internalType": "uint256",
          "name": "timestamp",
          "type": "uint256"
        }
      ],
      "name": "BoosterOpened",
      "type": "event"
    },
    {
      "anonymous": false,
      "inputs": [
        {
          "indexed": true,
          "internalType": "address",
          "name": "user",
          "type": "address"
        },
        {
          "indexed": false,
          "internalType": "uint256",
          "name": "tokenId",
          "type": "uint256"
        },
        {
          "indexed": false,
          "internalType": "string",
          "name": "name",
          "type": "string"
        },
        {
          "indexed": false,
          "internalType": "string",
          "name": "rarity",
          "type": "string"
        }
      ],
      "name": "CardMinted",
      "type": "event"
    },
    {
      "inputs": [],
      "name": "BOOSTER_COOLDOWN",
      "outputs": [
        {
          "internalType": "uint256",
          "name": "",
          "type": "uint256"
        }
      ],
      "stateMutability": "view",
      "type": "function"
    },
    {
      "inputs": [],
      "name": "CARDS_PER_BOOSTER",
      "outputs": [
        {
          "internalType": "uint256",
          "name": "",
          "type": "uint256"
        }
      ],
      "stateMutability": "view",
      "type": "function"
    },
    {
      "inputs": [],
      "name": "arenaCards",
      "outputs": [
        {
          "internalType": "contract ArenaCards",
          "name": "",
          "type": "address"
        }
      ],
      "stateMutability": "view",
      "type": "function"
    },
    {
      "inputs": [
        {
          "internalType": "address",
          "name": "user",
          "type": "address"
        }
      ],
      "name": "canOpenBooster",
      "outputs": [
        {
          "internalType": "bool",
          "name": "",
          "type": "bool"
        }
      ],
      "stateMutability": "view",
      "type": "function"
    },
    {
      "inputs": [
        {
          "internalType": "uint256",
          "name": "",
          "type": "uint256"
        }
      ],
      "name": "cardTemplates",
      "outputs": [
        {
          "internalType": "string",
          "name": "name",
          "type": "string"
        },
        {
          "internalType": "string",
          "name": "rarity",
          "type": "string"
        },
        {
          "internalType": "string",
          "name": "imageURI",
          "type": "string"
        }
      ],
      "stateMutability": "view",
      "type": "function"
    },
    {
      "inputs": [
        {
          "internalType": "uint256",
          "name": "index",
          "type": "uint256"
        }
      ],
      "name": "getTemplate",
      "outputs": [
        {
          "internalType": "string",
          "name": "name",
          "type": "string"
        },
        {
          "internalType": "string",
          "name": "rarity",
          "type": "string"
        },
        {
          "internalType": "string",
          "name": "imageURI",
          "type": "string"
        }
      ],
      "stateMutability": "view",
      "type": "function"
    },
    {
      "inputs": [],
      "name": "getTemplatesCount",
      "outputs": [
        {
          "internalType": "uint256",
          "name": "",
          "type": "uint256"
        }
      ],
      "stateMutability": "view",
      "type": "function"
    },
    {
      "inputs": [
        {
          "internalType": "address",
          "name": "user",
          "type": "address"
        }
      ],
      "name": "getTimeUntilNextBooster",
      "outputs": [
        {
          "internalType": "uint256",
          "name": "",
          "type": "uint256"
        }
      ],
      "stateMutability": "view",
      "type": "function"
    },
    {
      "inputs": [
        {
          "internalType": "address",
          "name": "",
          "type": "address"
        }
      ],
      "name": "lastBoosterOpen",
      "outputs": [
        {
          "internalType": "uint256",
          "name": "",
          "type": "uint256"
        }
      ],
      "stateMutability": "view",
      "type": "function"
    },
    {
      "inputs": [],
      "name": "openBooster",
      "outputs": [],
      "stateMutability": "nonpayable",
      "type": "function"
    }
  ],
  "bytecode": "0x60806040523480156200001157600080fd5b506040516200335538038062003355833981810160405281019062000037919062000dde565b806000806101000a81548173ffffffffffffffffffffffffffffffffffffffff021916908373ffffffffffffffffffffffffffffffffffffffff160217905550620000876200008e60201b60201c565b5062001171565b600260405180606001604052806040518060400160405280600b81526020017f447261676f6e20446f726500000000000000000000000000000000000000000081525081526020016040518060400160405280600a81526020017f6c6567656e64616972650000000000000000000000000000000000000000000081525081526020016040518060800160405280604281526020016200331360429139815250908060018154018082558091505060019003906000526020600020906003020160009091909190915060008201518160000190816200016e91906200108a565b5060208201518160010190816200018691906200108a565b5060408201518160020190816200019e91906200108a565b505050600260405180606001604052806040518060400160405280601081526020017f50686f656e697820496d6d6f7274656c0000000000000000000000000000000081525081526020016040518060400160405280600a81526020017f6c6567656e64616972650000000000000000000000000000000000000000000081525081526020016040518060600160405280603e8152602001620032d5603e9139815250908060018154018082558091505060019003906000526020600020906003020160009091909190915060008201518160000190816200028191906200108a565b5060208201518160010190816200029991906200108a565b506040820151816002019081620002b191906200108a565b505050600260405180606001604052806040518060400160405280600e81526020017f43686576616c696572204e6f697200000000000000000000000000000000000081525081526020016040518060400160405280600681526020017f657069717565000000000000000000000000000000000000000000000000000081525081526020016040518060800160405280604581526020016200315360459139815250908060018154018082558091505060019003906000526020600020906003020160009091909190915060008201518160000190816200039491906200108a565b506020820151816001019081620003ac91906200108a565b506040820151816002019081620003c491906200108a565b505050600260405180606001604052806040518060400160405280600f81526020017f4d6167652064657320476c61636573000000000000000000000000000000000081525081526020016040518060400160405280600681526020017f65706971756500000000000000000000000000000000000000000000000000008152508152602001604051806080016040528060428152602001620032516042913981525090806001815401808255809150506001900390600052602060002090600302016000909190919091506000820151816000019081620004a791906200108a565b506020820151816001019081620004bf91906200108a565b506040820151816002019081620004d791906200108a565b505050600260405180606001604052806040518060400160405280601081526020017f417373617373696e2046616e746f6d650000000000000000000000000000000081525081526020016040518060400160405280600681526020017f657069717565000000000000000000000000000000000000000000000000000081525081526020016040518060600160405280603f8152602001620031d6603f913981525090806001815401808255809150506001900390600052602060002090600302016000909190919091506000820151816000019081620005ba91906200108a565b506020820151816001019081620005d291906200108a565b506040820151816002019081620005ea91906200108a565b505050600260405180606001604052806040518060400160405280600b81526020017f41726368657220456c666500000000000000000000000000000000000000000081525081526020016040518060400160405280600481526020017f72617265000000000000000000000000000000000000000000000000000000008152508152602001604051806080016040528060428152602001620032936042913981525090806001815401808255809150506001900390600052602060002090600302016000909190919091506000820151816000019081620006cd91906200108a565b506020820151816001019081620006e591906200108a565b506040820151816002019081620006fd91906200108a565b505050600260405180606001604052806040518060400160405280600d81526020017f50616c6164696e2053616372650000000000000000000000000000000000000081525081526020016040518060400160405280600481526020017f726172650000000000000000000000000000000000000000000000000000000081525081526020016040518060600160405280603e8152602001620030d5603e913981525090806001815401808255809150506001900390600052602060002090600302016000909190919091506000820151816000019081620007e091906200108a565b506020820151816001019081620007f891906200108a565b5060408201518160020190816200081091906200108a565b505050600260405180606001604052806040518060400160405280600d81526020017f44727569646520416e6369656e0000000000000000000000000000000000000081525081526020016040518060400160405280600481526020017f726172650000000000000000000000000000000000000000000000000000000081525081526020016040518060600160405280603d815260200162003098603d913981525090806001815401808255809150506001900390600052602060002090600302016000909190919091506000820151816000019081620008f391906200108a565b5060208201518160010190816200090b91906200108a565b5060408201518160020190816200092391906200108a565b505050600260405180606001604052806040518060400160405280600e81526020017f477565727269657220427261766500000000000000000000000000000000000081525081526020016040518060400160405280600781526020017f636f6d6d756e650000000000000000000000000000000000000000000000000081525081526020016040518060600160405280603f815260200162003059603f91398152509080600181540180825580915050600190039060005260206000209060030201600090919091909150600082015181600001908162000a0691906200108a565b50602082015181600101908162000a1e91906200108a565b50604082015181600201908162000a3691906200108a565b505050600260405180606001604052806040518060400160405280600c81526020017f476f62656c696e2052757365000000000000000000000000000000000000000081525081526020016040518060400160405280600781526020017f636f6d6d756e650000000000000000000000000000000000000000000000000081525081526020016040518060600160405280603e815260200162003198603e91398152509080600181540180825580915050600190039060005260206000209060030201600090919091909150600082015181600001908162000b1991906200108a565b50602082015181600101908162000b3191906200108a565b50604082015181600201908162000b4991906200108a565b505050600260405180606001604052806040518060400160405280601081526020017f537175656c6574746520536f6c6461740000000000000000000000000000000081525081526020016040518060400160405280600781526020017f636f6d6d756e6500000000000000000000000000000000000000000000000000815250815260200160405180606001604052806040815260200162003113604091398152509080600181540180825580915050600190039060005260206000209060030201600090919091909150600082015181600001908162000c2c91906200108a565b50602082015181600101908162000c4491906200108a565b50604082015181600201908162000c5c91906200108a565b505050600260405180606001604052806040518060400160405280600c81526020017f536c696d6520476c75616e74000000000000000000000000000000000000000081525081526020016040518060400160405280600781526020017f636f6d6d756e650000000000000000000000000000000000000000000000000081525081526020016040518060600160405280603c815260200162003215603c91398152509080600181540180825580915050600190039060005260206000209060030201600090919091909150600082015181600001908162000d3f91906200108a565b50602082015181600101908162000d5791906200108a565b50604082015181600201908162000d6f91906200108a565b505050565b600080fd5b600073ffffffffffffffffffffffffffffffffffffffff82169050919050565b600062000da68262000d79565b9050919050565b62000db88162000d99565b811462000dc457600080fd5b50565b60008151905062000dd88162000dad565b92915050565b60006020828403121562000df75762000df662000d74565b5b600062000e078482850162000dc7565b91505092915050565b600081519050919050565b7f4e487b7100000000000000000000000000000000000000000000000000000000600052604160045260246000fd5b7f4e487b7100000000000000000000000000000000000000000000000000000000600052602260045260246000fd5b6000600282049050600182168062000e9257607f821691505b60208210810362000ea85762000ea762000e4a565b5b50919050565b60008190508160005260206000209050919050565b60006020601f8301049050919050565b600082821b905092915050565b60006008830262000f127fffffffffffffffffffffffffffffffffffffffffffffffffffffffffffffffff8262000ed3565b62000f1e868362000ed3565b95508019841693508086168417925050509392505050565b6000819050919050565b6000819050919050565b600062000f6b62000f6562000f5f8462000f36565b62000f40565b62000f36565b9050919050565b6000819050919050565b62000f878362000f4a565b62000f9f62000f968262000f72565b84845462000ee0565b825550505050565b600090565b62000fb662000fa7565b62000fc381848462000f7c565b505050565b5b8181101562000feb5762000fdf60008262000fac565b60018101905062000fc9565b5050565b601f8211156200103a57620010048162000eae565b6200100f8462000ec3565b810160208510156200101f578190505b620010376200102e8562000ec3565b83018262000fc8565b50505b505050565b600082821c905092915050565b60006200105f600019846008026200103f565b1980831691505092915050565b60006200107a83836200104c565b9150826002028217905092915050565b620010958262000e10565b67ffffffffffffffff811115620010b157620010b062000e1b565b5b620010bd825462000e79565b620010ca82828562000fef565b600060209050601f831160018114620011025760008415620010ed578287015190505b620010f985826200106c565b86555062001169565b601f198416620011128662000eae565b60005b828110156200113c5784890151825560018201915060208501945060208101905062001115565b868310156200115c578489015162001158601f8916826200104c565b8355505b6001600288020188555050505b505050505050565b611ed880620011816000396000f3fe608060405234801561001057600080fd5b506004361061009e5760003560e01c806372930dbf1161006657806372930dbf14610171578063af215f981461017b578063b5900eea14610199578063e87b53f6146101b7578063ee442eb4146101e75761009e565b80631ae9f1ee146100a357806331543cf4146100d357806343ea5977146101055780634d418c39146101235780635dedca3f14610141575b600080fd5b6100bd60048036038101906100b89190611762565b610219565b6040516100ca91906117a8565b60405180910390f35b6100ed60048036038101906100e891906117ef565b6102e1565b6040516100fc939291906118ac565b60405180910390f35b61010d610531565b60405161011a9190611957565b60405180910390f35b61012b610555565b60405161013891906117a8565b60405180910390f35b61015b60048036038101906101569190611762565b61055b565b604051610168919061198d565b60405180910390f35b61017961075b565b005b610183610c04565b60405161019091906117a8565b60405180910390f35b6101a1610c09565b6040516101ae91906117a8565b60405180910390f35b6101d160048036038101906101cc9190611762565b610c16565b6040516101de91906117a8565b60405180910390f35b61020160048036038101906101fc91906117ef565b610c2e565b604051610210939291906118ac565b60405180910390f35b600080600160008473ffffffffffffffffffffffffffffffffffffffff1673ffffffffffffffffffffffffffffffffffffffff168152602001908152602001600020540361026a57600090506102dc565b6000610258600160008573ffffffffffffffffffffffffffffffffffffffff1673ffffffffffffffffffffffffffffffffffffffff168152602001908152602001600020546102b991906119d7565b90508042106102cc5760009150506102dc565b42816102d89190611a0b565b9150505b919050565b6060806060600280549050841061032d576040517f08c379a000000000000000000000000000000000000000000000000000000000815260040161032490611a8b565b60405180910390fd5b60006002858154811061034357610342611aab565b5b906000526020600020906003020160405180606001604052908160008201805461036c90611b09565b80601f016020809104026020016040519081016040528092919081815260200182805461039890611b09565b80156103e55780601f106103ba576101008083540402835291602001916103e5565b820191906000526020600020905b8154815290600101906020018083116103c857829003601f168201915b505050505081526020016001820180546103fe90611b09565b80601f016020809104026020016040519081016040528092919081815260200182805461042a90611b09565b80156104775780601f1061044c57610100808354040283529160200191610477565b820191906000526020600020905b81548152906001019060200180831161045a57829003601f168201915b5050505050815260200160028201805461049090611b09565b80601f01602080910402602001604051908101604052809291908181526020018280546104bc90611b09565b80156105095780601f106104de57610100808354040283529160200191610509565b820191906000526020600020905b8154815290600101906020018083116104ec57829003601f168201915b5050505050815250509050806000015181602001518260400151935093509350509193909250565b60008054906101000a900473ffffffffffffffffffffffffffffffffffffffff1681565b61025881565b600080600160008473ffffffffffffffffffffffffffffffffffffffff1673ffffffffffffffffffffffffffffffffffffffff16815260200190815260200160002054141580156105f75750610258600160008473ffffffffffffffffffffffffffffffffffffffff1673ffffffffffffffffffffffffffffffffffffffff168152602001908152602001600020546105f491906119d7565b42105b156106055760009050610756565b60008060009054906101000a900473ffffffffffffffffffffffffffffffffffffffff1673ffffffffffffffffffffffffffffffffffffffff166370a08231846040518263ffffffff1660e01b81526004016106619190611b49565b602060405180830381865afa15801561067e573d6000803e3d6000fd5b505050506040513d601f19601f820116820180604052508101906106a29190611b79565b905060008054906101000a900473ffffffffffffffffffffffffffffffffffffffff1673ffffffffffffffffffffffffffffffffffffffff16637e744a766040518163ffffffff1660e01b8152600401602060405180830381865afa15801561070f573d6000803e3d6000fd5b505050506040513d601f19601f820116820180604052508101906107339190611b79565b60028261074091906119d7565b1115610750576000915050610756565b60019150505b919050565b6000600160003373ffffffffffffffffffffffffffffffffffffffff1673ffffffffffffffffffffffffffffffffffffffff1681526020019081526020016000205414806107f55750610258600160003373ffffffffffffffffffffffffffffffffffffffff1673ffffffffffffffffffffffffffffffffffffffff168152602001908152602001600020546107f191906119d7565b4210155b610834576040517f08c379a000000000000000000000000000000000000000000000000000000000815260040161082b90611bf2565b60405180910390fd5b60008060009054906101000a900473ffffffffffffffffffffffffffffffffffffffff1673ffffffffffffffffffffffffffffffffffffffff166370a08231336040518263ffffffff1660e01b81526004016108909190611b49565b602060405180830381865afa1580156108ad573d6000803e3d6000fd5b505050506040513d601f19601f820116820180604052508101906108d19190611b79565b905060008054906101000a900473ffffffffffffffffffffffffffffffffffffffff1673ffffffffffffffffffffffffffffffffffffffff16637e744a766040518163ffffffff1660e01b8152600401602060405180830381865afa15801561093e573d6000803e3d6000fd5b505050506040513d601f19601f820116820180604052508101906109629190611b79565b60028261096f91906119d7565b11156109b0576040517f08c379a00000000000000000000000000000000000000000000000000000000081526004016109a790611c84565b60405180910390fd5b42600160003373ffffffffffffffffffffffffffffffffffffffff1673ffffffffffffffffffffffffffffffffffffffff168152602001908152602001600020819055503373ffffffffffffffffffffffffffffffffffffffff167f46aebaa8c0d85641b84ebe767545bc1ce29e0fb10ca5f889e4569d890d8eccb742604051610a3a91906117a8565b60405180910390a260005b6002811015610c00576000610a5982610e00565b905060008054906101000a900473ffffffffffffffffffffffffffffffffffffffff1673ffffffffffffffffffffffffffffffffffffffff166389a59662338360400151846000015185602001516040518563ffffffff1660e01b8152600401610ac69493929190611ca4565b600060405180830381600087803b158015610ae057600080fd5b505af1158015610af4573d6000803e3d6000fd5b505050503373ffffffffffffffffffffffffffffffffffffffff167fa27076ba8c7eab72cb8020b9db57d90f231a7f2fb6fb9c2181b711b1559f71c0600160008054906101000a900473ffffffffffffffffffffffffffffffffffffffff1673ffffffffffffffffffffffffffffffffffffffff1663d082e3816040518163ffffffff1660e01b8152600401602060405180830381865afa158015610b9d573d6000803e3d6000fd5b505050506040513d601f19601f82011682018060405250810190610bc19190611b79565b610bcb9190611a0b565b83600001518460200151604051610be493929190611cfe565b60405180910390a2508080610bf890611d43565b915050610a45565b5050565b600281565b6000600280549050905090565b60016020528060005260406000206000915090505481565b60028181548110610c3e57600080fd5b9060005260206000209060030201600091509050806000018054610c6190611b09565b80601f0160208091040260200160405190810160405280929190818152602001828054610c8d90611b09565b8015610cda5780601f10610caf57610100808354040283529160200191610cda565b820191906000526020600020905b815481529060010190602001808311610cbd57829003601f168201915b505050505090806001018054610cef90611b09565b80601f0160208091040260200160405190810160405280929190818152602001828054610d1b90611b09565b8015610d685780601f10610d3d57610100808354040283529160200191610d68565b820191906000526020600020905b815481529060010190602001808311610d4b57829003601f168201915b505050505090806002018054610d7d90611b09565b80601f0160208091040260200160405190810160405280929190818152602001828054610da990611b09565b8015610df65780601f10610dcb57610100808354040283529160200191610df6565b820191906000526020600020905b815481529060010190602001808311610dd957829003601f168201915b5050505050905083565b610e086116de565b60006064610e15846116a5565b610e1f9190611dba565b9050600a81101561103b5760006002610e43600186610e3e91906119d7565b6116a5565b610e4d9190611dba565b905060028181548110610e6357610e62611aab565b5b9060005260206000209060030201604051806060016040529081600082018054610e8c90611b09565b80601f0160208091040260200160405190810160405280929190818152602001828054610eb890611b09565b8015610f055780601f10610eda57610100808354040283529160200191610f05565b820191906000526020600020905b815481529060010190602001808311610ee857829003601f168201915b50505050508152602001600182018054610f1e90611b09565b80601f0160208091040260200160405190810160405280929190818152602001828054610f4a90611b09565b8015610f975780601f10610f6c57610100808354040283529160200191610f97565b820191906000526020600020905b815481529060010190602001808311610f7a57829003601f168201915b50505050508152602001600282018054610fb090611b09565b80601f0160208091040260200160405190810160405280929190818152602001828054610fdc90611b09565b80156110295780601f10610ffe57610100808354040283529160200191611029565b820191906000526020600020905b81548152906001019060200180831161100c57829003601f168201915b505050505081525050925050506116a0565b601e811015611261576000600361105d60028661105891906119d7565b6116a5565b6110679190611dba565b600261107391906119d7565b90506002818154811061108957611088611aab565b5b90600052602060002090600302016040518060600160405290816000820180546110b290611b09565b80601f01602080910402602001604051908101604052809291908181526020018280546110de90611b09565b801561112b5780601f106111005761010080835404028352916020019161112b565b820191906000526020600020905b81548152906001019060200180831161110e57829003601f168201915b5050505050815260200160018201805461114490611b09565b80601f016020809104026020016040519081016040528092919081815260200182805461117090611b09565b80156111bd5780601f10611192576101008083540402835291602001916111bd565b820191906000526020600020905b8154815290600101906020018083116111a057829003601f168201915b505050505081526020016002820180546111d690611b09565b80601f016020809104026020016040519081016040528092919081815260200182805461120290611b09565b801561124f5780601f106112245761010080835404028352916020019161124f565b820191906000526020600020905b81548152906001019060200180831161123257829003601f168201915b505050505081525050925050506116a0565b603c811015611487576000600361128360038661127e91906119d7565b6116a5565b61128d9190611dba565b600561129991906119d7565b9050600281815481106112af576112ae611aab565b5b90600052602060002090600302016040518060600160405290816000820180546112d890611b09565b80601f016020809104026020016040519081016040528092919081815260200182805461130490611b09565b80156113515780601f1061132657610100808354040283529160200191611351565b820191906000526020600020905b81548152906001019060200180831161133457829003601f168201915b5050505050815260200160018201805461136a90611b09565b80601f016020809104026020016040519081016040528092919081815260200182805461139690611b09565b80156113e35780601f106113b8576101008083540402835291602001916113e3565b820191906000526020600020905b8154815290600101906020018083116113c657829003601f168201915b505050505081526020016002820180546113fc90611b09565b80601f016020809104026020016040519081016040528092919081815260200182805461142890611b09565b80156114755780601f1061144a57610100808354040283529160200191611475565b820191906000526020600020905b81548152906001019060200180831161145857829003601f168201915b505050505081525050925050506116a0565b600060046114a060048661149b91906119d7565b6116a5565b6114aa9190611dba565b60086114b691906119d7565b9050600281815481106114cc576114cb611aab565b5b90600052602060002090600302016040518060600160405290816000820180546114f590611b09565b80601f016020809104026020016040519081016040528092919081815260200182805461152190611b09565b801561156e5780601f106115435761010080835404028352916020019161156e565b820191906000526020600020905b81548152906001019060200180831161155157829003601f168201915b5050505050815260200160018201805461158790611b09565b80601f01602080910402602001604051908101604052809291908181526020018280546115b390611b09565b80156116005780601f106115d557610100808354040283529160200191611600565b820191906000526020600020905b8154815290600101906020018083116115e357829003601f168201915b5050505050815260200160028201805461161990611b09565b80601f016020809104026020016040519081016040528092919081815260200182805461164590611b09565b80156116925780601f1061166757610100808354040283529160200191611692565b820191906000526020600020905b81548152906001019060200180831161167557829003601f168201915b505050505081525050925050505b919050565b6000424433846040516020016116be9493929190611e54565b6040516020818303038152906040528051906020012060001c9050919050565b60405180606001604052806060815260200160608152602001606081525090565b600080fd5b600073ffffffffffffffffffffffffffffffffffffffff82169050919050565b600061172f82611704565b9050919050565b61173f81611724565b811461174a57600080fd5b50565b60008135905061175c81611736565b92915050565b600060208284031215611778576117776116ff565b5b60006117868482850161174d565b91505092915050565b6000819050919050565b6117a28161178f565b82525050565b60006020820190506117bd6000830184611799565b92915050565b6117cc8161178f565b81146117d757600080fd5b50565b6000813590506117e9816117c3565b92915050565b600060208284031215611805576118046116ff565b5b6000611813848285016117da565b91505092915050565b600081519050919050565b600082825260208201905092915050565b60005b8381101561185657808201518184015260208101905061183b565b60008484015250505050565b6000601f19601f8301169050919050565b600061187e8261181c565b6118888185611827565b9350611898818560208601611838565b6118a181611862565b840191505092915050565b600060608201905081810360008301526118c68186611873565b905081810360208301526118da8185611873565b905081810360408301526118ee8184611873565b9050949350505050565b6000819050919050565b600061191d61191861191384611704565b6118f8565b611704565b9050919050565b600061192f82611902565b9050919050565b600061194182611924565b9050919050565b61195181611936565b82525050565b600060208201905061196c6000830184611948565b92915050565b60008115159050919050565b61198781611972565b82525050565b60006020820190506119a2600083018461197e565b92915050565b7f4e487b7100000000000000000000000000000000000000000000000000000000600052601160045260246000fd5b60006119e28261178f565b91506119ed8361178f565b9250828201905080821115611a0557611a046119a8565b5b92915050565b6000611a168261178f565b9150611a218361178f565b9250828203905081811115611a3957611a386119a8565b5b92915050565b7f496e646578206f7574206f6620626f756e647300000000000000000000000000600082015250565b6000611a75601383611827565b9150611a8082611a3f565b602082019050919050565b60006020820190508181036000830152611aa481611a68565b9050919050565b7f4e487b7100000000000000000000000000000000000000000000000000000000600052603260045260246000fd5b7f4e487b7100000000000000000000000000000000000000000000000000000000600052602260045260246000fd5b60006002820490506001821680611b2157607f821691505b602082108103611b3457611b33611ada565b5b50919050565b611b4381611724565b82525050565b6000602082019050611b5e6000830184611b3a565b92915050565b600081519050611b73816117c3565b92915050565b600060208284031215611b8f57611b8e6116ff565b5b6000611b9d84828501611b64565b91505092915050565b7f426f6f7374657220636f6f6c646f776e20616374697665000000000000000000600082015250565b6000611bdc601783611827565b9150611be782611ba6565b602082019050919050565b60006020820190508181036000830152611c0b81611bcf565b9050919050565b7f4e6f7420656e6f75676820737061636520666f7220626f6f737465722063617260008201527f6473000000000000000000000000000000000000000000000000000000000000602082015250565b6000611c6e602283611827565b9150611c7982611c12565b604082019050919050565b60006020820190508181036000830152611c9d81611c61565b9050919050565b6000608082019050611cb96000830187611b3a565b8181036020830152611ccb8186611873565b90508181036040830152611cdf8185611873565b90508181036060830152611cf38184611873565b905095945050505050565b6000606082019050611d136000830186611799565b8181036020830152611d258185611873565b90508181036040830152611d398184611873565b9050949350505050565b6000611d4e8261178f565b91507fffffffffffffffffffffffffffffffffffffffffffffffffffffffffffffffff8203611d8057611d7f6119a8565b5b600182019050919050565b7f4e487b7100000000000000000000000000000000000000000000000000000000600052601260045260246000fd5b6000611dc58261178f565b9150611dd08361178f565b925082611de057611ddf611d8b565b5b828206905092915050565b6000819050919050565b611e06611e018261178f565b611deb565b82525050565b60008160601b9050919050565b6000611e2482611e0c565b9050919050565b6000611e3682611e19565b9050919050565b611e4e611e4982611724565b611e2b565b82525050565b6000611e608287611df5565b602082019150611e708286611df5565b602082019150611e808285611e3d565b601482019150611e908284611df5565b6020820191508190509594505050505056fea26469706673582212207e92b17410f3d581b6876d55bd1ec4c95517d21d48b786c00e8dad375a96154464736f6c6343000814003368747470733a2f2f7669612e706c616365686f6c6465722e636f6d2f333030783430302f3830383038302f4646464646463f746578743d477565727269657268747470733a2f2f7669612e706c616365686f6c6465722e636f6d2f333030783430302f3332434433322f3030303030303f746578743d44727569646568747470733a2f2f7669612e706c616365686f6c6465722e636f6d2f333030783430302f3030434544312f3030303030303f746578743d50616c6164696e68747470733a2f2f7669612e706c616365686f6c6465722e636f6d2f333030783430302f3639363936392f4646464646463f746578743d537175656c6574746568747470733a2f2f7669612e706c616365686f6c6465722e636f6d2f333030783430302f3830303038302f4646464646463f746578743d43686576616c6965722b4e6f697268747470733a2f2f7669612e706c616365686f6c6465722e636f6d2f333030783430302f4139413941392f3030303030303f746578743d476f62656c696e68747470733a2f2f7669612e706c616365686f6c6465722e636f6d2f333030783430302f3933373044422f4646464646463f746578743d417373617373696e68747470733a2f2f7669612e706c616365686f6c6465722e636f6d2f333030783430302f3930454539302f3030303030303f746578743d536c696d6568747470733a2f2f7669612e706c616365686f6c6465722e636f6d2f333030783430302f3431363945312f4646464646463f746578743d4d6167652b476c6163657368747470733a2f2f7669612e706c616365686f6c6465722e636f6d2f333030783430302f3145393046462f4646464646463f746578743d4172636865722b456c666568747470733a2f2f7669612e706c616365686f6c6465722e636f6d2f333030783430302f4646343530302f4646464646463f746578743d50686f656e697868747470733a2f2f7669612e706c616365686f6c6465722e636f6d2f333030783430302f4646443730302f3030303030303f746578743d447261676f6e2b446f7265",
  "linkReferences": {},
  "deployedLinkReferences": {}
}