{
  "_format": "hh-sol-artifact-1",
  "contractName": "CardFusion",
  "sourceName": "contracts/CardFusion.sol",
  "abi": [
    {
      "inputs": [
        {
          "internalType": "address",
          "name": "arenaAddress",
          "type": "address"
        }
      ],
      "stateMutability": "nonpayable",
      "type": "constructor"
    },
    {
      "anonymous": false,
      "inputs": [
        {
          "indexed": true,
          "internalType": "address",
          "name": "player",
          "type": "address"
        },
        {
          "indexed": false,
          "internalType": "uint256",
          "name": "tokenId1",
          "type": "uint256"
        },
        {
          "indexed": false,
          "internalType": "uint256",
          "name": "tokenId2",
          "type": "uint256"
        },
        {
          "indexed": false,
          "internalType": "uint256",
          "name": "newTokenId",
          "type": "uint256"
        },
        {
          "indexed": false,
          "internalType": "uint256",
          "name": "newLevel",
          "type": "uint256"
        }
      ],
      "name": "CardsFused",
      "type": "event"
    },
    {
      "inputs": [],
      "name": "COOLDOWN",
      "outputs": [
        {
          "internalType": "uint256",
          "name": "",
          "type": "uint256"
        }
      ],
      "stateMutability": "view",
      "type": "function"
    },
    {
      "inputs": [],
      "name": "arena",
      "outputs": [
        {
          "internalType": "contract ArenaCards",
          "name": "",
          "type": "address"
        }
      ],
      "stateMutability": "view",
      "type": "function"
    },
    {
      "inputs": [
        {
          "internalType": "uint256",
          "name": "id1",
          "type": "uint256"
        },
        {
          "internalType": "uint256",
          "name": "id2",
          "type": "uint256"
        }
      ],
      "name": "canFuseCards",
      "outputs": [
        {
          "internalType": "bool",
          "name": "canFuse",
          "type": "bool"
        },
        {
          "internalType": "string",
          "name": "reason",
          "type": "string"
        }
      ],
      "stateMutability": "view",
      "type": "function"
    },
    {
      "inputs": [
        {
          "internalType": "uint256",
          "name": "id1",
          "type": "uint256"
        },
        {
          "internalType": "uint256",
          "name": "id2",
          "type": "uint256"
        }
      ],
      "name": "fuseCards",
      "outputs": [
        {
          "internalType": "uint256",
          "name": "",
          "type": "uint256"
        }
      ],
      "stateMutability": "nonpayable",
      "type": "function"
    },
    {
      "inputs": [
        {
          "internalType": "address",
          "name": "user",
          "type": "address"
        }
      ],
      "name": "getTimeUntilNextFusion",
      "outputs": [
        {
          "internalType": "uint256",
          "name": "",
          "type": "uint256"
        }
      ],
      "stateMutability": "view",
      "type": "function"
    },
    {
      "inputs": [
        {
          "internalType": "address",
          "name": "",
          "type": "address"
        }
      ],
      "name": "lastFusion",
      "outputs": [
        {
          "internalType": "uint256",
          "name": "",
          "type": "uint256"
        }
      ],
      "stateMutability": "view",
      "type": "function"
    }
  ],
  "bytecode": "0x608060405234801561001057600080fd5b50604051610fa2380380610fa283398101604081905261002f91610054565b600080546001600160a01b0319166001600160a01b0392909216919091179055610084565b60006020828403121561006657600080fd5b81516001600160a01b038116811461007d57600080fd5b9392505050565b610f0f806100936000396000f3fe608060405234801561001057600080fd5b50600436106100625760003560e01c80634fb6b38e14610067578063795dda2c1461008d5780638a1e1255146100ad578063a2724a4d146100ce578063cd133b01146100d7578063fd3705f9146100ea575b600080fd5b61007a610075366004610c5b565b610115565b6040519081526020015b60405180910390f35b61007a61009b366004610c5b565b60016020526000908152604090205481565b6100c06100bb366004610c78565b610185565b604051610084929190610cea565b61007a61012c81565b61007a6100e5366004610c78565b610622565b6000546100fd906001600160a01b031681565b6040516001600160a01b039091168152602001610084565b6001600160a01b038116600090815260016020526040812054810361013c57506000919050565b6001600160a01b0382166000908152600160205260408120546101629061012c90610d23565b90508042106101745750600092915050565b61017e4282610d36565b9392505050565b336000908152600160205260408120546060906101a59061012c90610d23565b4210156101e3575050604080518082019091526016815275467573696f6e20636f6f6c646f776e2061637469766560501b602082015260009061061b565b82840361022057505060408051808201909152601581527410d85b9b9bdd08199d5cd9481cd85b594818d85c99605a1b602082015260009061061b565b600080546040516331a9108f60e11b8152600481018790526001600160a01b0390911690636352211e90602401602060405180830381865afa15801561026a573d6000803e3d6000fd5b505050506040513d601f19601f8201168201806040525081019061028e9190610d49565b600080546040516331a9108f60e11b81526004810188905292935090916001600160a01b0390911690636352211e90602401602060405180830381865afa1580156102dd573d6000803e3d6000fd5b505050506040513d601f19601f820116820180604052508101906103019190610d49565b90506001600160a01b038216331461034c576000604051806040016040528060138152602001724e6f74206f776e6572206f662063617264203160681b81525093509350505061061b565b6001600160a01b0381163314610395576000604051806040016040528060138152602001722737ba1037bbb732b91037b31031b0b932101960691b81525093509350505061061b565b60008054604051636a24447f60e11b815260048101899052829182916001600160a01b039091169063d44888fe90602401600060405180830381865afa1580156103e3573d6000803e3d6000fd5b505050506040513d6000823e601f3d908101601f1916820160405261040b9190810190610e04565b5060008054604051636a24447f60e11b8152600481018e905294975092955090935091829182916001600160a01b039091169063d44888fe90602401600060405180830381865afa158015610464573d6000803e3d6000fd5b505050506040513d6000823e601f3d908101601f1916820160405261048c9190810190610e04565b5092509250925082805190602001208680519060200120146104ed576000604051806040016040528060198152602001784361726473206d75737420686176652073616d65206e616d6560381b81525099509950505050505050505061061b565b818051906020012085805190602001201461054b5760006040518060400160405280601b81526020017f4361726473206d75737420686176652073616d6520726172697479000000000081525099509950505050505050505061061b565b80841461059b5760006040518060400160405280601a81526020017f4361726473206d75737420686176652073616d65206c6576656c00000000000081525099509950505050505050505061061b565b600584106105e4576000604051806040016040528060158152602001744d6178206c6576656c20726561636865642028352960581b81525099509950505050505050505061061b565b60016040518060400160405280600f81526020016e467573696f6e20706f737369626c6560881b8152509950995050505050505050505b9250929050565b3360009081526001602052604081205461063f9061012c90610d23565b42101561068c5760405162461bcd60e51b8152602060048201526016602482015275467573696f6e20636f6f6c646f776e2061637469766560501b60448201526064015b60405180910390fd5b8183036106d35760405162461bcd60e51b815260206004820152601560248201527410d85b9b9bdd08199d5cd9481cd85b594818d85c99605a1b6044820152606401610683565b6000546040516331a9108f60e11b81526004810185905233916001600160a01b031690636352211e90602401602060405180830381865afa15801561071c573d6000803e3d6000fd5b505050506040513d601f19601f820116820180604052508101906107409190610d49565b6001600160a01b03161461078c5760405162461bcd60e51b81526020600482015260136024820152724e6f74206f776e6572206f662063617264203160681b6044820152606401610683565b6000546040516331a9108f60e11b81526004810184905233916001600160a01b031690636352211e90602401602060405180830381865afa1580156107d5573d6000803e3d6000fd5b505050506040513d601f19601f820116820180604052508101906107f99190610d49565b6001600160a01b0316146108455760405162461bcd60e51b81526020600482015260136024820152722737ba1037bbb732b91037b31031b0b932101960691b6044820152606401610683565b60008054604051636a24447f60e11b815260048101869052829182916001600160a01b039091169063d44888fe90602401600060405180830381865afa158015610893573d6000803e3d6000fd5b505050506040513d6000823e601f3d908101601f191682016040526108bb9190810190610e04565b5060008054604051636a24447f60e11b8152600481018b905294975092955090935091829182916001600160a01b039091169063d44888fe90602401600060405180830381865afa158015610914573d6000803e3d6000fd5b505050506040513d6000823e601f3d908101601f1916820160405261093c9190810190610e04565b50925092509250828051906020012086805190602001201461099c5760405162461bcd60e51b81526020600482015260196024820152784361726473206d75737420686176652073616d65206e616d6560381b6044820152606401610683565b81805190602001208580519060200120146109f95760405162461bcd60e51b815260206004820152601b60248201527f4361726473206d75737420686176652073616d652072617269747900000000006044820152606401610683565b808414610a485760405162461bcd60e51b815260206004820152601a60248201527f4361726473206d75737420686176652073616d65206c6576656c0000000000006044820152606401610683565b60058410610a905760405162461bcd60e51b81526020600482015260156024820152744d6178206c6576656c20726561636865642028352960581b6044820152606401610683565b6000610a9d856001610d23565b6000546040516338c9c3db60e01b8152600481018d90529192506001600160a01b0316906338c9c3db90602401600060405180830381600087803b158015610ae457600080fd5b505af1158015610af8573d6000803e3d6000fd5b50506000546040516338c9c3db60e01b8152600481018d90526001600160a01b0390911692506338c9c3db9150602401600060405180830381600087803b158015610b4257600080fd5b505af1158015610b56573d6000803e3d6000fd5b505060008054604051635ff87d2960e11b81529193506001600160a01b0316915063bff0fa5290610b919033908c908c908890600401610e78565b6020604051808303816000875af1158015610bb0573d6000803e3d6000fd5b505050506040513d601f19601f82011682018060405250810190610bd49190610ec0565b3360008181526001602090815260409182902042905581518f81529081018e905290810183905260608101859052919250907f8fefa6654e6037d33356c81e0179b17bfb15c890bad7b9add3c035b8514e1b4f9060800160405180910390a29750505050505050505b92915050565b6001600160a01b0381168114610c5857600080fd5b50565b600060208284031215610c6d57600080fd5b813561017e81610c43565b60008060408385031215610c8b57600080fd5b50508035926020909101359150565b60005b83811015610cb5578181015183820152602001610c9d565b50506000910152565b60008151808452610cd6816020860160208601610c9a565b601f01601f19169290920160200192915050565b8215158152604060208201526000610d056040830184610cbe565b949350505050565b634e487b7160e01b600052601160045260246000fd5b80820180821115610c3d57610c3d610d0d565b81810381811115610c3d57610c3d610d0d565b600060208284031215610d5b57600080fd5b815161017e81610c43565b634e487b7160e01b600052604160045260246000fd5b600082601f830112610d8d57600080fd5b815167ffffffffffffffff80821115610da857610da8610d66565b604051601f8301601f19908116603f01168101908282118183101715610dd057610dd0610d66565b81604052838152866020858801011115610de957600080fd5b610dfa846020830160208901610c9a565b9695505050505050565b60008060008060808587031215610e1a57600080fd5b845167ffffffffffffffff80821115610e3257600080fd5b610e3e88838901610d7c565b95506020870151915080821115610e5457600080fd5b50610e6187828801610d7c565b604087015160609097015195989097509350505050565b6001600160a01b0385168152608060208201819052600090610e9c90830186610cbe565b8281036040840152610eae8186610cbe565b91505082606083015295945050505050565b600060208284031215610ed257600080fd5b505191905056fea26469706673582212203e5f7f9419694735fe636ee4162de57bf1439b823732357e96b0319f1605d7d764736f6c63430008140033",
  "linkReferences": {},
  "deployedLinkReferences": {}
}