{
  "_format": "hh-sol-artifact-1",
  "contractName": "FreeBooster",
  "sourceName": "contracts/FreeBooster.sol",
  "abi": [
    {
      "inputs": [
        {
          "internalType": "address",
          "name": "_arenaCardsAddress",
          "type": "address"
        }
      ],
      "stateMutability": "nonpayable",
      "type": "constructor"
    },
    {
      "anonymous": false,
      "inputs": [
        {
          "indexed": true,
          "internalType": "address",
          "name": "user",
          "type": "address"
        },
        {
          "indexed": false,
          "internalType": "uint256",
          "name": "timestamp",
          "type": "uint256"
        }
      ],
      "name": "BoosterOpened",
      "type": "event"
    },
    {
      "anonymous": false,
      "inputs": [
        {
          "indexed": true,
          "internalType": "address",
          "name": "user",
          "type": "address"
        },
        {
          "indexed": false,
          "internalType": "uint256",
          "name": "tokenId",
          "type": "uint256"
        },
        {
          "indexed": false,
          "internalType": "string",
          "name": "name",
          "type": "string"
        },
        {
          "indexed": false,
          "internalType": "string",
          "name": "rarity",
          "type": "string"
        }
      ],
      "name": "CardMinted",
      "type": "event"
    },
    {
      "inputs": [],
      "name": "CARDS_PER_BOOSTER",
      "outputs": [
        {
          "internalType": "uint256",
          "name": "",
          "type": "uint256"
        }
      ],
      "stateMutability": "view",
      "type": "function"
    },
    {
      "inputs": [],
      "name": "FREE_BOOSTER_COOLDOWN",
      "outputs": [
        {
          "internalType": "uint256",
          "name": "",
          "type": "uint256"
        }
      ],
      "stateMutability": "view",
      "type": "function"
    },
    {
      "inputs": [],
      "name": "arenaCards",
      "outputs": [
        {
          "internalType": "contract ArenaCards",
          "name": "",
          "type": "address"
        }
      ],
      "stateMutability": "view",
      "type": "function"
    },
    {
      "inputs": [
        {
          "internalType": "address",
          "name": "user",
          "type": "address"
        }
      ],
      "name": "canOpenBooster",
      "outputs": [
        {
          "internalType": "bool",
          "name": "",
          "type": "bool"
        }
      ],
      "stateMutability": "view",
      "type": "function"
    },
    {
      "inputs": [
        {
          "internalType": "uint256",
          "name": "",
          "type": "uint256"
        }
      ],
      "name": "cardTemplates",
      "outputs": [
        {
          "internalType": "string",
          "name": "name",
          "type": "string"
        },
        {
          "internalType": "string",
          "name": "rarity",
          "type": "string"
        },
        {
          "internalType": "string",
          "name": "imageURI",
          "type": "string"
        }
      ],
      "stateMutability": "view",
      "type": "function"
    },
    {
      "inputs": [
        {
          "internalType": "address",
          "name": "user",
          "type": "address"
        }
      ],
      "name": "getTimeUntilNextBooster",
      "outputs": [
        {
          "internalType": "uint256",
          "name": "",
          "type": "uint256"
        }
      ],
      "stateMutability": "view",
      "type": "function"
    },
    {
      "inputs": [
        {
          "internalType": "address",
          "name": "",
          "type": "address"
        }
      ],
      "name": "lastBoosterOpen",
      "outputs": [
        {
          "internalType": "uint256",
          "name": "",
          "type": "uint256"
        }
      ],
      "stateMutability": "view",
      "type": "function"
    },
    {
      "inputs": [],
      "name": "openBooster",
      "outputs": [],
      "stateMutability": "nonpayable",
      "type": "function"
    },
    {
      "inputs": [],
      "name": "owner",
      "outputs": [
        {
          "internalType": "address",
          "name": "",
          "type": "address"
        }
      ],
      "stateMutability": "view",
      "type": "function"
    },
    {
      "inputs": [
        {
          "internalType": "address",
          "name": "newOwner",
          "type": "address"
        }
      ],
      "name": "transferOwnership",
      "outputs": [],
      "stateMutability": "nonpayable",
      "type": "function"
    }
  ],
  "bytecode": "0x60806040523480156200001157600080fd5b506040516200214a3803806200214a833981016040819052620000349162000dad565b600080546001600160a01b0383166001600160a01b0319918216179091556001805490911633179055620000676200006e565b5062000f4f565b600360405180606001604052806040518060400160405280600b81526020016a447261676f6e20446f726560a81b81525081526020016040518060400160405280600a8152602001696c6567656e646169726560b01b81525081526020016040518060600160405280603d815260200162001e60603d91399052815460018101835560009283526020909220815191926003020190819062000111908262000e83565b506020820151600182019062000128908262000e83565b50604082015160028201906200013f908262000e83565b505050600360405180606001604052806040518060400160405280601081526020016f141a1bd95b9a5e08125b5b5bdc9d195b60821b81525081526020016040518060400160405280600a8152602001696c6567656e646169726560b01b81525081526020016040518060600160405280603e815260200162001de7603e913990528154600181018355600092835260209092208151919260030201908190620001ea908262000e83565b506020820151600182019062000201908262000e83565b506040820151600282019062000218908262000e83565b505050600360405180606001604052806040518060400160405280600e81526020016d21b432bb30b634b2b9102737b4b960911b81525081526020016040518060400160405280600681526020016565706971756560d01b8152508152602001604051806060016040528060408152602001620020506040913990528154600181018355600092835260209092208151919260030201908190620002bd908262000e83565b5060208201516001820190620002d4908262000e83565b5060408201516002820190620002eb908262000e83565b505050600360405180606001604052806040518060400160405280600f81526020016e4d6167652064657320476c6163657360881b81525081526020016040518060400160405280600681526020016565706971756560d01b81525081526020016040518060600160405280603b815260200162001e25603b91399052815460018101835560009283526020909220815191926003020190819062000391908262000e83565b5060208201516001820190620003a8908262000e83565b5060408201516002820190620003bf908262000e83565b505050600360405180606001604052806040518060400160405280601081526020016f417373617373696e2046616e746f6d6560801b81525081526020016040518060400160405280600681526020016565706971756560d01b81525081526020016040518060600160405280603f815260200162001fd2603f91399052815460018101835560009283526020909220815191926003020190819062000466908262000e83565b50602082015160018201906200047d908262000e83565b506040820151600282019062000494908262000e83565b505050600360405180606001604052806040518060400160405280600b81526020016a41726368657220456c666560a81b8152508152602001604051806040016040528060048152602001637261726560e01b81525081526020016040518060600160405280603d815260200162002090603d91399052815460018101835560009283526020909220815191926003020190819062000534908262000e83565b50602082015160018201906200054b908262000e83565b506040820151600282019062000562908262000e83565b505050600360405180606001604052806040518060400160405280600d81526020016c50616c6164696e20536163726560981b8152508152602001604051806040016040528060048152602001637261726560e01b81525081526020016040518060600160405280603e815260200162001f16603e91399052815460018101835560009283526020909220815191926003020190819062000604908262000e83565b50602082015160018201906200061b908262000e83565b506040820151600282019062000632908262000e83565b505050600360405180606001604052806040518060400160405280600d81526020016c22393ab4b2329020b731b4b2b760991b8152508152602001604051806040016040528060048152602001637261726560e01b81525081526020016040518060600160405280603d815260200162001e9d603d913990528154600181018355600092835260209092208151919260030201908190620006d4908262000e83565b5060208201516001820190620006eb908262000e83565b506040820151600282019062000702908262000e83565b505050600360405180606001604052806040518060400160405280600e81526020016d477565727269657220427261766560901b81525081526020016040518060400160405280600b81526020016a70657520636f6d6d756e6560a81b81525081526020016040518060600160405280603f8152602001620020cd603f913990528154600181018355600092835260209092208151919260030201908190620007ac908262000e83565b5060208201516001820190620007c3908262000e83565b5060408201516002820190620007da908262000e83565b505050600360405180606001604052806040518060400160405280600c81526020016b566f6c657572204167696c6560a01b81525081526020016040518060400160405280600b81526020016a70657520636f6d6d756e6560a81b81525081526020016040518060600160405280603d815260200162001daa603d91399052815460018101835560009283526020909220815191926003020190819062000882908262000e83565b506020820151600182019062000899908262000e83565b5060408201516002820190620008b0908262000e83565b505050600360405180606001604052806040518060400160405280600b81526020016a507265747265205361676560a81b81525081526020016040518060400160405280600b81526020016a70657520636f6d6d756e6560a81b81525081526020016040518060600160405280603d815260200162001d6d603d91399052815460018101835560009283526020909220815191926003020190819062000957908262000e83565b50602082015160018201906200096e908262000e83565b506040820151600282019062000985908262000e83565b505050600360405180606001604052806040518060400160405280600c81526020016b476f62656c696e205275736560a01b815250815260200160405180604001604052806007815260200166636f6d6d756e6560c81b81525081526020016040518060600160405280603e815260200162001f94603e91399052815460018101835560009283526020909220815191926003020190819062000a29908262000e83565b506020820151600182019062000a40908262000e83565b506040820151600282019062000a57908262000e83565b505050600360405180606001604052806040518060400160405280600e81526020016d536f726369657265204e6f69726560901b815250815260200160405180604001604052806007815260200166636f6d6d756e6560c81b81525081526020016040518060600160405280603f815260200162002011603f91399052815460018101835560009283526020909220815191926003020190819062000afd908262000e83565b506020820151600182019062000b14908262000e83565b506040820151600282019062000b2b908262000e83565b505050600360405180606001604052806040518060400160405280600f81526020016e42617262617265205361757661676560881b815250815260200160405180604001604052806007815260200166636f6d6d756e6560c81b81525081526020016040518060600160405280603e81526020016200210c603e91399052815460018101835560009283526020909220815191926003020190819062000bd2908262000e83565b506020820151600182019062000be9908262000e83565b506040820151600282019062000c00908262000e83565b505050600360405180606001604052806040518060400160405280601081526020016f14dc5d595b195d1d194814dbdb19185d60821b815250815260200160405180604001604052806007815260200166636f6d6d756e6560c81b815250815260200160405180606001604052806040815260200162001f54604091399052815460018101835560009283526020909220815191926003020190819062000ca8908262000e83565b506020820151600182019062000cbf908262000e83565b506040820151600282019062000cd6908262000e83565b505050600360405180606001604052806040518060400160405280600c81526020016b14db1a5b594811db1d585b9d60a21b815250815260200160405180604001604052806007815260200166636f6d6d756e6560c81b81525081526020016040518060600160405280603c815260200162001eda603c91399052815460018101835560009283526020909220815191926003020190819062000d7a908262000e83565b506020820151600182019062000d91908262000e83565b506040820151600282019062000da8908262000e83565b505050565b60006020828403121562000dc057600080fd5b81516001600160a01b038116811462000dd857600080fd5b9392505050565b634e487b7160e01b600052604160045260246000fd5b600181811c9082168062000e0a57607f821691505b60208210810362000e2b57634e487b7160e01b600052602260045260246000fd5b50919050565b601f82111562000da857600081815260208120601f850160051c8101602086101562000e5a5750805b601f850160051c820191505b8181101562000e7b5782815560010162000e66565b505050505050565b81516001600160401b0381111562000e9f5762000e9f62000ddf565b62000eb78162000eb0845462000df5565b8462000e31565b602080601f83116001811462000eef576000841562000ed65750858301515b600019600386901b1c1916600185901b17855562000e7b565b600085815260208120601f198616915b8281101562000f205788860151825594840194600190910190840162000eff565b508582101562000f3f5787850151600019600388901b60f8161c191681555b5050505050600190811b01905550565b610e0e8062000f5f6000396000f3fe608060405234801561001057600080fd5b506004361061009e5760003560e01c806394915a211161006657806394915a2114610134578063af215f981461013d578063e87b53f614610145578063ee442eb414610165578063f2fde38b1461018757600080fd5b80631ae9f1ee146100a357806343ea5977146100c95780635dedca3f146100f457806372930dbf146101175780638da5cb5b14610121575b600080fd5b6100b66100b1366004610bde565b61019a565b6040519081526020015b60405180910390f35b6000546100dc906001600160a01b031681565b6040516001600160a01b0390911681526020016100c0565b610107610102366004610bde565b61020a565b60405190151581526020016100c0565b61011f610260565b005b6001546100dc906001600160a01b031681565b6100b661025881565b6100b6600281565b6100b6610153366004610bde565b60026020526000908152604090205481565b610178610173366004610c07565b610484565b6040516100c093929190610c66565b61011f610195366004610bde565b610656565b6001600160a01b03811660009081526002602052604081205481036101c157506000919050565b6001600160a01b0382166000908152600260205260408120546101e79061025890610cbf565b90508042106101f95750600092915050565b6102034282610cd8565b9392505050565b6001600160a01b038116600090815260026020526040812054810361023157506001919050565b6001600160a01b0382166000908152600260205260409020546102579061025890610cbf565b42101592915050565b3360009081526002602052604090205415806102985750336000908152600260205260409020546102949061025890610cbf565b4210155b6102e95760405162461bcd60e51b815260206004820152601760248201527f426f6f7374657220636f6f6c646f776e2061637469766500000000000000000060448201526064015b60405180910390fd5b600080546040516370a0823160e01b81523360048201526001600160a01b03909116906370a0823190602401602060405180830381865afa158015610332573d6000803e3d6000fd5b505050506040513d601f19601f820116820180604052508101906103569190610ceb565b905060008054906101000a90046001600160a01b03166001600160a01b0316637e744a766040518163ffffffff1660e01b8152600401602060405180830381865afa1580156103a9573d6000803e3d6000fd5b505050506040513d601f19601f820116820180604052508101906103cd9190610ceb565b6103d8600283610cbf565b11156104315760405162461bcd60e51b815260206004820152602260248201527f4e6f7420656e6f75676820737061636520666f7220626f6f7374657220636172604482015261647360f01b60648201526084016102e0565b33600081815260026020526040902042905561044c90610706565b60405142815233907f46aebaa8c0d85641b84ebe767545bc1ce29e0fb10ca5f889e4569d890d8eccb79060200160405180910390a250565b6003818154811061049457600080fd5b90600052602060002090600302016000915090508060000180546104b790610d04565b80601f01602080910402602001604051908101604052809291908181526020018280546104e390610d04565b80156105305780601f1061050557610100808354040283529160200191610530565b820191906000526020600020905b81548152906001019060200180831161051357829003601f168201915b50505050509080600101805461054590610d04565b80601f016020809104026020016040519081016040528092919081815260200182805461057190610d04565b80156105be5780601f10610593576101008083540402835291602001916105be565b820191906000526020600020905b8154815290600101906020018083116105a157829003601f168201915b5050505050908060020180546105d390610d04565b80601f01602080910402602001604051908101604052809291908181526020018280546105ff90610d04565b801561064c5780601f106106215761010080835404028352916020019161064c565b820191906000526020600020905b81548152906001019060200180831161062f57829003601f168201915b5050505050905083565b6001546001600160a01b0316331461069c5760405162461bcd60e51b81526020600482015260096024820152682737ba1037bbb732b960b91b60448201526064016102e0565b6001600160a01b0381166106e45760405162461bcd60e51b815260206004820152600f60248201526e496e76616c6964206164647265737360881b60448201526064016102e0565b600180546001600160a01b0319166001600160a01b0392909216919091179055565b60005b600281101561086957600061071d8261086d565b60005481516020830151604051631a56bb5760e31b81529394506001600160a01b039092169263d2b5dab89261075a928892909190600401610d38565b600060405180830381600087803b15801561077457600080fd5b505af1158015610788573d6000803e3d6000fd5b50505050826001600160a01b03167fa27076ba8c7eab72cb8020b9db57d90f231a7f2fb6fb9c2181b711b1559f71c0600160008054906101000a90046001600160a01b03166001600160a01b031663d082e3816040518163ffffffff1660e01b8152600401602060405180830381865afa15801561080a573d6000803e3d6000fd5b505050506040513d601f19601f8201168201806040525081019061082e9190610ceb565b6108389190610cd8565b8351602085015160405161084e93929190610d6e565b60405180910390a2508061086181610d87565b915050610709565b5050565b61089160405180606001604052806060815260200160608152602001606081525090565b60006103e861089f84610b7f565b6108a99190610da0565b90506001811015610ac257600060026108cb6108c6866001610cbf565b610b7f565b6108d59190610da0565b9050600381815481106108ea576108ea610dc2565b906000526020600020906003020160405180606001604052908160008201805461091390610d04565b80601f016020809104026020016040519081016040528092919081815260200182805461093f90610d04565b801561098c5780601f106109615761010080835404028352916020019161098c565b820191906000526020600020905b81548152906001019060200180831161096f57829003601f168201915b505050505081526020016001820180546109a590610d04565b80601f01602080910402602001604051908101604052809291908181526020018280546109d190610d04565b8015610a1e5780601f106109f357610100808354040283529160200191610a1e565b820191906000526020600020905b815481529060010190602001808311610a0157829003601f168201915b50505050508152602001600282018054610a3790610d04565b80601f0160208091040260200160405190810160405280929190818152602001828054610a6390610d04565b8015610ab05780601f10610a8557610100808354040283529160200191610ab0565b820191906000526020600020905b815481529060010190602001808311610a9357829003601f168201915b50505050508152505092505050919050565b6065811015610af25760006003610add6108c6866002610cbf565b610ae79190610da0565b6108d5906002610cbf565b61012d811015610b225760006003610b0d6108c68683610cbf565b610b179190610da0565b6108d5906005610cbf565b610227811015610b535760006003610b3e6108c6866004610cbf565b610b489190610da0565b6108d5906008610cbf565b60006005610b646108c68683610cbf565b610b6e9190610da0565b6108d590600b610cbf565b50919050565b600042443384604051602001610bc09493929190938452602084019290925260601b6bffffffffffffffffffffffff19166040830152605482015260740190565b60408051601f19818403018152919052805160209091012092915050565b600060208284031215610bf057600080fd5b81356001600160a01b038116811461020357600080fd5b600060208284031215610c1957600080fd5b5035919050565b6000815180845260005b81811015610c4657602081850181015186830182015201610c2a565b506000602082860101526020601f19601f83011685010191505092915050565b606081526000610c796060830186610c20565b8281036020840152610c8b8186610c20565b90508281036040840152610c9f8185610c20565b9695505050505050565b634e487b7160e01b600052601160045260246000fd5b80820180821115610cd257610cd2610ca9565b92915050565b81810381811115610cd257610cd2610ca9565b600060208284031215610cfd57600080fd5b5051919050565b600181811c90821680610d1857607f821691505b602082108103610b7957634e487b7160e01b600052602260045260246000fd5b6001600160a01b0384168152606060208201819052600090610d5c90830185610c20565b8281036040840152610c9f8185610c20565b838152606060208201526000610d5c6060830185610c20565b600060018201610d9957610d99610ca9565b5060010190565b600082610dbd57634e487b7160e01b600052601260045260246000fd5b500690565b634e487b7160e01b600052603260045260246000fdfea2646970667358221220c9d11490a67b380e24cdd19fdbe9219b3d8dbc37fc26ad5a02c026798e7d338664736f6c6343000814003368747470733a2f2f7669612e706c616365686f6c6465722e636f6d2f333030783430302f4146454545452f3030303030303f746578743d50726574726568747470733a2f2f7669612e706c616365686f6c6465722e636f6d2f333030783430302f3938464239382f3030303030303f746578743d566f6c65757268747470733a2f2f7669612e706c616365686f6c6465722e636f6d2f333030783430302f4646363334372f4646464646463f746578743d50686f656e697868747470733a2f2f7669612e706c616365686f6c6465722e636f6d2f333030783430302f3431363945312f4646464646463f746578743d4d61676568747470733a2f2f7669612e706c616365686f6c6465722e636f6d2f333030783430302f4646343530302f4646464646463f746578743d447261676f6e68747470733a2f2f7669612e706c616365686f6c6465722e636f6d2f333030783430302f3332434433322f3030303030303f746578743d44727569646568747470733a2f2f7669612e706c616365686f6c6465722e636f6d2f333030783430302f3938464239382f3030303030303f746578743d536c696d6568747470733a2f2f7669612e706c616365686f6c6465722e636f6d2f333030783430302f3030434544312f3030303030303f746578743d50616c6164696e68747470733a2f2f7669612e706c616365686f6c6465722e636f6d2f333030783430302f4139413941392f4646464646463f746578743d537175656c6574746568747470733a2f2f7669612e706c616365686f6c6465722e636f6d2f333030783430302f3830383038302f4646464646463f746578743d476f62656c696e68747470733a2f2f7669612e706c616365686f6c6465722e636f6d2f333030783430302f3933373044422f4646464646463f746578743d417373617373696e68747470733a2f2f7669612e706c616365686f6c6465722e636f6d2f333030783430302f3639363936392f4646464646463f746578743d536f72636965726568747470733a2f2f7669612e706c616365686f6c6465722e636f6d2f333030783430302f3830303038302f4646464646463f746578743d43686576616c69657268747470733a2f2f7669612e706c616365686f6c6465722e636f6d2f333030783430302f3145393046462f4646464646463f746578743d41726368657268747470733a2f2f7669612e706c616365686f6c6465722e636f6d2f333030783430302f3930454539302f3030303030303f746578743d477565727269657268747470733a2f2f7669612e706c616365686f6c6465722e636f6d2f333030783430302f3737383839392f4646464646463f746578743d42617262617265",
  "linkReferences": {},
  "deployedLinkReferences": {}
}