{
  "_format": "hh-sol-artifact-1",
  "contractName": "Marketplace",
  "sourceName": "contracts/Marketplace.sol",
  "abi": [
    {
      "inputs": [
        {
          "internalType": "address",
          "name": "_arenaCardsAddress",
          "type": "address"
        }
      ],
      "stateMutability": "nonpayable",
      "type": "constructor"
    },
    {
      "inputs": [
        {
          "internalType": "address",
          "name": "owner",
          "type": "address"
        }
      ],
      "name": "OwnableInvalidOwner",
      "type": "error"
    },
    {
      "inputs": [
        {
          "internalType": "address",
          "name": "account",
          "type": "address"
        }
      ],
      "name": "OwnableUnauthorizedAccount",
      "type": "error"
    },
    {
      "inputs": [],
      "name": "ReentrancyGuardReentrantCall",
      "type": "error"
    },
    {
      "anonymous": false,
      "inputs": [
        {
          "indexed": true,
          "internalType": "uint256",
          "name": "tradeId",
          "type": "uint256"
        },
        {
          "indexed": true,
          "internalType": "address",
          "name": "acceptor",
          "type": "address"
        },
        {
          "indexed": false,
          "internalType": "uint256",
          "name": "offeredTokenId",
          "type": "uint256"
        },
        {
          "indexed": false,
          "internalType": "uint256",
          "name": "requestedTokenId",
          "type": "uint256"
        }
      ],
      "name": "DirectTradeAccepted",
      "type": "event"
    },
    {
      "anonymous": false,
      "inputs": [
        {
          "indexed": true,
          "internalType": "uint256",
          "name": "tradeId",
          "type": "uint256"
        }
      ],
      "name": "DirectTradeCancelled",
      "type": "event"
    },
    {
      "anonymous": false,
      "inputs": [
        {
          "indexed": true,
          "internalType": "uint256",
          "name": "tradeId",
          "type": "uint256"
        },
        {
          "indexed": true,
          "internalType": "address",
          "name": "creator",
          "type": "address"
        },
        {
          "indexed": true,
          "internalType": "address",
          "name": "target",
          "type": "address"
        },
        {
          "indexed": false,
          "internalType": "uint256",
          "name": "offeredTokenId",
          "type": "uint256"
        },
        {
          "indexed": false,
          "internalType": "uint256",
          "name": "requestedTokenId",
          "type": "uint256"
        }
      ],
      "name": "DirectTradeCreated",
      "type": "event"
    },
    {
      "anonymous": false,
      "inputs": [
        {
          "indexed": true,
          "internalType": "address",
          "name": "previousOwner",
          "type": "address"
        },
        {
          "indexed": true,
          "internalType": "address",
          "name": "newOwner",
          "type": "address"
        }
      ],
      "name": "OwnershipTransferred",
      "type": "event"
    },
    {
      "anonymous": false,
      "inputs": [
        {
          "indexed": true,
          "internalType": "uint256",
          "name": "tradeId",
          "type": "uint256"
        },
        {
          "indexed": true,
          "internalType": "address",
          "name": "acceptor",
          "type": "address"
        },
        {
          "indexed": false,
          "internalType": "uint256",
          "name": "offeredTokenId",
          "type": "uint256"
        },
        {
          "indexed": false,
          "internalType": "uint256",
          "name": "acceptedTokenId",
          "type": "uint256"
        }
      ],
      "name": "TradeAccepted",
      "type": "event"
    },
    {
      "anonymous": false,
      "inputs": [
        {
          "indexed": true,
          "internalType": "uint256",
          "name": "tradeId",
          "type": "uint256"
        }
      ],
      "name": "TradeCancelled",
      "type": "event"
    },
    {
      "anonymous": false,
      "inputs": [
        {
          "indexed": true,
          "internalType": "uint256",
          "name": "tradeId",
          "type": "uint256"
        },
        {
          "indexed": true,
          "internalType": "address",
          "name": "creator",
          "type": "address"
        },
        {
          "indexed": false,
          "internalType": "uint256",
          "name": "offeredTokenId",
          "type": "uint256"
        },
        {
          "indexed": false,
          "internalType": "string",
          "name": "requestedCardName",
          "type": "string"
        },
        {
          "indexed": false,
          "internalType": "uint256",
          "name": "requestedLevel",
          "type": "uint256"
        }
      ],
      "name": "TradeCreated",
      "type": "event"
    },
    {
      "inputs": [
        {
          "internalType": "uint256",
          "name": "tradeId",
          "type": "uint256"
        }
      ],
      "name": "acceptDirectTrade",
      "outputs": [],
      "stateMutability": "nonpayable",
      "type": "function"
    },
    {
      "inputs": [
        {
          "internalType": "uint256",
          "name": "tradeId",
          "type": "uint256"
        },
        {
          "internalType": "uint256",
          "name": "offeredCardTokenId",
          "type": "uint256"
        }
      ],
      "name": "acceptTrade",
      "outputs": [],
      "stateMutability": "nonpayable",
      "type": "function"
    },
    {
      "inputs": [],
      "name": "arenaCards",
      "outputs": [
        {
          "internalType": "contract IArenaCards",
          "name": "",
          "type": "address"
        }
      ],
      "stateMutability": "view",
      "type": "function"
    },
    {
      "inputs": [
        {
          "internalType": "uint256",
          "name": "tradeId",
          "type": "uint256"
        }
      ],
      "name": "cancelDirectTrade",
      "outputs": [],
      "stateMutability": "nonpayable",
      "type": "function"
    },
    {
      "inputs": [
        {
          "internalType": "uint256",
          "name": "tradeId",
          "type": "uint256"
        }
      ],
      "name": "cancelTrade",
      "outputs": [],
      "stateMutability": "nonpayable",
      "type": "function"
    },
    {
      "inputs": [
        {
          "internalType": "address",
          "name": "target",
          "type": "address"
        },
        {
          "internalType": "uint256",
          "name": "offeredTokenId",
          "type": "uint256"
        },
        {
          "internalType": "uint256",
          "name": "requestedTokenId",
          "type": "uint256"
        }
      ],
      "name": "createDirectTrade",
      "outputs": [],
      "stateMutability": "nonpayable",
      "type": "function"
    },
    {
      "inputs": [
        {
          "internalType": "uint256",
          "name": "offeredTokenId",
          "type": "uint256"
        },
        {
          "internalType": "string",
          "name": "requestedCardName",
          "type": "string"
        },
        {
          "internalType": "uint256",
          "name": "requestedLevel",
          "type": "uint256"
        },
        {
          "internalType": "string",
          "name": "requestedRarity",
          "type": "string"
        }
      ],
      "name": "createTrade",
      "outputs": [],
      "stateMutability": "nonpayable",
      "type": "function"
    },
    {
      "inputs": [],
      "name": "directTradeCounter",
      "outputs": [
        {
          "internalType": "uint256",
          "name": "",
          "type": "uint256"
        }
      ],
      "stateMutability": "view",
      "type": "function"
    },
    {
      "inputs": [
        {
          "internalType": "uint256",
          "name": "",
          "type": "uint256"
        }
      ],
      "name": "directTrades",
      "outputs": [
        {
          "internalType": "uint256",
          "name": "tradeId",
          "type": "uint256"
        },
        {
          "internalType": "address",
          "name": "creator",
          "type": "address"
        },
        {
          "internalType": "address",
          "name": "target",
          "type": "address"
        },
        {
          "internalType": "uint256",
          "name": "offeredTokenId",
          "type": "uint256"
        },
        {
          "internalType": "uint256",
          "name": "requestedTokenId",
          "type": "uint256"
        },
        {
          "internalType": "bool",
          "name": "isActive",
          "type": "bool"
        },
        {
          "internalType": "uint256",
          "name": "createdAt",
          "type": "uint256"
        }
      ],
      "stateMutability": "view",
      "type": "function"
    },
    {
      "inputs": [],
      "name": "getActiveTrades",
      "outputs": [
        {
          "components": [
            {
              "internalType": "uint256",
              "name": "tradeId",
              "type": "uint256"
            },
            {
              "internalType": "address",
              "name": "creator",
              "type": "address"
            },
            {
              "internalType": "uint256",
              "name": "offeredTokenId",
              "type": "uint256"
            },
            {
              "internalType": "string",
              "name": "requestedCardName",
              "type": "string"
            },
            {
              "internalType": "uint256",
              "name": "requestedLevel",
              "type": "uint256"
            },
            {
              "internalType": "string",
              "name": "requestedRarity",
              "type": "string"
            },
            {
              "internalType": "bool",
              "name": "isActive",
              "type": "bool"
            },
            {
              "internalType": "uint256",
              "name": "createdAt",
              "type": "uint256"
            }
          ],
          "internalType": "struct Marketplace.Trade[]",
          "name": "",
          "type": "tuple[]"
        }
      ],
      "stateMutability": "view",
      "type": "function"
    },
    {
      "inputs": [
        {
          "internalType": "address",
          "name": "user",
          "type": "address"
        }
      ],
      "name": "getReceivedDirectTrades",
      "outputs": [
        {
          "components": [
            {
              "internalType": "uint256",
              "name": "tradeId",
              "type": "uint256"
            },
            {
              "internalType": "address",
              "name": "creator",
              "type": "address"
            },
            {
              "internalType": "address",
              "name": "target",
              "type": "address"
            },
            {
              "internalType": "uint256",
              "name": "offeredTokenId",
              "type": "uint256"
            },
            {
              "internalType": "uint256",
              "name": "requestedTokenId",
              "type": "uint256"
            },
            {
              "internalType": "bool",
              "name": "isActive",
              "type": "bool"
            },
            {
              "internalType": "uint256",
              "name": "createdAt",
              "type": "uint256"
            }
          ],
          "internalType": "struct Marketplace.DirectTrade[]",
          "name": "",
          "type": "tuple[]"
        }
      ],
      "stateMutability": "view",
      "type": "function"
    },
    {
      "inputs": [
        {
          "internalType": "address",
          "name": "user",
          "type": "address"
        }
      ],
      "name": "getSentDirectTrades",
      "outputs": [
        {
          "components": [
            {
              "internalType": "uint256",
              "name": "tradeId",
              "type": "uint256"
            },
            {
              "internalType": "address",
              "name": "creator",
              "type": "address"
            },
            {
              "internalType": "address",
              "name": "target",
              "type": "address"
            },
            {
              "internalType": "uint256",
              "name": "offeredTokenId",
              "type": "uint256"
            },
            {
              "internalType": "uint256",
              "name": "requestedTokenId",
              "type": "uint256"
            },
            {
              "internalType": "bool",
              "name": "isActive",
              "type": "bool"
            },
            {
              "internalType": "uint256",
              "name": "createdAt",
              "type": "uint256"
            }
          ],
          "internalType": "struct Marketplace.DirectTrade[]",
          "name": "",
          "type": "tuple[]"
        }
      ],
      "stateMutability": "view",
      "type": "function"
    },
    {
      "inputs": [
        {
          "internalType": "address",
          "name": "user",
          "type": "address"
        }
      ],
      "name": "getUserTrades",
      "outputs": [
        {
          "components": [
            {
              "internalType": "uint256",
              "name": "tradeId",
              "type": "uint256"
            },
            {
              "internalType": "address",
              "name": "creator",
              "type": "address"
            },
            {
              "internalType": "uint256",
              "name": "offeredTokenId",
              "type": "uint256"
            },
            {
              "internalType": "string",
              "name": "requestedCardName",
              "type": "string"
            },
            {
              "internalType": "uint256",
              "name": "requestedLevel",
              "type": "uint256"
            },
            {
              "internalType": "string",
              "name": "requestedRarity",
              "type": "string"
            },
            {
              "internalType": "bool",
              "name": "isActive",
              "type": "bool"
            },
            {
              "internalType": "uint256",
              "name": "createdAt",
              "type": "uint256"
            }
          ],
          "internalType": "struct Marketplace.Trade[]",
          "name": "",
          "type": "tuple[]"
        }
      ],
      "stateMutability": "view",
      "type": "function"
    },
    {
      "inputs": [
        {
          "internalType": "uint256",
          "name": "tokenId",
          "type": "uint256"
        }
      ],
      "name": "isCardInTrade",
      "outputs": [
        {
          "internalType": "bool",
          "name": "",
          "type": "bool"
        }
      ],
      "stateMutability": "view",
      "type": "function"
    },
    {
      "inputs": [],
      "name": "owner",
      "outputs": [
        {
          "internalType": "address",
          "name": "",
          "type": "address"
        }
      ],
      "stateMutability": "view",
      "type": "function"
    },
    {
      "inputs": [],
      "name": "renounceOwnership",
      "outputs": [],
      "stateMutability": "nonpayable",
      "type": "function"
    },
    {
      "inputs": [
        {
          "internalType": "uint256",
          "name": "",
          "type": "uint256"
        }
      ],
      "name": "tokenInTrade",
      "outputs": [
        {
          "internalType": "bool",
          "name": "",
          "type": "bool"
        }
      ],
      "stateMutability": "view",
      "type": "function"
    },
    {
      "inputs": [],
      "name": "tradeCounter",
      "outputs": [
        {
          "internalType": "uint256",
          "name": "",
          "type": "uint256"
        }
      ],
      "stateMutability": "view",
      "type": "function"
    },
    {
      "inputs": [
        {
          "internalType": "uint256",
          "name": "",
          "type": "uint256"
        }
      ],
      "name": "trades",
      "outputs": [
        {
          "internalType": "uint256",
          "name": "tradeId",
          "type": "uint256"
        },
        {
          "internalType": "address",
          "name": "creator",
          "type": "address"
        },
        {
          "internalType": "uint256",
          "name": "offeredTokenId",
          "type": "uint256"
        },
        {
          "internalType": "string",
          "name": "requestedCardName",
          "type": "string"
        },
        {
          "internalType": "uint256",
          "name": "requestedLevel",
          "type": "uint256"
        },
        {
          "internalType": "string",
          "name": "requestedRarity",
          "type": "string"
        },
        {
          "internalType": "bool",
          "name": "isActive",
          "type": "bool"
        },
        {
          "internalType": "uint256",
          "name": "createdAt",
          "type": "uint256"
        }
      ],
      "stateMutability": "view",
      "type": "function"
    },
    {
      "inputs": [
        {
          "internalType": "address",
          "name": "newOwner",
          "type": "address"
        }
      ],
      "name": "transferOwnership",
      "outputs": [],
      "stateMutability": "nonpayable",
      "type": "function"
    }
  ],
  "bytecode": "0x60806040523480156200001157600080fd5b50604051620032f5380380620032f58339810160408190526200003491620000e1565b33806200005b57604051631e4fbdf760e01b81526000600482015260240160405180910390fd5b620000668162000091565b5060018055600280546001600160a01b0319166001600160a01b039290921691909117905562000113565b600080546001600160a01b038381166001600160a01b0319831681178455604051919092169283917f8be0079c531659141344cd1fd0a4f28419497f9722a3daafe3b4186f6b6457e09190a35050565b600060208284031215620000f457600080fd5b81516001600160a01b03811681146200010c57600080fd5b9392505050565b6131d280620001236000396000f3fe608060405234801561001057600080fd5b506004361061012c5760003560e01c80638da5cb5b116100ad578063cc6a120b11610071578063cc6a120b146102a1578063ecada317146102b4578063f0096f4514610352578063f2fde38b14610365578063fdbe9a351461037857600080fd5b80638da5cb5b1461022e578063927c77421461023f578063a1a23d8414610252578063a7015e1514610285578063b3031ed31461029857600080fd5b806343ea5977116100f457806343ea5977146101be578063660d15b5146101e9578063715018a6146102005780637fe021b8146102085780638acb6b721461021b57600080fd5b80630954d6dc1461013157806309ec6cc71461014f5780631e6c598e1461016457806328185dc91461018b5780633c4b0141146101ab575b600080fd5b61013961039b565b60405161014691906129b2565b60405180910390f35b61016261015d366004612a91565b61063e565b005b610177610172366004612a91565b610730565b604051610146989796959493929190612aaa565b61019e610199366004612b23565b610891565b6040516101469190612b47565b6101626101b9366004612bd7565b610a64565b6002546101d1906001600160a01b031681565b6040516001600160a01b039091168152602001610146565b6101f260035481565b604051908152602001610146565b61016261103a565b610162610216366004612cbe565b61104e565b610162610229366004612a91565b611673565b6000546001600160a01b03166101d1565b61013961024d366004612b23565b611adc565b610275610260366004612a91565b60076020526000908152604090205460ff1681565b6040519015158152602001610146565b61019e610293366004612b23565b611dc6565b6101f260045481565b6101626102af366004612a91565b611f8f565b61030f6102c2366004612a91565b6006602081905260009182526040909120805460018201546002830154600384015460048501546005860154959096015493956001600160a01b03938416959390921693909260ff169087565b604080519788526001600160a01b039687166020890152949095169386019390935260608501919091526080840152151560a083015260c082015260e001610146565b610162610360366004612d35565b612089565b610162610373366004612b23565b6127df565b610275610386366004612a91565b60009081526007602052604090205460ff1690565b60606000805b6003548110156103e55760008181526005602052604090206006015460ff16156103d357816103cf81612d6a565b9250505b806103dd81612d6a565b9150506103a1565b5060008167ffffffffffffffff81111561040157610401612bf9565b60405190808252806020026020018201604052801561043a57816020015b6104276128c1565b81526020019060019003908161041f5790505b5090506000805b6003548110156106355760008181526005602052604090206006015460ff1615610623576000818152600560209081526040918290208251610100810184528154815260018201546001600160a01b0316928101929092526002810154928201929092526003820180549192916060840191906104bd90612d91565b80601f01602080910402602001604051908101604052809291908181526020018280546104e990612d91565b80156105365780601f1061050b57610100808354040283529160200191610536565b820191906000526020600020905b81548152906001019060200180831161051957829003601f168201915b505050505081526020016004820154815260200160058201805461055990612d91565b80601f016020809104026020016040519081016040528092919081815260200182805461058590612d91565b80156105d25780601f106105a7576101008083540402835291602001916105d2565b820191906000526020600020905b8154815290600101906020018083116105b557829003601f168201915b5050509183525050600682015460ff1615156020820152600790910154604090910152835184908490811061060957610609612dcb565b6020026020010181905250818061061f90612d6a565b9250505b8061062d81612d6a565b915050610441565b50909392505050565b61064661281a565b6000818152600560205260409020600681015460ff166106815760405162461bcd60e51b815260040161067890612de1565b60405180910390fd5b60018101546001600160a01b031633146106d15760405162461bcd60e51b81526020600482015260116024820152702737ba103a3930b2329031b932b0ba37b960791b6044820152606401610678565b60068101805460ff1990811690915560028201546000908152600760205260408082208054909316909255905183917f4e02dcf02d8510f6c8a6878a3c54ae6e2bfbf552df29221d7a1eed173a6b1ae791a25061072d60018055565b50565b600560205260009081526040902080546001820154600283015460038401805493946001600160a01b039093169391929161076a90612d91565b80601f016020809104026020016040519081016040528092919081815260200182805461079690612d91565b80156107e35780601f106107b8576101008083540402835291602001916107e3565b820191906000526020600020905b8154815290600101906020018083116107c657829003601f168201915b5050505050908060040154908060050180546107fe90612d91565b80601f016020809104026020016040519081016040528092919081815260200182805461082a90612d91565b80156108775780601f1061084c57610100808354040283529160200191610877565b820191906000526020600020905b81548152906001019060200180831161085a57829003601f168201915b505050506006830154600790930154919260ff1691905088565b60606000805b600454811015610903576000818152600660205260409020600101546001600160a01b0385811691161480156108de575060008181526006602052604090206005015460ff165b156108f157816108ed81612d6a565b9250505b806108fb81612d6a565b915050610897565b5060008167ffffffffffffffff81111561091f5761091f612bf9565b60405190808252806020026020018201604052801561095857816020015b610945612911565b81526020019060019003908161093d5790505b5090506000805b600454811015610a5a576000818152600660205260409020600101546001600160a01b0387811691161480156109a6575060008181526006602052604090206005015460ff165b15610a4857600081815260066020818152604092839020835160e0810185528154815260018201546001600160a01b03908116938201939093526002820154909216938201939093526003830154606082015260048301546080820152600583015460ff16151560a082015291015460c08201528351849084908110610a2e57610a2e612dcb565b60200260200101819052508180610a4490612d6a565b9250505b80610a5281612d6a565b91505061095f565b5090949350505050565b610a6c61281a565b6000828152600560205260409020600681015460ff16610a9e5760405162461bcd60e51b815260040161067890612de1565b6001810154336001600160a01b0390911603610afc5760405162461bcd60e51b815260206004820152601760248201527f43616e6e6f7420616363657074206f776e2074726164650000000000000000006044820152606401610678565b6002546040516331a9108f60e11b81526004810184905233916001600160a01b031690636352211e90602401602060405180830381865afa158015610b45573d6000803e3d6000fd5b505050506040513d601f19601f82011682018060405250810190610b699190612e0b565b6001600160a01b031614610b8f5760405162461bcd60e51b815260040161067890612e28565b600181015460028054908301546040516331a9108f60e11b815260048101919091526001600160a01b039283169290911690636352211e90602401602060405180830381865afa158015610be7573d6000803e3d6000fd5b505050506040513d601f19601f82011682018060405250810190610c0b9190612e0b565b6001600160a01b031614610c315760405162461bcd60e51b815260040161067890612e5f565b600254604051636a24447f60e11b815260048101849052600091829182916001600160a01b03169063d44888fe90602401600060405180830381865afa158015610c7f573d6000803e3d6000fd5b505050506040513d6000823e601f3d908101601f19168201604052610ca79190810190612eef565b5092509250925083600301604051610cbf9190612f63565b6040518091039020838051906020012014610d1c5760405162461bcd60e51b815260206004820152601860248201527f43617264206e616d6520646f6573206e6f74206d6174636800000000000000006044820152606401610678565b83600401548114610d6f5760405162461bcd60e51b815260206004820152601960248201527f43617264206c6576656c20646f6573206e6f74206d61746368000000000000006044820152606401610678565b83600501604051610d809190612f63565b6040518091039020828051906020012014610ddd5760405162461bcd60e51b815260206004820152601a60248201527f436172642072617269747920646f6573206e6f74206d617463680000000000006044820152606401610678565b60025460405163020604bf60e21b81526004810187905230916001600160a01b03169063081812fc90602401602060405180830381865afa158015610e26573d6000803e3d6000fd5b505050506040513d601f19601f82011682018060405250810190610e4a9190612e0b565b6001600160a01b03161480610ecc575060025460405163e985e9c560e01b81523360048201523060248201526001600160a01b039091169063e985e9c590604401602060405180830381865afa158015610ea8573d6000803e3d6000fd5b505050506040513d601f19601f82011682018060405250810190610ecc9190612fd9565b610ee85760405162461bcd60e51b815260040161067890612ffb565b600184015460028086015460068701805460ff1990811690915560008281526007602052604090819020805490921690915591549151632142170760e11b81526001600160a01b03938416939192909116906342842e0e90610f5290859033908690600401613041565b600060405180830381600087803b158015610f6c57600080fd5b505af1158015610f80573d6000803e3d6000fd5b5050600254604051632142170760e11b81526001600160a01b0390911692506342842e0e9150610fb890339086908c90600401613041565b600060405180830381600087803b158015610fd257600080fd5b505af1158015610fe6573d6000803e3d6000fd5b505060408051848152602081018b90523393508b92507fc57bbb2ad97a70f3bec5ba8cfb0689c500c77bd3b579502e9c50d682a6a76b0d910160405180910390a350505050505061103660018055565b5050565b611042612844565b61104c6000612871565b565b61105661281a565b6002546040516331a9108f60e11b81526004810186905233916001600160a01b031690636352211e90602401602060405180830381865afa15801561109f573d6000803e3d6000fd5b505050506040513d601f19601f820116820180604052508101906110c39190612e0b565b6001600160a01b0316146110e95760405162461bcd60e51b815260040161067890612e28565b60008481526007602052604090205460ff16156111485760405162461bcd60e51b815260206004820152601c60248201527f4361726420616c726561647920696e20616374697665207472616465000000006044820152606401610678565b600083511161118e5760405162461bcd60e51b815260206004820152601260248201527110d85c99081b985b59481c995c5d5a5c995960721b6044820152606401610678565b600082116111de5760405162461bcd60e51b815260206004820152601c60248201527f4c6576656c206d7573742062652067726561746572207468616e2030000000006044820152606401610678565b60008151116112215760405162461bcd60e51b815260206004820152600f60248201526e14985c9a5d1e481c995c5d5a5c9959608a1b6044820152606401610678565b60025460405163020604bf60e21b81526004810186905230916001600160a01b03169063081812fc90602401602060405180830381865afa15801561126a573d6000803e3d6000fd5b505050506040513d601f19601f8201168201806040525081019061128e9190612e0b565b6001600160a01b03161480611310575060025460405163e985e9c560e01b81523360048201523060248201526001600160a01b039091169063e985e9c590604401602060405180830381865afa1580156112ec573d6000803e3d6000fd5b505050506040513d601f19601f820116820180604052508101906113109190612fd9565b6113575760405162461bcd60e51b815260206004820152601860248201527713585c9ad95d1c1b1858d9481b9bdd08185c1c1c9bdd995960421b6044820152606401610678565b600254604051636a24447f60e11b815260048101869052600091829182916001600160a01b03169063d44888fe90602401600060405180830381865afa1580156113a5573d6000803e3d6000fd5b505050506040513d6000823e601f3d908101601f191682016040526113cd9190810190612eef565b5092509250925085805190602001208380519060200120036114315760405162461bcd60e51b815260206004820152601a60248201527f43616e6e6f74207472616465207468652073616d6520636172640000000000006044820152606401610678565b83805190602001208280519060200120146114ab5760405162461bcd60e51b815260206004820152603460248201527f4f666665726564206361726420726172697479206d757374206d617463682072604482015273657175657374656420636172642072617269747960601b6064820152608401610678565b8481146115155760405162461bcd60e51b815260206004820152603260248201527f4f6666657265642063617264206c6576656c206d757374206d617463682072656044820152711c5d595cdd19590818d85c99081b195d995b60721b6064820152608401610678565b6003805460408051610100810182528281523360208083019182528284018d8152606084018d8152608085018d905260a085018c9052600160c086018190524260e0870152600088815260059094529590922084518155925194830180546001600160a01b0319166001600160a01b039096169590951790945592516002820155915192939092908201906115aa90826130b3565b506080820151600482015560a082015160058201906115c990826130b3565b5060c082015160068201805491151560ff1992831617905560e09092015160079182015560008a8152602091909152604081208054909216600117909155600380549161161583612d6a565b9190505550336001600160a01b0316817f9f99c322bafe42f146af74d4d87f82e1ac7d23cd0004af43cf77277842b06dca8a8a8a60405161165893929190613173565b60405180910390a35050505061166d60018055565b50505050565b61167b61281a565b6000818152600660205260409020600581015460ff166116ad5760405162461bcd60e51b815260040161067890612de1565b60028101546001600160a01b031633146117095760405162461bcd60e51b815260206004820152601c60248201527f4e6f742074686520746172676574206f662074686973207472616465000000006044820152606401610678565b6002546004828101546040516331a9108f60e11b81529182015233916001600160a01b031690636352211e90602401602060405180830381865afa158015611755573d6000803e3d6000fd5b505050506040513d601f19601f820116820180604052508101906117799190612e0b565b6001600160a01b0316146117db5760405162461bcd60e51b8152602060048201526024808201527f596f75206e6f206c6f6e676572206f776e20746865207265717565737465642060448201526318d85c9960e21b6064820152608401610678565b600181015460025460038301546040516331a9108f60e11b815260048101919091526001600160a01b039283169290911690636352211e90602401602060405180830381865afa158015611833573d6000803e3d6000fd5b505050506040513d601f19601f820116820180604052508101906118579190612e0b565b6001600160a01b03161461187d5760405162461bcd60e51b815260040161067890612e5f565b60025460048281015460405163020604bf60e21b81529182015230916001600160a01b03169063081812fc90602401602060405180830381865afa1580156118c9573d6000803e3d6000fd5b505050506040513d601f19601f820116820180604052508101906118ed9190612e0b565b6001600160a01b0316148061196f575060025460405163e985e9c560e01b81523360048201523060248201526001600160a01b039091169063e985e9c590604401602060405180830381865afa15801561194b573d6000803e3d6000fd5b505050506040513d601f19601f8201168201806040525081019061196f9190612fd9565b61198b5760405162461bcd60e51b815260040161067890612ffb565b6001810154600382015460048084015460058501805460ff199081169091556000848152600760205260409081902080549092169091556002549051632142170760e11b81526001600160a01b0395861695929391909216916342842e0e916119fa9187913391889101613041565b600060405180830381600087803b158015611a1457600080fd5b505af1158015611a28573d6000803e3d6000fd5b5050600254604051632142170760e11b81526001600160a01b0390911692506342842e0e9150611a6090339087908690600401613041565b600060405180830381600087803b158015611a7a57600080fd5b505af1158015611a8e573d6000803e3d6000fd5b505060408051858152602081018590523393508892507f2c71e3461ad41270b748ba379619bb63ff5174a32bb7e528346b2bb6643a68f5910160405180910390a35050505061072d60018055565b60606000805b600354811015611b4e576000818152600560205260409020600101546001600160a01b038581169116148015611b29575060008181526005602052604090206006015460ff165b15611b3c5781611b3881612d6a565b9250505b80611b4681612d6a565b915050611ae2565b5060008167ffffffffffffffff811115611b6a57611b6a612bf9565b604051908082528060200260200182016040528015611ba357816020015b611b906128c1565b815260200190600190039081611b885790505b5090506000805b600354811015610a5a576000818152600560205260409020600101546001600160a01b038781169116148015611bf1575060008181526005602052604090206006015460ff165b15611db4576000818152600560209081526040918290208251610100810184528154815260018201546001600160a01b031692810192909252600281015492820192909252600382018054919291606084019190611c4e90612d91565b80601f0160208091040260200160405190810160405280929190818152602001828054611c7a90612d91565b8015611cc75780601f10611c9c57610100808354040283529160200191611cc7565b820191906000526020600020905b815481529060010190602001808311611caa57829003601f168201915b5050505050815260200160048201548152602001600582018054611cea90612d91565b80601f0160208091040260200160405190810160405280929190818152602001828054611d1690612d91565b8015611d635780601f10611d3857610100808354040283529160200191611d63565b820191906000526020600020905b815481529060010190602001808311611d4657829003601f168201915b5050509183525050600682015460ff16151560208201526007909101546040909101528351849084908110611d9a57611d9a612dcb565b60200260200101819052508180611db090612d6a565b9250505b80611dbe81612d6a565b915050611baa565b60606000805b600454811015611e38576000818152600660205260409020600201546001600160a01b038581169116148015611e13575060008181526006602052604090206005015460ff165b15611e265781611e2281612d6a565b9250505b80611e3081612d6a565b915050611dcc565b5060008167ffffffffffffffff811115611e5457611e54612bf9565b604051908082528060200260200182016040528015611e8d57816020015b611e7a612911565b815260200190600190039081611e725790505b5090506000805b600454811015610a5a576000818152600660205260409020600201546001600160a01b038781169116148015611edb575060008181526006602052604090206005015460ff165b15611f7d57600081815260066020818152604092839020835160e0810185528154815260018201546001600160a01b03908116938201939093526002820154909216938201939093526003830154606082015260048301546080820152600583015460ff16151560a082015291015460c08201528351849084908110611f6357611f63612dcb565b60200260200101819052508180611f7990612d6a565b9250505b80611f8781612d6a565b915050611e94565b611f9761281a565b6000818152600660205260409020600581015460ff16611fc95760405162461bcd60e51b815260040161067890612de1565b60018101546001600160a01b0316331480611ff0575060028101546001600160a01b031633145b61202d5760405162461bcd60e51b815260206004820152600e60248201526d139bdd08185d5d1a1bdc9a5e995960921b6044820152606401610678565b60058101805460ff1990811690915560038201546000908152600760205260408082208054909316909255905183917f3516c154eb5d60481910d47354210836c45efcf8e35dfe671c037afaf599013591a25061072d60018055565b61209161281a565b6001600160a01b0383166120e05760405162461bcd60e51b8152602060048201526016602482015275496e76616c696420746172676574206164647265737360501b6044820152606401610678565b336001600160a01b038416036121385760405162461bcd60e51b815260206004820152601a60248201527f43616e6e6f74207472616465207769746820796f757273656c660000000000006044820152606401610678565b6002546040516331a9108f60e11b81526004810184905233916001600160a01b031690636352211e90602401602060405180830381865afa158015612181573d6000803e3d6000fd5b505050506040513d601f19601f820116820180604052508101906121a59190612e0b565b6001600160a01b0316146121cb5760405162461bcd60e51b815260040161067890612e28565b60008281526007602052604090205460ff161561222a5760405162461bcd60e51b815260206004820152601c60248201527f4361726420616c726561647920696e20616374697665207472616465000000006044820152606401610678565b6002546040516331a9108f60e11b8152600481018390526001600160a01b03858116921690636352211e90602401602060405180830381865afa158015612275573d6000803e3d6000fd5b505050506040513d601f19601f820116820180604052508101906122999190612e0b565b6001600160a01b0316146122fa5760405162461bcd60e51b815260206004820152602260248201527f54617267657420646f6573206e6f74206f776e207265717565737465642063616044820152611c9960f21b6064820152608401610678565b60025460405163020604bf60e21b81526004810184905230916001600160a01b03169063081812fc90602401602060405180830381865afa158015612343573d6000803e3d6000fd5b505050506040513d601f19601f820116820180604052508101906123679190612e0b565b6001600160a01b031614806123e9575060025460405163e985e9c560e01b81523360048201523060248201526001600160a01b039091169063e985e9c590604401602060405180830381865afa1580156123c5573d6000803e3d6000fd5b505050506040513d601f19601f820116820180604052508101906123e99190612fd9565b6124305760405162461bcd60e51b815260206004820152601860248201527713585c9ad95d1c1b1858d9481b9bdd08185c1c1c9bdd995960421b6044820152606401610678565b600254604051636a24447f60e11b815260048101849052600091829182916001600160a01b03169063d44888fe90602401600060405180830381865afa15801561247e573d6000803e3d6000fd5b505050506040513d6000823e601f3d908101601f191682016040526124a69190810190612eef565b50600254604051636a24447f60e11b8152600481018990529396509194509250600091829182916001600160a01b039091169063d44888fe90602401600060405180830381865afa1580156124ff573d6000803e3d6000fd5b505050506040513d6000823e601f3d908101601f191682016040526125279190810190612eef565b50925092509250828051906020012086805190602001200361258b5760405162461bcd60e51b815260206004820152601a60248201527f43616e6e6f74207472616465207468652073616d6520636172640000000000006044820152606401610678565b81805190602001208580519060200120146125e85760405162461bcd60e51b815260206004820152601f60248201527f4361726473206d7573742068617665207468652073616d6520726172697479006044820152606401610678565b8084146126375760405162461bcd60e51b815260206004820152601e60248201527f4361726473206d7573742068617665207468652073616d65206c6576656c00006044820152606401610678565b600060045490506040518060e00160405280828152602001336001600160a01b031681526020018b6001600160a01b031681526020018a815260200189815260200160011515815260200142815250600660008381526020019081526020016000206000820151816000015560208201518160010160006101000a8154816001600160a01b0302191690836001600160a01b0316021790555060408201518160020160006101000a8154816001600160a01b0302191690836001600160a01b03160217905550606082015181600301556080820151816004015560a08201518160050160006101000a81548160ff02191690831515021790555060c082015181600601559050506001600760008b815260200190815260200160002060006101000a81548160ff0219169083151502179055506004600081548092919061277d90612d6a565b9091555050604080518a8152602081018a90526001600160a01b038c1691339184917fa43b26cd8d554c8a6850be2ff0727ada2634b10fcb30f8b1de2c7bef1329cea8910160405180910390a4505050505050506127da60018055565b505050565b6127e7612844565b6001600160a01b03811661281157604051631e4fbdf760e01b815260006004820152602401610678565b61072d81612871565b60026001540361283d57604051633ee5aeb560e01b815260040160405180910390fd5b6002600155565b6000546001600160a01b0316331461104c5760405163118cdaa760e01b8152336004820152602401610678565b600080546001600160a01b038381166001600160a01b0319831681178455604051919092169283917f8be0079c531659141344cd1fd0a4f28419497f9722a3daafe3b4186f6b6457e09190a35050565b6040518061010001604052806000815260200160006001600160a01b0316815260200160008152602001606081526020016000815260200160608152602001600015158152602001600081525090565b6040518060e001604052806000815260200160006001600160a01b0316815260200160006001600160a01b031681526020016000815260200160008152602001600015158152602001600081525090565b60005b8381101561297d578181015183820152602001612965565b50506000910152565b6000815180845261299e816020860160208601612962565b601f01601f19169290920160200192915050565b60006020808301818452808551808352604092508286019150828160051b87010184880160005b83811015612a8357888303603f19018552815180518452878101516001600160a01b03168885015286810151878501526060808201516101008287018190529190612a2683880182612986565b92505050608080830151818701525060a08083015186830382880152612a4c8382612986565b9250505060c080830151612a638288018215159052565b505060e091820151949091019390935293860193908601906001016129d9565b509098975050505050505050565b600060208284031215612aa357600080fd5b5035919050565b8881526001600160a01b03881660208201526040810187905261010060608201819052600090612adc83820189612986565b905086608084015282810360a0840152612af68187612986565b94151560c0840152505060e001529695505050505050565b6001600160a01b038116811461072d57600080fd5b600060208284031215612b3557600080fd5b8135612b4081612b0e565b9392505050565b602080825282518282018190526000919060409081850190868401855b82811015612bca57815180518552868101516001600160a01b0390811688870152868201511686860152606080820151908601526080808201519086015260a08082015115159086015260c0908101519085015260e09093019290850190600101612b64565b5091979650505050505050565b60008060408385031215612bea57600080fd5b50508035926020909101359150565b634e487b7160e01b600052604160045260246000fd5b604051601f8201601f1916810167ffffffffffffffff81118282101715612c3857612c38612bf9565b604052919050565b600067ffffffffffffffff821115612c5a57612c5a612bf9565b50601f01601f191660200190565b600082601f830112612c7957600080fd5b8135612c8c612c8782612c40565b612c0f565b818152846020838601011115612ca157600080fd5b816020850160208301376000918101602001919091529392505050565b60008060008060808587031215612cd457600080fd5b84359350602085013567ffffffffffffffff80821115612cf357600080fd5b612cff88838901612c68565b9450604087013593506060870135915080821115612d1c57600080fd5b50612d2987828801612c68565b91505092959194509250565b600080600060608486031215612d4a57600080fd5b8335612d5581612b0e565b95602085013595506040909401359392505050565b600060018201612d8a57634e487b7160e01b600052601160045260246000fd5b5060010190565b600181811c90821680612da557607f821691505b602082108103612dc557634e487b7160e01b600052602260045260246000fd5b50919050565b634e487b7160e01b600052603260045260246000fd5b60208082526010908201526f5472616465206e6f742061637469766560801b604082015260600190565b600060208284031215612e1d57600080fd5b8151612b4081612b0e565b60208082526019908201527f4e6f74206f776e6572206f66206f666665726564206361726400000000000000604082015260600190565b60208082526023908201527f43726561746f72206e6f206c6f6e676572206f776e73206f6666657265642063604082015262185c9960ea1b606082015260800190565b600082601f830112612eb357600080fd5b8151612ec1612c8782612c40565b818152846020838601011115612ed657600080fd5b612ee7826020830160208701612962565b949350505050565b60008060008060808587031215612f0557600080fd5b845167ffffffffffffffff80821115612f1d57600080fd5b612f2988838901612ea2565b95506020870151915080821115612f3f57600080fd5b50612f4c87828801612ea2565b604087015160609097015195989097509350505050565b6000808354612f7181612d91565b60018281168015612f895760018114612f9e57612fcd565b60ff1984168752821515830287019450612fcd565b8760005260208060002060005b85811015612fc45781548a820152908401908201612fab565b50505082870194505b50929695505050505050565b600060208284031215612feb57600080fd5b81518015158114612b4057600080fd5b60208082526026908201527f4d61726b6574706c616365206e6f7420617070726f76656420666f7220796f756040820152651c8818d85c9960d21b606082015260800190565b6001600160a01b039384168152919092166020820152604081019190915260600190565b601f8211156127da57600081815260208120601f850160051c8101602086101561308c5750805b601f850160051c820191505b818110156130ab57828155600101613098565b505050505050565b815167ffffffffffffffff8111156130cd576130cd612bf9565b6130e1816130db8454612d91565b84613065565b602080601f83116001811461311657600084156130fe5750858301515b600019600386901b1c1916600185901b1785556130ab565b600085815260208120601f198616915b8281101561314557888601518255948401946001909101908401613126565b50858210156131635787850151600019600388901b60f8161c191681555b5050505050600190811b01905550565b83815260606020820152600061318c6060830185612986565b905082604083015294935050505056fea26469706673582212203103ba4340ef1de052f22caadee120d29d09c3a036d3ab70e6742a73b50b649564736f6c63430008140033",
  "linkReferences": {},
  "deployedLinkReferences": {}
}