{
  "_format": "hh-sol-artifact-1",
  "contractName": "Marketplace",
  "sourceName": "contracts/Marketplace.sol",
  "abi": [
    {
      "inputs": [
        {
          "internalType": "address",
          "name": "_arenaCardsAddress",
          "type": "address"
        }
      ],
      "stateMutability": "nonpayable",
      "type": "constructor"
    },
    {
      "inputs": [
        {
          "internalType": "address",
          "name": "owner",
          "type": "address"
        }
      ],
      "name": "OwnableInvalidOwner",
      "type": "error"
    },
    {
      "inputs": [
        {
          "internalType": "address",
          "name": "account",
          "type": "address"
        }
      ],
      "name": "OwnableUnauthorizedAccount",
      "type": "error"
    },
    {
      "inputs": [],
      "name": "ReentrancyGuardReentrantCall",
      "type": "error"
    },
    {
      "anonymous": false,
      "inputs": [
        {
          "indexed": true,
          "internalType": "address",
          "name": "previousOwner",
          "type": "address"
        },
        {
          "indexed": true,
          "internalType": "address",
          "name": "newOwner",
          "type": "address"
        }
      ],
      "name": "OwnershipTransferred",
      "type": "event"
    },
    {
      "anonymous": false,
      "inputs": [
        {
          "indexed": true,
          "internalType": "uint256",
          "name": "tradeId",
          "type": "uint256"
        },
        {
          "indexed": true,
          "internalType": "address",
          "name": "acceptor",
          "type": "address"
        },
        {
          "indexed": false,
          "internalType": "uint256",
          "name": "offeredTokenId",
          "type": "uint256"
        },
        {
          "indexed": false,
          "internalType": "uint256",
          "name": "requestedTokenId",
          "type": "uint256"
        }
      ],
      "name": "TradeAccepted",
      "type": "event"
    },
    {
      "anonymous": false,
      "inputs": [
        {
          "indexed": true,
          "internalType": "uint256",
          "name": "tradeId",
          "type": "uint256"
        }
      ],
      "name": "TradeCancelled",
      "type": "event"
    },
    {
      "anonymous": false,
      "inputs": [
        {
          "indexed": true,
          "internalType": "uint256",
          "name": "tradeId",
          "type": "uint256"
        },
        {
          "indexed": true,
          "internalType": "address",
          "name": "creator",
          "type": "address"
        },
        {
          "indexed": false,
          "internalType": "uint256",
          "name": "offeredTokenId",
          "type": "uint256"
        },
        {
          "indexed": false,
          "internalType": "uint256",
          "name": "requestedTokenId",
          "type": "uint256"
        }
      ],
      "name": "TradeCreated",
      "type": "event"
    },
    {
      "inputs": [
        {
          "internalType": "uint256",
          "name": "tradeId",
          "type": "uint256"
        }
      ],
      "name": "acceptTrade",
      "outputs": [],
      "stateMutability": "nonpayable",
      "type": "function"
    },
    {
      "inputs": [],
      "name": "arenaCards",
      "outputs": [
        {
          "internalType": "contract IERC721",
          "name": "",
          "type": "address"
        }
      ],
      "stateMutability": "view",
      "type": "function"
    },
    {
      "inputs": [
        {
          "internalType": "uint256",
          "name": "tradeId",
          "type": "uint256"
        }
      ],
      "name": "cancelTrade",
      "outputs": [],
      "stateMutability": "nonpayable",
      "type": "function"
    },
    {
      "inputs": [
        {
          "internalType": "uint256",
          "name": "offeredTokenId",
          "type": "uint256"
        },
        {
          "internalType": "uint256",
          "name": "requestedTokenId",
          "type": "uint256"
        }
      ],
      "name": "createTrade",
      "outputs": [],
      "stateMutability": "nonpayable",
      "type": "function"
    },
    {
      "inputs": [],
      "name": "getActiveTrades",
      "outputs": [
        {
          "components": [
            {
              "internalType": "uint256",
              "name": "tradeId",
              "type": "uint256"
            },
            {
              "internalType": "address",
              "name": "creator",
              "type": "address"
            },
            {
              "internalType": "uint256",
              "name": "offeredTokenId",
              "type": "uint256"
            },
            {
              "internalType": "uint256",
              "name": "requestedTokenId",
              "type": "uint256"
            },
            {
              "internalType": "bool",
              "name": "isActive",
              "type": "bool"
            },
            {
              "internalType": "uint256",
              "name": "createdAt",
              "type": "uint256"
            }
          ],
          "internalType": "struct Marketplace.Trade[]",
          "name": "",
          "type": "tuple[]"
        }
      ],
      "stateMutability": "view",
      "type": "function"
    },
    {
      "inputs": [
        {
          "internalType": "address",
          "name": "user",
          "type": "address"
        }
      ],
      "name": "getUserTrades",
      "outputs": [
        {
          "components": [
            {
              "internalType": "uint256",
              "name": "tradeId",
              "type": "uint256"
            },
            {
              "internalType": "address",
              "name": "creator",
              "type": "address"
            },
            {
              "internalType": "uint256",
              "name": "offeredTokenId",
              "type": "uint256"
            },
            {
              "internalType": "uint256",
              "name": "requestedTokenId",
              "type": "uint256"
            },
            {
              "internalType": "bool",
              "name": "isActive",
              "type": "bool"
            },
            {
              "internalType": "uint256",
              "name": "createdAt",
              "type": "uint256"
            }
          ],
          "internalType": "struct Marketplace.Trade[]",
          "name": "",
          "type": "tuple[]"
        }
      ],
      "stateMutability": "view",
      "type": "function"
    },
    {
      "inputs": [
        {
          "internalType": "uint256",
          "name": "tokenId",
          "type": "uint256"
        }
      ],
      "name": "isCardInTrade",
      "outputs": [
        {
          "internalType": "bool",
          "name": "",
          "type": "bool"
        }
      ],
      "stateMutability": "view",
      "type": "function"
    },
    {
      "inputs": [],
      "name": "owner",
      "outputs": [
        {
          "internalType": "address",
          "name": "",
          "type": "address"
        }
      ],
      "stateMutability": "view",
      "type": "function"
    },
    {
      "inputs": [],
      "name": "renounceOwnership",
      "outputs": [],
      "stateMutability": "nonpayable",
      "type": "function"
    },
    {
      "inputs": [
        {
          "internalType": "uint256",
          "name": "",
          "type": "uint256"
        }
      ],
      "name": "tokenInTrade",
      "outputs": [
        {
          "internalType": "bool",
          "name": "",
          "type": "bool"
        }
      ],
      "stateMutability": "view",
      "type": "function"
    },
    {
      "inputs": [],
      "name": "tradeCounter",
      "outputs": [
        {
          "internalType": "uint256",
          "name": "",
          "type": "uint256"
        }
      ],
      "stateMutability": "view",
      "type": "function"
    },
    {
      "inputs": [
        {
          "internalType": "uint256",
          "name": "",
          "type": "uint256"
        }
      ],
      "name": "trades",
      "outputs": [
        {
          "internalType": "uint256",
          "name": "tradeId",
          "type": "uint256"
        },
        {
          "internalType": "address",
          "name": "creator",
          "type": "address"
        },
        {
          "internalType": "uint256",
          "name": "offeredTokenId",
          "type": "uint256"
        },
        {
          "internalType": "uint256",
          "name": "requestedTokenId",
          "type": "uint256"
        },
        {
          "internalType": "bool",
          "name": "isActive",
          "type": "bool"
        },
        {
          "internalType": "uint256",
          "name": "createdAt",
          "type": "uint256"
        }
      ],
      "stateMutability": "view",
      "type": "function"
    },
    {
      "inputs": [
        {
          "internalType": "address",
          "name": "newOwner",
          "type": "address"
        }
      ],
      "name": "transferOwnership",
      "outputs": [],
      "stateMutability": "nonpayable",
      "type": "function"
    }
  ],
  "bytecode": "0x608060405234801561001057600080fd5b506040516113b43803806113b483398101604081905261002f916100d8565b338061005557604051631e4fbdf760e01b81526000600482015260240160405180910390fd5b61005e81610088565b5060018055600280546001600160a01b0319166001600160a01b0392909216919091179055610108565b600080546001600160a01b038381166001600160a01b0319831681178455604051919092169283917f8be0079c531659141344cd1fd0a4f28419497f9722a3daafe3b4186f6b6457e09190a35050565b6000602082840312156100ea57600080fd5b81516001600160a01b038116811461010157600080fd5b9392505050565b61129d806101176000396000f3fe608060405234801561001057600080fd5b50600436106100cf5760003560e01c80638da5cb5b1161008c578063a1a23d8411610066578063a1a23d8414610212578063ecb9fec314610245578063f2fde38b14610258578063fdbe9a351461026b57600080fd5b80638da5cb5b146101db578063927c7742146101ec57806396463fc6146101ff57600080fd5b80630954d6dc146100d457806309ec6cc7146100f25780631e6c598e1461010757806343ea597714610191578063660d15b5146101bc578063715018a6146101d3575b600080fd5b6100dc61028e565b6040516100e991906110de565b60405180910390f35b610105610100366004611161565b610405565b005b61015a610115366004611161565b600460208190526000918252604090912080546001820154600283015460038401549484015460059094015492946001600160a01b0390921693909260ff9091169086565b604080519687526001600160a01b0390951660208701529385019290925260608401521515608083015260a082015260c0016100e9565b6002546101a4906001600160a01b031681565b6040516001600160a01b0390911681526020016100e9565b6101c560035481565b6040519081526020016100e9565b610105610518565b6000546001600160a01b03166101a4565b6100dc6101fa36600461118f565b61052c565b61010561020d3660046111b3565b6106f4565b610235610220366004611161565b60056020526000908152604090205460ff1681565b60405190151581526020016100e9565b610105610253366004611161565b610aa8565b61010561026636600461118f565b610fbb565b610235610279366004611161565b60009081526005602052604090205460ff1690565b60606000805b6003548110156102d9576000818152600460208190526040909120015460ff16156102c757816102c3816111d5565b9250505b806102d1816111d5565b915050610294565b5060008167ffffffffffffffff8111156102f5576102f56111fc565b60405190808252806020026020018201604052801561032e57816020015b61031b61109d565b8152602001906001900390816103135790505b5090506000805b6003548110156103fc576000818152600460208190526040909120015460ff16156103ea57600081815260046020818152604092839020835160c0810185528154815260018201546001600160a01b031692810192909252600281015493820193909352600383015460608201529082015460ff161515608082015260059091015460a082015283518490849081106103d0576103d0611212565b602002602001018190525081806103e6906111d5565b9250505b806103f4816111d5565b915050610335565b50909392505050565b61040d610ff6565b60008181526004602081905260409091209081015460ff166104695760405162461bcd60e51b815260206004820152601060248201526f5472616465206e6f742061637469766560801b60448201526064015b60405180910390fd5b60018101546001600160a01b031633146104b95760405162461bcd60e51b81526020600482015260116024820152702737ba103a3930b2329031b932b0ba37b960791b6044820152606401610460565b60048101805460ff1990811690915560028201546000908152600560205260408082208054909316909255905183917f4e02dcf02d8510f6c8a6878a3c54ae6e2bfbf552df29221d7a1eed173a6b1ae791a25061051560018055565b50565b610520611020565b61052a600061104d565b565b60606000805b60035481101561059f576000818152600460205260409020600101546001600160a01b03858116911614801561057a57506000818152600460208190526040909120015460ff165b1561058d5781610589816111d5565b9250505b80610597816111d5565b915050610532565b5060008167ffffffffffffffff8111156105bb576105bb6111fc565b6040519080825280602002602001820160405280156105f457816020015b6105e161109d565b8152602001906001900390816105d95790505b5090506000805b6003548110156106ea576000818152600460205260409020600101546001600160a01b03878116911614801561064357506000818152600460208190526040909120015460ff165b156106d857600081815260046020818152604092839020835160c0810185528154815260018201546001600160a01b031692810192909252600281015493820193909352600383015460608201529082015460ff161515608082015260059091015460a082015283518490849081106106be576106be611212565b602002602001018190525081806106d4906111d5565b9250505b806106e2816111d5565b9150506105fb565b5090949350505050565b6106fc610ff6565b6002546040516331a9108f60e11b81526004810184905233916001600160a01b031690636352211e90602401602060405180830381865afa158015610745573d6000803e3d6000fd5b505050506040513d601f19601f820116820180604052508101906107699190611228565b6001600160a01b0316146107bf5760405162461bcd60e51b815260206004820152601960248201527f4e6f74206f776e6572206f66206f6666657265642063617264000000000000006044820152606401610460565b60008281526005602052604090205460ff161561081e5760405162461bcd60e51b815260206004820152601c60248201527f4361726420616c726561647920696e20616374697665207472616465000000006044820152606401610460565b8082036108665760405162461bcd60e51b815260206004820152601660248201527510d85b9b9bdd081d1c985919481cd85b594818d85c9960521b6044820152606401610460565b60025460405163020604bf60e21b81526004810184905230916001600160a01b03169063081812fc90602401602060405180830381865afa1580156108af573d6000803e3d6000fd5b505050506040513d601f19601f820116820180604052508101906108d39190611228565b6001600160a01b03161480610955575060025460405163e985e9c560e01b81523360048201523060248201526001600160a01b039091169063e985e9c590604401602060405180830381865afa158015610931573d6000803e3d6000fd5b505050506040513d601f19601f820116820180604052508101906109559190611245565b6109a15760405162461bcd60e51b815260206004820152601860248201527f4d61726b6574706c616365206e6f7420617070726f76656400000000000000006044820152606401610460565b600380546040805160c081018252828152336020808301918252828401888152606084018881526001608086018181524260a0880190815260008a815260048088528a822099518a55975189850180546001600160a01b03929092166001600160a01b0319909216919091179055945160028901559251878b015551948601805495151560ff19968716179055905160059586015589825293909152928320805490911690911790558254919290610a58836111d5565b90915550506040805184815260208101849052339183917fd0e9aa5556e03c447575bd31d7a883384c075015de0184785193f025fbfd5451910160405180910390a350610aa460018055565b5050565b610ab0610ff6565b60008181526004602081905260409091209081015460ff16610b075760405162461bcd60e51b815260206004820152601060248201526f5472616465206e6f742061637469766560801b6044820152606401610460565b6001810154336001600160a01b0390911603610b655760405162461bcd60e51b815260206004820152601760248201527f43616e6e6f7420616363657074206f776e2074726164650000000000000000006044820152606401610460565b60025460038201546040516331a9108f60e11b8152600481019190915233916001600160a01b031690636352211e90602401602060405180830381865afa158015610bb4573d6000803e3d6000fd5b505050506040513d601f19601f82011682018060405250810190610bd89190611228565b6001600160a01b031614610c2e5760405162461bcd60e51b815260206004820152601b60248201527f4e6f74206f776e6572206f6620726571756573746564206361726400000000006044820152606401610460565b600181015460028054908301546040516331a9108f60e11b815260048101919091526001600160a01b039283169290911690636352211e90602401602060405180830381865afa158015610c86573d6000803e3d6000fd5b505050506040513d601f19601f82011682018060405250810190610caa9190611228565b6001600160a01b031614610d0c5760405162461bcd60e51b815260206004820152602360248201527f43726561746f72206e6f206c6f6e676572206f776e73206f6666657265642063604482015262185c9960ea1b6064820152608401610460565b600254600382015460405163020604bf60e21b8152600481019190915230916001600160a01b03169063081812fc90602401602060405180830381865afa158015610d5b573d6000803e3d6000fd5b505050506040513d601f19601f82011682018060405250810190610d7f9190611228565b6001600160a01b03161480610e01575060025460405163e985e9c560e01b81523360048201523060248201526001600160a01b039091169063e985e9c590604401602060405180830381865afa158015610ddd573d6000803e3d6000fd5b505050506040513d601f19601f82011682018060405250810190610e019190611245565b610e5c5760405162461bcd60e51b815260206004820152602660248201527f4d61726b6574706c616365206e6f7420617070726f76656420666f7220796f756044820152651c8818d85c9960d21b6064820152608401610460565b600181015460028083015460038401546004808601805460ff1990811690915560008481526005602052604090819020805490921690915593549351632142170760e11b81526001600160a01b0395861691810182905233602482015260448101849052909492939192909116906342842e0e90606401600060405180830381600087803b158015610eed57600080fd5b505af1158015610f01573d6000803e3d6000fd5b5050600254604051632142170760e11b81523360048201526001600160a01b0387811660248301526044820186905290911692506342842e0e9150606401600060405180830381600087803b158015610f5957600080fd5b505af1158015610f6d573d6000803e3d6000fd5b505060408051858152602081018590523393508892507fc57bbb2ad97a70f3bec5ba8cfb0689c500c77bd3b579502e9c50d682a6a76b0d910160405180910390a35050505061051560018055565b610fc3611020565b6001600160a01b038116610fed57604051631e4fbdf760e01b815260006004820152602401610460565b6105158161104d565b60026001540361101957604051633ee5aeb560e01b815260040160405180910390fd5b6002600155565b6000546001600160a01b0316331461052a5760405163118cdaa760e01b8152336004820152602401610460565b600080546001600160a01b038381166001600160a01b0319831681178455604051919092169283917f8be0079c531659141344cd1fd0a4f28419497f9722a3daafe3b4186f6b6457e09190a35050565b6040518060c001604052806000815260200160006001600160a01b031681526020016000815260200160008152602001600015158152602001600081525090565b602080825282518282018190526000919060409081850190868401855b8281101561115457815180518552868101516001600160a01b03168786015285810151868601526060808201519086015260808082015115159086015260a0908101519085015260c090930192908501906001016110fb565b5091979650505050505050565b60006020828403121561117357600080fd5b5035919050565b6001600160a01b038116811461051557600080fd5b6000602082840312156111a157600080fd5b81356111ac8161117a565b9392505050565b600080604083850312156111c657600080fd5b50508035926020909101359150565b6000600182016111f557634e487b7160e01b600052601160045260246000fd5b5060010190565b634e487b7160e01b600052604160045260246000fd5b634e487b7160e01b600052603260045260246000fd5b60006020828403121561123a57600080fd5b81516111ac8161117a565b60006020828403121561125757600080fd5b815180151581146111ac57600080fdfea2646970667358221220412e5aa254985f1f8e53dbee0cdb08289d1b07baca1468c6ba46c46fbce6270664736f6c63430008140033",
  "linkReferences": {},
  "deployedLinkReferences": {}
}