{
  "_format": "hh-sol-artifact-1",
  "contractName": "PremiumBooster",
  "sourceName": "contracts/PremiumBooster.sol",
  "abi": [
    {
      "inputs": [
        {
          "internalType": "address",
          "name": "_arenaCardsAddress",
          "type": "address"
        }
      ],
      "stateMutability": "nonpayable",
      "type": "constructor"
    },
    {
      "anonymous": false,
      "inputs": [
        {
          "indexed": true,
          "internalType": "address",
          "name": "user",
          "type": "address"
        },
        {
          "indexed": false,
          "internalType": "uint256",
          "name": "timestamp",
          "type": "uint256"
        },
        {
          "indexed": false,
          "internalType": "uint256",
          "name": "pricePaid",
          "type": "uint256"
        }
      ],
      "name": "BoosterOpened",
      "type": "event"
    },
    {
      "anonymous": false,
      "inputs": [
        {
          "indexed": true,
          "internalType": "address",
          "name": "user",
          "type": "address"
        },
        {
          "indexed": false,
          "internalType": "uint256",
          "name": "tokenId",
          "type": "uint256"
        },
        {
          "indexed": false,
          "internalType": "string",
          "name": "name",
          "type": "string"
        },
        {
          "indexed": false,
          "internalType": "string",
          "name": "rarity",
          "type": "string"
        }
      ],
      "name": "CardMinted",
      "type": "event"
    },
    {
      "anonymous": false,
      "inputs": [
        {
          "indexed": false,
          "internalType": "uint256",
          "name": "newPrice",
          "type": "uint256"
        }
      ],
      "name": "PriceUpdated",
      "type": "event"
    },
    {
      "inputs": [],
      "name": "CARDS_PER_BOOSTER",
      "outputs": [
        {
          "internalType": "uint256",
          "name": "",
          "type": "uint256"
        }
      ],
      "stateMutability": "view",
      "type": "function"
    },
    {
      "inputs": [],
      "name": "arenaCards",
      "outputs": [
        {
          "internalType": "contract ArenaCards",
          "name": "",
          "type": "address"
        }
      ],
      "stateMutability": "view",
      "type": "function"
    },
    {
      "inputs": [],
      "name": "boosterPrice",
      "outputs": [
        {
          "internalType": "uint256",
          "name": "",
          "type": "uint256"
        }
      ],
      "stateMutability": "view",
      "type": "function"
    },
    {
      "inputs": [
        {
          "internalType": "uint256",
          "name": "",
          "type": "uint256"
        }
      ],
      "name": "cardTemplates",
      "outputs": [
        {
          "internalType": "string",
          "name": "name",
          "type": "string"
        },
        {
          "internalType": "string",
          "name": "rarity",
          "type": "string"
        },
        {
          "internalType": "string",
          "name": "imageURI",
          "type": "string"
        }
      ],
      "stateMutability": "view",
      "type": "function"
    },
    {
      "inputs": [],
      "name": "getBoosterPrice",
      "outputs": [
        {
          "internalType": "uint256",
          "name": "",
          "type": "uint256"
        }
      ],
      "stateMutability": "view",
      "type": "function"
    },
    {
      "inputs": [],
      "name": "openBooster",
      "outputs": [],
      "stateMutability": "payable",
      "type": "function"
    },
    {
      "inputs": [],
      "name": "owner",
      "outputs": [
        {
          "internalType": "address",
          "name": "",
          "type": "address"
        }
      ],
      "stateMutability": "view",
      "type": "function"
    },
    {
      "inputs": [
        {
          "internalType": "uint256",
          "name": "newPrice",
          "type": "uint256"
        }
      ],
      "name": "setBoosterPrice",
      "outputs": [],
      "stateMutability": "nonpayable",
      "type": "function"
    },
    {
      "inputs": [
        {
          "internalType": "address",
          "name": "newOwner",
          "type": "address"
        }
      ],
      "name": "transferOwnership",
      "outputs": [],
      "stateMutability": "nonpayable",
      "type": "function"
    },
    {
      "inputs": [],
      "name": "withdraw",
      "outputs": [],
      "stateMutability": "nonpayable",
      "type": "function"
    }
  ],
  "bytecode": "0x608060405266071afd498d00006002553480156200001c57600080fd5b5060405162001c2138038062001c218339810160408190526200003f9162000995565b600080546001600160a01b0383166001600160a01b03199182161790915560018054909116331790556200007262000079565b5062000b37565b600360405180606001604052806040518060400160405280600b81526020016a447261676f6e20446f726560a81b81525081526020016040518060400160405280600a8152602001696c6567656e646169726560b01b81525081526020016040518060600160405280603d8152602001620019e4603d9139905281546001810183556000928352602090922081519192600302019081906200011c908262000a6b565b506020820151600182019062000133908262000a6b565b50604082015160028201906200014a908262000a6b565b505050600360405180606001604052806040518060400160405280601081526020016f141a1bd95b9a5e08125b5b5bdc9d195b60821b81525081526020016040518060400160405280600a8152602001696c6567656e646169726560b01b81525081526020016040518060600160405280603e815260200162001ba4603e913990528154600181018355600092835260209092208151919260030201908190620001f5908262000a6b565b50602082015160018201906200020c908262000a6b565b506040820151600282019062000223908262000a6b565b505050600360405180606001604052806040518060400160405280600e81526020016d21b432bb30b634b2b9102737b4b960911b81525081526020016040518060400160405280600681526020016565706971756560d01b815250815260200160405180608001604052806045815260200162001a9c6045913990528154600181018355600092835260209092208151919260030201908190620002c8908262000a6b565b5060208201516001820190620002df908262000a6b565b5060408201516002820190620002f6908262000a6b565b505050600360405180606001604052806040518060400160405280600f81526020016e4d6167652064657320476c6163657360881b81525081526020016040518060400160405280600681526020016565706971756560d01b815250815260200160405180608001604052806042815260200162001b2060429139905281546001810183556000928352602090922081519192600302019081906200039c908262000a6b565b5060208201516001820190620003b3908262000a6b565b5060408201516002820190620003ca908262000a6b565b505050600360405180606001604052806040518060400160405280601081526020016f417373617373696e2046616e746f6d6560801b81525081526020016040518060400160405280600681526020016565706971756560d01b81525081526020016040518060600160405280603f815260200162001ae1603f91399052815460018101835560009283526020909220815191926003020190819062000471908262000a6b565b506020820151600182019062000488908262000a6b565b50604082015160028201906200049f908262000a6b565b505050600360405180606001604052806040518060400160405280600b81526020016a41726368657220456c666560a81b8152508152602001604051806040016040528060048152602001637261726560e01b815250815260200160405180608001604052806042815260200162001b6260429139905281546001810183556000928352602090922081519192600302019081906200053f908262000a6b565b506020820151600182019062000556908262000a6b565b50604082015160028201906200056d908262000a6b565b505050600360405180606001604052806040518060400160405280600d81526020016c50616c6164696e20536163726560981b8152508152602001604051806040016040528060048152602001637261726560e01b81525081526020016040518060600160405280603e815260200162001a5e603e9139905281546001810183556000928352602090922081519192600302019081906200060f908262000a6b565b506020820151600182019062000626908262000a6b565b50604082015160028201906200063d908262000a6b565b505050600360405180606001604052806040518060400160405280600d81526020016c22393ab4b2329020b731b4b2b760991b8152508152602001604051806040016040528060048152602001637261726560e01b81525081526020016040518060600160405280603d815260200162001a21603d913990528154600181018355600092835260209092208151919260030201908190620006df908262000a6b565b5060208201516001820190620006f6908262000a6b565b50604082015160028201906200070d908262000a6b565b505050600360405180606001604052806040518060400160405280600e81526020016d477565727269657220427261766560901b81525081526020016040518060400160405280600b81526020016a70657520636f6d6d756e6560a81b81525081526020016040518060600160405280603f815260200162001be2603f913990528154600181018355600092835260209092208151919260030201908190620007b7908262000a6b565b5060208201516001820190620007ce908262000a6b565b5060408201516002820190620007e5908262000a6b565b505050600360405180606001604052806040518060400160405280600c81526020016b566f6c657572204167696c6560a01b81525081526020016040518060400160405280600b81526020016a70657520636f6d6d756e6560a81b81525081526020016040518060600160405280603d8152602001620019a7603d9139905281546001810183556000928352602090922081519192600302019081906200088d908262000a6b565b5060208201516001820190620008a4908262000a6b565b5060408201516002820190620008bb908262000a6b565b505050600360405180606001604052806040518060400160405280600b81526020016a507265747265205361676560a81b81525081526020016040518060400160405280600b81526020016a70657520636f6d6d756e6560a81b81525081526020016040518060600160405280603d81526020016200196a603d91399052815460018101835560009283526020909220815191926003020190819062000962908262000a6b565b506020820151600182019062000979908262000a6b565b506040820151600282019062000990908262000a6b565b505050565b600060208284031215620009a857600080fd5b81516001600160a01b0381168114620009c057600080fd5b9392505050565b634e487b7160e01b600052604160045260246000fd5b600181811c90821680620009f257607f821691505b60208210810362000a1357634e487b7160e01b600052602260045260246000fd5b50919050565b601f8211156200099057600081815260208120601f850160051c8101602086101562000a425750805b601f850160051c820191505b8181101562000a635782815560010162000a4e565b505050505050565b81516001600160401b0381111562000a875762000a87620009c7565b62000a9f8162000a988454620009dd565b8462000a19565b602080601f83116001811462000ad7576000841562000abe5750858301515b600019600386901b1c1916600185901b17855562000a63565b600085815260208120601f198616915b8281101562000b085788860151825594840194600190910190840162000ae7565b508582101562000b275787850151600019600388901b60f8161c191681555b5050505050600190811b01905550565b610e238062000b476000396000f3fe6080604052600436106100915760003560e01c80639327253f116100595780639327253f14610136578063af215f981461014b578063ee442eb414610160578063f2fde38b1461018f578063fc263554146101af57600080fd5b806304058165146100965780633ccfd60b146100bf57806343ea5977146100d657806372930dbf1461010e5780638da5cb5b14610116575b600080fd5b3480156100a257600080fd5b506100ac60025481565b6040519081526020015b60405180910390f35b3480156100cb57600080fd5b506100d46101cf565b005b3480156100e257600080fd5b506000546100f6906001600160a01b031681565b6040516001600160a01b0390911681526020016100b6565b6100d4610285565b34801561012257600080fd5b506001546100f6906001600160a01b031681565b34801561014257600080fd5b506002546100ac565b34801561015757600080fd5b506100ac600481565b34801561016c57600080fd5b5061018061017b366004610bc9565b61045c565b6040516100b693929190610c28565b34801561019b57600080fd5b506100d46101aa366004610c6b565b61062e565b3480156101bb57600080fd5b506100d46101ca366004610bc9565b6106c2565b6001546001600160a01b031633146102025760405162461bcd60e51b81526004016101f990610c9b565b60405180910390fd5b47806102475760405162461bcd60e51b81526020600482015260146024820152734e6f2066756e647320746f20776974686472617760601b60448201526064016101f9565b6001546040516001600160a01b039091169082156108fc029083906000818181858888f19350505050158015610281573d6000803e3d6000fd5b5050565b6002543410156102ce5760405162461bcd60e51b8152602060048201526014602482015273125b9cdd59999a58da595b9d081c185e5b595b9d60621b60448201526064016101f9565b600080546040516370a0823160e01b81523360048201526001600160a01b03909116906370a0823190602401602060405180830381865afa158015610317573d6000803e3d6000fd5b505050506040513d601f19601f8201168201806040525081019061033b9190610cbe565b905060008054906101000a90046001600160a01b03166001600160a01b0316637e744a766040518163ffffffff1660e01b8152600401602060405180830381865afa15801561038e573d6000803e3d6000fd5b505050506040513d601f19601f820116820180604052508101906103b29190610cbe565b6103bd600483610ced565b11156104165760405162461bcd60e51b815260206004820152602260248201527f4e6f7420656e6f75676820737061636520666f7220626f6f7374657220636172604482015261647360f01b60648201526084016101f9565b61041f33610727565b6040805142815234602082015233917fe6abaaed90e2df32316646d9e4c6f75e356f1732303fe64bf91d7ff93323bdc1910160405180910390a250565b6003818154811061046c57600080fd5b906000526020600020906003020160009150905080600001805461048f90610d06565b80601f01602080910402602001604051908101604052809291908181526020018280546104bb90610d06565b80156105085780601f106104dd57610100808354040283529160200191610508565b820191906000526020600020905b8154815290600101906020018083116104eb57829003601f168201915b50505050509080600101805461051d90610d06565b80601f016020809104026020016040519081016040528092919081815260200182805461054990610d06565b80156105965780601f1061056b57610100808354040283529160200191610596565b820191906000526020600020905b81548152906001019060200180831161057957829003601f168201915b5050505050908060020180546105ab90610d06565b80601f01602080910402602001604051908101604052809291908181526020018280546105d790610d06565b80156106245780601f106105f957610100808354040283529160200191610624565b820191906000526020600020905b81548152906001019060200180831161060757829003601f168201915b5050505050905083565b6001546001600160a01b031633146106585760405162461bcd60e51b81526004016101f990610c9b565b6001600160a01b0381166106a05760405162461bcd60e51b815260206004820152600f60248201526e496e76616c6964206164647265737360881b60448201526064016101f9565b600180546001600160a01b0319166001600160a01b0392909216919091179055565b6001546001600160a01b031633146106ec5760405162461bcd60e51b81526004016101f990610c9b565b60028190556040518181527f66cbca4f3c64fecf1dcb9ce094abcf7f68c3450a1d4e3a8e917dd621edb4ebe09060200160405180910390a150565b60005b600481101561028157600061073e8261088a565b60005481516020830151604051631a56bb5760e31b81529394506001600160a01b039092169263d2b5dab89261077b928892909190600401610d3a565b600060405180830381600087803b15801561079557600080fd5b505af11580156107a9573d6000803e3d6000fd5b50505050826001600160a01b03167fa27076ba8c7eab72cb8020b9db57d90f231a7f2fb6fb9c2181b711b1559f71c0600160008054906101000a90046001600160a01b03166001600160a01b031663d082e3816040518163ffffffff1660e01b8152600401602060405180830381865afa15801561082b573d6000803e3d6000fd5b505050506040513d601f19601f8201168201806040525081019061084f9190610cbe565b6108599190610d70565b8351602085015160405161086f93929190610d83565b60405180910390a2508061088281610d9c565b91505061072a565b6108ae60405180606001604052806060815260200160608152602001606081525090565b600060646108bb84610b6a565b6108c59190610db5565b90506001811015610ade57600060026108e76108e2866001610ced565b610b6a565b6108f19190610db5565b90506003818154811061090657610906610dd7565b906000526020600020906003020160405180606001604052908160008201805461092f90610d06565b80601f016020809104026020016040519081016040528092919081815260200182805461095b90610d06565b80156109a85780601f1061097d576101008083540402835291602001916109a8565b820191906000526020600020905b81548152906001019060200180831161098b57829003601f168201915b505050505081526020016001820180546109c190610d06565b80601f01602080910402602001604051908101604052809291908181526020018280546109ed90610d06565b8015610a3a5780601f10610a0f57610100808354040283529160200191610a3a565b820191906000526020600020905b815481529060010190602001808311610a1d57829003601f168201915b50505050508152602001600282018054610a5390610d06565b80601f0160208091040260200160405190810160405280929190818152602001828054610a7f90610d06565b8015610acc5780601f10610aa157610100808354040283529160200191610acc565b820191906000526020600020905b815481529060010190602001808311610aaf57829003601f168201915b50505050508152505092505050919050565b6015811015610b0e5760006003610af96108e2866002610ced565b610b039190610db5565b6108f1906002610ced565b603d811015610b3d5760006003610b286108e28683610ced565b610b329190610db5565b6108f1906005610ced565b60006003610b4f6108e2866004610ced565b610b599190610db5565b6108f1906008610ced565b50919050565b600042443384604051602001610bab9493929190938452602084019290925260601b6bffffffffffffffffffffffff19166040830152605482015260740190565b60408051601f19818403018152919052805160209091012092915050565b600060208284031215610bdb57600080fd5b5035919050565b6000815180845260005b81811015610c0857602081850181015186830182015201610bec565b506000602082860101526020601f19601f83011685010191505092915050565b606081526000610c3b6060830186610be2565b8281036020840152610c4d8186610be2565b90508281036040840152610c618185610be2565b9695505050505050565b600060208284031215610c7d57600080fd5b81356001600160a01b0381168114610c9457600080fd5b9392505050565b6020808252600990820152682737ba1037bbb732b960b91b604082015260600190565b600060208284031215610cd057600080fd5b5051919050565b634e487b7160e01b600052601160045260246000fd5b80820180821115610d0057610d00610cd7565b92915050565b600181811c90821680610d1a57607f821691505b602082108103610b6457634e487b7160e01b600052602260045260246000fd5b6001600160a01b0384168152606060208201819052600090610d5e90830185610be2565b8281036040840152610c618185610be2565b81810381811115610d0057610d00610cd7565b838152606060208201526000610d5e6060830185610be2565b600060018201610dae57610dae610cd7565b5060010190565b600082610dd257634e487b7160e01b600052601260045260246000fd5b500690565b634e487b7160e01b600052603260045260246000fdfea2646970667358221220ea193f55532258bcf041f1c626123d3da9aff709bd26a687989b6dd07014aef764736f6c6343000814003368747470733a2f2f7669612e706c616365686f6c6465722e636f6d2f333030783430302f4146454545452f3030303030303f746578743d50726574726568747470733a2f2f7669612e706c616365686f6c6465722e636f6d2f333030783430302f3938464239382f3030303030303f746578743d566f6c65757268747470733a2f2f7669612e706c616365686f6c6465722e636f6d2f333030783430302f4646343530302f4646464646463f746578743d447261676f6e68747470733a2f2f7669612e706c616365686f6c6465722e636f6d2f333030783430302f3332434433322f3030303030303f746578743d44727569646568747470733a2f2f7669612e706c616365686f6c6465722e636f6d2f333030783430302f3030434544312f3030303030303f746578743d50616c6164696e68747470733a2f2f7669612e706c616365686f6c6465722e636f6d2f333030783430302f3830303038302f4646464646463f746578743d43686576616c6965722b4e6f697268747470733a2f2f7669612e706c616365686f6c6465722e636f6d2f333030783430302f3933373044422f4646464646463f746578743d417373617373696e68747470733a2f2f7669612e706c616365686f6c6465722e636f6d2f333030783430302f3431363945312f4646464646463f746578743d4d6167652b476c6163657368747470733a2f2f7669612e706c616365686f6c6465722e636f6d2f333030783430302f3145393046462f4646464646463f746578743d4172636865722b456c666568747470733a2f2f7669612e706c616365686f6c6465722e636f6d2f333030783430302f4646343530302f4646464646463f746578743d50686f656e697868747470733a2f2f7669612e706c616365686f6c6465722e636f6d2f333030783430302f3930454539302f3030303030303f746578743d4775657272696572",
  "linkReferences": {},
  "deployedLinkReferences": {}
}