{
  "_format": "hh-sol-artifact-1",
  "contractName": "Shop",
  "sourceName": "contracts/Shop.sol",
  "abi": [
    {
      "inputs": [
        {
          "internalType": "address",
          "name": "_arenaCardsAddress",
          "type": "address"
        }
      ],
      "stateMutability": "nonpayable",
      "type": "constructor"
    },
    {
      "anonymous": false,
      "inputs": [
        {
          "indexed": false,
          "internalType": "uint256",
          "name": "cardId",
          "type": "uint256"
        },
        {
          "indexed": false,
          "internalType": "string",
          "name": "name",
          "type": "string"
        },
        {
          "indexed": false,
          "internalType": "uint256",
          "name": "price",
          "type": "uint256"
        },
        {
          "indexed": false,
          "internalType": "bool",
          "name": "isSecret",
          "type": "bool"
        }
      ],
      "name": "CardAdded",
      "type": "event"
    },
    {
      "anonymous": false,
      "inputs": [
        {
          "indexed": false,
          "internalType": "uint256",
          "name": "cardId",
          "type": "uint256"
        },
        {
          "indexed": false,
          "internalType": "bool",
          "name": "available",
          "type": "bool"
        }
      ],
      "name": "CardAvailabilityChanged",
      "type": "event"
    },
    {
      "anonymous": false,
      "inputs": [
        {
          "indexed": true,
          "internalType": "address",
          "name": "buyer",
          "type": "address"
        },
        {
          "indexed": false,
          "internalType": "uint256",
          "name": "cardId",
          "type": "uint256"
        },
        {
          "indexed": false,
          "internalType": "string",
          "name": "name",
          "type": "string"
        },
        {
          "indexed": false,
          "internalType": "uint256",
          "name": "price",
          "type": "uint256"
        }
      ],
      "name": "CardPurchased",
      "type": "event"
    },
    {
      "inputs": [],
      "name": "COOLDOWN",
      "outputs": [
        {
          "internalType": "uint256",
          "name": "",
          "type": "uint256"
        }
      ],
      "stateMutability": "view",
      "type": "function"
    },
    {
      "inputs": [
        {
          "internalType": "string",
          "name": "name",
          "type": "string"
        },
        {
          "internalType": "string",
          "name": "rarity",
          "type": "string"
        },
        {
          "internalType": "string",
          "name": "imageURI",
          "type": "string"
        },
        {
          "internalType": "uint256",
          "name": "price",
          "type": "uint256"
        },
        {
          "internalType": "bool",
          "name": "isSecret",
          "type": "bool"
        },
        {
          "internalType": "uint256",
          "name": "maxSupply",
          "type": "uint256"
        }
      ],
      "name": "addCard",
      "outputs": [],
      "stateMutability": "nonpayable",
      "type": "function"
    },
    {
      "inputs": [],
      "name": "arenaCards",
      "outputs": [
        {
          "internalType": "contract ArenaCards",
          "name": "",
          "type": "address"
        }
      ],
      "stateMutability": "view",
      "type": "function"
    },
    {
      "inputs": [
        {
          "internalType": "uint256",
          "name": "cardId",
          "type": "uint256"
        }
      ],
      "name": "buyCard",
      "outputs": [],
      "stateMutability": "nonpayable",
      "type": "function"
    },
    {
      "inputs": [
        {
          "internalType": "address",
          "name": "user",
          "type": "address"
        },
        {
          "internalType": "uint256",
          "name": "cardId",
          "type": "uint256"
        }
      ],
      "name": "canPurchase",
      "outputs": [
        {
          "internalType": "bool",
          "name": "",
          "type": "bool"
        }
      ],
      "stateMutability": "view",
      "type": "function"
    },
    {
      "inputs": [
        {
          "internalType": "uint256",
          "name": "cardId",
          "type": "uint256"
        }
      ],
      "name": "getCard",
      "outputs": [
        {
          "internalType": "string",
          "name": "name",
          "type": "string"
        },
        {
          "internalType": "string",
          "name": "rarity",
          "type": "string"
        },
        {
          "internalType": "string",
          "name": "imageURI",
          "type": "string"
        },
        {
          "internalType": "uint256",
          "name": "price",
          "type": "uint256"
        },
        {
          "internalType": "bool",
          "name": "isSecret",
          "type": "bool"
        },
        {
          "internalType": "bool",
          "name": "available",
          "type": "bool"
        },
        {
          "internalType": "uint256",
          "name": "maxSupply",
          "type": "uint256"
        },
        {
          "internalType": "uint256",
          "name": "minted",
          "type": "uint256"
        }
      ],
      "stateMutability": "view",
      "type": "function"
    },
    {
      "inputs": [],
      "name": "getCardCount",
      "outputs": [
        {
          "internalType": "uint256",
          "name": "",
          "type": "uint256"
        }
      ],
      "stateMutability": "view",
      "type": "function"
    },
    {
      "inputs": [
        {
          "internalType": "address",
          "name": "user",
          "type": "address"
        }
      ],
      "name": "getCooldownRemaining",
      "outputs": [
        {
          "internalType": "uint256",
          "name": "",
          "type": "uint256"
        }
      ],
      "stateMutability": "view",
      "type": "function"
    },
    {
      "inputs": [
        {
          "internalType": "address",
          "name": "",
          "type": "address"
        },
        {
          "internalType": "uint256",
          "name": "",
          "type": "uint256"
        }
      ],
      "name": "hasPurchased",
      "outputs": [
        {
          "internalType": "bool",
          "name": "",
          "type": "bool"
        }
      ],
      "stateMutability": "view",
      "type": "function"
    },
    {
      "inputs": [
        {
          "internalType": "address",
          "name": "",
          "type": "address"
        }
      ],
      "name": "lastPurchase",
      "outputs": [
        {
          "internalType": "uint256",
          "name": "",
          "type": "uint256"
        }
      ],
      "stateMutability": "view",
      "type": "function"
    },
    {
      "inputs": [],
      "name": "owner",
      "outputs": [
        {
          "internalType": "address",
          "name": "",
          "type": "address"
        }
      ],
      "stateMutability": "view",
      "type": "function"
    },
    {
      "inputs": [
        {
          "internalType": "uint256",
          "name": "cardId",
          "type": "uint256"
        },
        {
          "internalType": "bool",
          "name": "available",
          "type": "bool"
        }
      ],
      "name": "setCardAvailability",
      "outputs": [],
      "stateMutability": "nonpayable",
      "type": "function"
    },
    {
      "inputs": [
        {
          "internalType": "uint256",
          "name": "",
          "type": "uint256"
        }
      ],
      "name": "shopCards",
      "outputs": [
        {
          "internalType": "string",
          "name": "name",
          "type": "string"
        },
        {
          "internalType": "string",
          "name": "rarity",
          "type": "string"
        },
        {
          "internalType": "string",
          "name": "imageURI",
          "type": "string"
        },
        {
          "internalType": "uint256",
          "name": "price",
          "type": "uint256"
        },
        {
          "internalType": "bool",
          "name": "isSecret",
          "type": "bool"
        },
        {
          "internalType": "bool",
          "name": "available",
          "type": "bool"
        },
        {
          "internalType": "uint256",
          "name": "maxSupply",
          "type": "uint256"
        },
        {
          "internalType": "uint256",
          "name": "minted",
          "type": "uint256"
        }
      ],
      "stateMutability": "view",
      "type": "function"
    },
    {
      "inputs": [
        {
          "internalType": "address",
          "name": "newOwner",
          "type": "address"
        }
      ],
      "name": "transferOwnership",
      "outputs": [],
      "stateMutability": "nonpayable",
      "type": "function"
    }
  ],
  "bytecode": "0x60806040523480156200001157600080fd5b5060405162001de238038062001de28339810160408190526200003491620003eb565b600080546001600160a01b0383166001600160a01b0319918216179091556001805490911633179055620000676200006e565b506200058e565b620000e06040518060400160405280600b81526020016a447261676f6e20446f726560a81b8152506040518060400160405280600a8152602001696c6567656e646169726560b01b8152506040518060a00160405280606d815260200162001c9b606d9139620f4240600080620002df565b620001576040518060400160405280601081526020016f141a1bd95b9a5e08125b5b5bdc9d195b60821b8152506040518060400160405280600a8152602001696c6567656e646169726560b01b8152506040518060a00160405280606d815260200162001c2e606d9139620f4240600080620002df565b620001d96040518060400160405280601881526020017f4272696365203a204c6520646976696e2073757072656d650000000000000000815250604051806040016040528060078152602001667365637265746560c81b8152506040518060a00160405280606d815260200162001bc1606d9139624c4b4060016032620002df565b6200025b6040518060400160405280601381526020017f5061756c203a204c65206d616c69636965757800000000000000000000000000815250604051806040016040528060078152602001667365637265746560c81b8152506040518060a00160405280606d815260200162001d75606d9139624c4b4060016032620002df565b620002dd6040518060400160405280601881526020017f466c617669656e203a204c65206269656e666169746575720000000000000000815250604051806040016040528060078152602001667365637265746560c81b8152506040518060a00160405280606d815260200162001d08606d9139624c4b4060016032620002df565b565b604080516101008101825287815260208101879052908101859052606081018490528215156080820152600160a0820181905260c08201839052600060e083018190526002805492830181559052815160079091027f405787fa12a823e0f2b7631cc41b3ba8828b3321ca811111fa75cd3aa3bb5ace01908190620003659082620004c2565b50602082015160018201906200037c9082620004c2565b5060408201516002820190620003939082620004c2565b5060608201516003820155608082015160048201805460a085015115156101000261ff00199315159390931661ffff199091161791909117905560c0820151600582015560e090910151600690910155505050505050565b600060208284031215620003fe57600080fd5b81516001600160a01b03811681146200041657600080fd5b9392505050565b634e487b7160e01b600052604160045260246000fd5b600181811c908216806200044857607f821691505b6020821081036200046957634e487b7160e01b600052602260045260246000fd5b50919050565b601f821115620004bd57600081815260208120601f850160051c81016020861015620004985750805b601f850160051c820191505b81811015620004b957828155600101620004a4565b5050505b505050565b81516001600160401b03811115620004de57620004de6200041d565b620004f681620004ef845462000433565b846200046f565b602080601f8311600181146200052e5760008415620005155750858301515b600019600386901b1c1916600185901b178555620004b9565b600085815260208120601f198616915b828110156200055f578886015182559484019460019091019084016200053e565b50858210156200057e5787850151600019600388901b60f8161c191681555b5050505050600190811b01905550565b611623806200059e6000396000f3fe608060405234801561001057600080fd5b50600436106100ea5760003560e01c80638da5cb5b1161008c578063aedd986211610066578063aedd98621461020e578063c70f5eaa14610223578063f2fde38b14610236578063f8e8125a1461024957600080fd5b80638da5cb5b146101e05780639188d312146101f3578063a2724a4d1461020657600080fd5b80635b46900c116100c85780635b46900c1461018b5780635d54322d1461019e57806364209a51146101b15780637d620130146101d857600080fd5b806311923132146100ef578063421da68a1461013257806343ea597714610160575b600080fd5b61011d6100fd366004611039565b600360209081526000928352604080842090915290825290205460ff1681565b60405190151581526020015b60405180910390f35b610152610140366004611063565b60046020526000908152604090205481565b604051908152602001610129565b600054610173906001600160a01b031681565b6040516001600160a01b039091168152602001610129565b610152610199366004611063565b61025c565b61011d6101ac366004611039565b6102c2565b6101c46101bf366004611085565b6105ac565b6040516101299897969594939291906110e4565b600254610152565b600154610173906001600160a01b031681565b6101c4610201366004611085565b6107a5565b610152600081565b61022161021c36600461115c565b610a5e565b005b610221610231366004611085565b610b2d565b610221610244366004611063565b610df7565b61022161025736600461122b565b610e8b565b6001600160a01b0381166000908152600460205260408120546102809082906112ec565b421061028e57506000919050565b6001600160a01b03821660009081526004602052604081205442916102b2916112ec565b6102bc91906112ff565b92915050565b60025460009082106102d6575060006102bc565b6000600283815481106102eb576102eb611312565b90600052602060002090600702016040518061010001604052908160008201805461031590611328565b80601f016020809104026020016040519081016040528092919081815260200182805461034190611328565b801561038e5780601f106103635761010080835404028352916020019161038e565b820191906000526020600020905b81548152906001019060200180831161037157829003601f168201915b505050505081526020016001820180546103a790611328565b80601f01602080910402602001604051908101604052809291908181526020018280546103d390611328565b80156104205780601f106103f557610100808354040283529160200191610420565b820191906000526020600020905b81548152906001019060200180831161040357829003601f168201915b5050505050815260200160028201805461043990611328565b80601f016020809104026020016040519081016040528092919081815260200182805461046590611328565b80156104b25780601f10610487576101008083540402835291602001916104b2565b820191906000526020600020905b81548152906001019060200180831161049557829003601f168201915b505050918352505060038201546020820152600482015460ff8082161515604084015261010090910416151560608201526005820154608082015260069091015460a09182015281015190915061050d5760009150506102bc565b6001600160a01b038416600090815260036020908152604080832086845290915290205460ff16156105435760009150506102bc565b6001600160a01b03841660009081526004602052604081205461056691906112ec565b4210156105775760009150506102bc565b60008160c0015111801561059357508060c001518160e0015110155b156105a25760009150506102bc565b5060019392505050565b600281815481106105bc57600080fd5b90600052602060002090600702016000915090508060000180546105df90611328565b80601f016020809104026020016040519081016040528092919081815260200182805461060b90611328565b80156106585780601f1061062d57610100808354040283529160200191610658565b820191906000526020600020905b81548152906001019060200180831161063b57829003601f168201915b50505050509080600101805461066d90611328565b80601f016020809104026020016040519081016040528092919081815260200182805461069990611328565b80156106e65780601f106106bb576101008083540402835291602001916106e6565b820191906000526020600020905b8154815290600101906020018083116106c957829003601f168201915b5050505050908060020180546106fb90611328565b80601f016020809104026020016040519081016040528092919081815260200182805461072790611328565b80156107745780601f1061074957610100808354040283529160200191610774565b820191906000526020600020905b81548152906001019060200180831161075757829003601f168201915b5050506003840154600485015460058601546006909601549495919460ff8083169550610100909204909116925088565b6060806060600080600080600060028054905089106107df5760405162461bcd60e51b81526004016107d690611362565b60405180910390fd5b600060028a815481106107f4576107f4611312565b90600052602060002090600702016040518061010001604052908160008201805461081e90611328565b80601f016020809104026020016040519081016040528092919081815260200182805461084a90611328565b80156108975780601f1061086c57610100808354040283529160200191610897565b820191906000526020600020905b81548152906001019060200180831161087a57829003601f168201915b505050505081526020016001820180546108b090611328565b80601f01602080910402602001604051908101604052809291908181526020018280546108dc90611328565b80156109295780601f106108fe57610100808354040283529160200191610929565b820191906000526020600020905b81548152906001019060200180831161090c57829003601f168201915b5050505050815260200160028201805461094290611328565b80601f016020809104026020016040519081016040528092919081815260200182805461096e90611328565b80156109bb5780601f10610990576101008083540402835291602001916109bb565b820191906000526020600020905b81548152906001019060200180831161099e57829003601f168201915b50505050508152602001600382015481526020016004820160009054906101000a900460ff161515151581526020016004820160019054906101000a900460ff16151515158152602001600582015481526020016006820154815250509050806000015181602001518260400151836060015184608001518560a001518660c001518760e001519850985098509850985098509850985050919395975091939597565b6001546001600160a01b03163314610a885760405162461bcd60e51b81526004016107d69061138b565b6002548210610aa95760405162461bcd60e51b81526004016107d690611362565b8060028381548110610abd57610abd611312565b906000526020600020906007020160040160016101000a81548160ff0219169083151502179055507f4a2f8f64893906375e436da07c6baa76bfe72487f4abdc03f3c32c50991829008282604051610b219291909182521515602082015260400190565b60405180910390a15050565b6002548110610b4e5760405162461bcd60e51b81526004016107d690611362565b600060028281548110610b6357610b63611312565b906000526020600020906007020190508060040160019054906101000a900460ff16610bc65760405162461bcd60e51b815260206004820152601260248201527143617264206e6f7420617661696c61626c6560701b60448201526064016107d6565b33600090815260036020908152604080832085845290915290205460ff1615610c315760405162461bcd60e51b815260206004820152601b60248201527f416c72656164792070757263686173656420746869732063617264000000000060448201526064016107d6565b33600090815260046020526040812054610c4b91906112ec565b421015610caf5760405162461bcd60e51b815260206004820152602c60248201527f436f6f6c646f776e20616374697665202d20776169742032346820626574776560448201526b656e2070757263686173657360a01b60648201526084016107d6565b600581015415610d00578060050154816006015410610d005760405162461bcd60e51b815260206004820152600d60248201526c10d85c99081cdbdb19081bdd5d609a1b60448201526064016107d6565b600054604051631a56bb5760e31b81526001600160a01b039091169063d2b5dab890610d379033908590600182019060040161142b565b600060405180830381600087803b158015610d5157600080fd5b505af1158015610d65573d6000803e3d6000fd5b50503360008181526003602090815260408083208884528252808320805460ff191660011790559282526004905290812042905560068401805493509150610dac8361146b565b9091555050600381015460405133917ffeca51bf5b497432f180429f7309df5438daa8687f07ed2c2b765d720126ad0f91610deb918691869190611484565b60405180910390a25050565b6001546001600160a01b03163314610e215760405162461bcd60e51b81526004016107d69061138b565b6001600160a01b038116610e695760405162461bcd60e51b815260206004820152600f60248201526e496e76616c6964206164647265737360881b60448201526064016107d6565b600180546001600160a01b0319166001600160a01b0392909216919091179055565b6001546001600160a01b03163314610eb55760405162461bcd60e51b81526004016107d69061138b565b610ec3868686868686610f17565b6002547fb882945999a04738baf2d6033ed7a9fb7b8cf1a6281e16ca59b01aa280d0cfd790610ef4906001906112ff565b878585604051610f0794939291906114ad565b60405180910390a1505050505050565b604080516101008101825287815260208101879052908101859052606081018490528215156080820152600160a0820181905260c08201839052600060e083018190526002805492830181559052815160079091027f405787fa12a823e0f2b7631cc41b3ba8828b3321ca811111fa75cd3aa3bb5ace01908190610f9b908261152d565b5060208201516001820190610fb0908261152d565b5060408201516002820190610fc5908261152d565b5060608201516003820155608082015160048201805460a085015115156101000261ff00199315159390931661ffff199091161791909117905560c0820151600582015560e090910151600690910155505050505050565b80356001600160a01b038116811461103457600080fd5b919050565b6000806040838503121561104c57600080fd5b6110558361101d565b946020939093013593505050565b60006020828403121561107557600080fd5b61107e8261101d565b9392505050565b60006020828403121561109757600080fd5b5035919050565b6000815180845260005b818110156110c4576020818501810151868301820152016110a8565b506000602082860101526020601f19601f83011685010191505092915050565b60006101008083526110f88184018c61109e565b9050828103602084015261110c818b61109e565b90508281036040840152611120818a61109e565b60608401989098525050931515608085015291151560a084015260c083015260e0909101529392505050565b8035801515811461103457600080fd5b6000806040838503121561116f57600080fd5b8235915061117f6020840161114c565b90509250929050565b634e487b7160e01b600052604160045260246000fd5b600082601f8301126111af57600080fd5b813567ffffffffffffffff808211156111ca576111ca611188565b604051601f8301601f19908116603f011681019082821181831017156111f2576111f2611188565b8160405283815286602085880101111561120b57600080fd5b836020870160208301376000602085830101528094505050505092915050565b60008060008060008060c0878903121561124457600080fd5b863567ffffffffffffffff8082111561125c57600080fd5b6112688a838b0161119e565b9750602089013591508082111561127e57600080fd5b61128a8a838b0161119e565b965060408901359150808211156112a057600080fd5b506112ad89828a0161119e565b945050606087013592506112c36080880161114c565b915060a087013590509295509295509295565b634e487b7160e01b600052601160045260246000fd5b808201808211156102bc576102bc6112d6565b818103818111156102bc576102bc6112d6565b634e487b7160e01b600052603260045260246000fd5b600181811c9082168061133c57607f821691505b60208210810361135c57634e487b7160e01b600052602260045260246000fd5b50919050565b6020808252600f908201526e125b9d985b1a590818d85c99081251608a1b604082015260600190565b6020808252600990820152682737ba1037bbb732b960b91b604082015260600190565b600081546113bb81611328565b8085526020600183811680156113d857600181146113f257611420565b60ff1985168884015283151560051b880183019550611420565b866000528260002060005b858110156114185781548a82018601529083019084016113fd565b890184019650505b505050505092915050565b6001600160a01b038416815260606020820181905260009061144f908301856113ae565b828103604084015261146181856113ae565b9695505050505050565b60006001820161147d5761147d6112d6565b5060010190565b83815260606020820152600061149d60608301856113ae565b9050826040830152949350505050565b8481526080602082015260006114c6608083018661109e565b60408301949094525090151560609091015292915050565b601f82111561152857600081815260208120601f850160051c810160208610156115055750805b601f850160051c820191505b8181101561152457828155600101611511565b5050505b505050565b815167ffffffffffffffff81111561154757611547611188565b61155b816115558454611328565b846114de565b602080601f83116001811461159057600084156115785750858301515b600019600386901b1c1916600185901b178555611524565b600085815260208120601f198616915b828110156115bf578886015182559484019460019091019084016115a0565b50858210156115dd5787850151600019600388901b60f8161c191681555b5050505050600190811b0190555056fea2646970667358221220c607ab7b66f759e61442d01df35362738e320f0d1055a783cc27c3489fae835064736f6c6343000814003368747470733a2f2f7265642d72656164792d636174666973682d3535342e6d7970696e6174612e636c6f75642f697066732f6261667962656965726e3472366532656477327a776f73683633797969756a78766c72336a336f3763657a717a7778746475627569346f3265636168747470733a2f2f7265642d72656164792d636174666973682d3535342e6d7970696e6174612e636c6f75642f697066732f62616679626569677362723278356d63666769326373746e726437783367796f74747835323232706a34726b37717633677635706f68703568367168747470733a2f2f7265642d72656164792d636174666973682d3535342e6d7970696e6174612e636c6f75642f697066732f6261667962656961343363377a7269376c7a3636746134627071626a707a72323372736d6836657476656a6c67336c75727764666862343473686d68747470733a2f2f7265642d72656164792d636174666973682d3535342e6d7970696e6174612e636c6f75642f697066732f6261667962656963726b626b75377a6f72636f77696d656d6a3363716f72636a7076766879726833646c746d766c336c6c69787a6a3733326f366d68747470733a2f2f7265642d72656164792d636174666973682d3535342e6d7970696e6174612e636c6f75642f697066732f62616679626569636166767134776d6d7968646b766f6e6b6b776d706f79697073696e65666f68726737686e6677666364717767667968726b6e69",
  "linkReferences": {},
  "deployedLinkReferences": {}
}