{
  "_format": "hh-sol-artifact-1",
  "contractName": "Shop",
  "sourceName": "contracts/Shop.sol",
  "abi": [
    {
      "inputs": [
        {
          "internalType": "address",
          "name": "_arenaCardsAddress",
          "type": "address"
        }
      ],
      "stateMutability": "nonpayable",
      "type": "constructor"
    },
    {
      "anonymous": false,
      "inputs": [
        {
          "indexed": false,
          "internalType": "uint256",
          "name": "cardId",
          "type": "uint256"
        },
        {
          "indexed": false,
          "internalType": "string",
          "name": "name",
          "type": "string"
        },
        {
          "indexed": false,
          "internalType": "uint256",
          "name": "price",
          "type": "uint256"
        },
        {
          "indexed": false,
          "internalType": "bool",
          "name": "isSecret",
          "type": "bool"
        }
      ],
      "name": "CardAdded",
      "type": "event"
    },
    {
      "anonymous": false,
      "inputs": [
        {
          "indexed": false,
          "internalType": "uint256",
          "name": "cardId",
          "type": "uint256"
        },
        {
          "indexed": false,
          "internalType": "bool",
          "name": "available",
          "type": "bool"
        }
      ],
      "name": "CardAvailabilityChanged",
      "type": "event"
    },
    {
      "anonymous": false,
      "inputs": [
        {
          "indexed": true,
          "internalType": "address",
          "name": "buyer",
          "type": "address"
        },
        {
          "indexed": false,
          "internalType": "uint256",
          "name": "cardId",
          "type": "uint256"
        },
        {
          "indexed": false,
          "internalType": "string",
          "name": "name",
          "type": "string"
        },
        {
          "indexed": false,
          "internalType": "uint256",
          "name": "price",
          "type": "uint256"
        }
      ],
      "name": "CardPurchased",
      "type": "event"
    },
    {
      "inputs": [],
      "name": "COOLDOWN",
      "outputs": [
        {
          "internalType": "uint256",
          "name": "",
          "type": "uint256"
        }
      ],
      "stateMutability": "view",
      "type": "function"
    },
    {
      "inputs": [
        {
          "internalType": "string",
          "name": "name",
          "type": "string"
        },
        {
          "internalType": "string",
          "name": "rarity",
          "type": "string"
        },
        {
          "internalType": "string",
          "name": "imageURI",
          "type": "string"
        },
        {
          "internalType": "uint256",
          "name": "price",
          "type": "uint256"
        },
        {
          "internalType": "bool",
          "name": "isSecret",
          "type": "bool"
        },
        {
          "internalType": "uint256",
          "name": "maxSupply",
          "type": "uint256"
        }
      ],
      "name": "addCard",
      "outputs": [],
      "stateMutability": "nonpayable",
      "type": "function"
    },
    {
      "inputs": [],
      "name": "arenaCards",
      "outputs": [
        {
          "internalType": "contract ArenaCards",
          "name": "",
          "type": "address"
        }
      ],
      "stateMutability": "view",
      "type": "function"
    },
    {
      "inputs": [
        {
          "internalType": "uint256",
          "name": "cardId",
          "type": "uint256"
        }
      ],
      "name": "buyCard",
      "outputs": [],
      "stateMutability": "nonpayable",
      "type": "function"
    },
    {
      "inputs": [
        {
          "internalType": "address",
          "name": "user",
          "type": "address"
        },
        {
          "internalType": "uint256",
          "name": "cardId",
          "type": "uint256"
        }
      ],
      "name": "canPurchase",
      "outputs": [
        {
          "internalType": "bool",
          "name": "",
          "type": "bool"
        }
      ],
      "stateMutability": "view",
      "type": "function"
    },
    {
      "inputs": [
        {
          "internalType": "uint256",
          "name": "cardId",
          "type": "uint256"
        }
      ],
      "name": "getCard",
      "outputs": [
        {
          "internalType": "string",
          "name": "name",
          "type": "string"
        },
        {
          "internalType": "string",
          "name": "rarity",
          "type": "string"
        },
        {
          "internalType": "string",
          "name": "imageURI",
          "type": "string"
        },
        {
          "internalType": "uint256",
          "name": "price",
          "type": "uint256"
        },
        {
          "internalType": "bool",
          "name": "isSecret",
          "type": "bool"
        },
        {
          "internalType": "bool",
          "name": "available",
          "type": "bool"
        },
        {
          "internalType": "uint256",
          "name": "maxSupply",
          "type": "uint256"
        },
        {
          "internalType": "uint256",
          "name": "minted",
          "type": "uint256"
        }
      ],
      "stateMutability": "view",
      "type": "function"
    },
    {
      "inputs": [],
      "name": "getCardCount",
      "outputs": [
        {
          "internalType": "uint256",
          "name": "",
          "type": "uint256"
        }
      ],
      "stateMutability": "view",
      "type": "function"
    },
    {
      "inputs": [
        {
          "internalType": "address",
          "name": "user",
          "type": "address"
        }
      ],
      "name": "getCooldownRemaining",
      "outputs": [
        {
          "internalType": "uint256",
          "name": "",
          "type": "uint256"
        }
      ],
      "stateMutability": "view",
      "type": "function"
    },
    {
      "inputs": [
        {
          "internalType": "address",
          "name": "",
          "type": "address"
        },
        {
          "internalType": "uint256",
          "name": "",
          "type": "uint256"
        }
      ],
      "name": "hasPurchased",
      "outputs": [
        {
          "internalType": "bool",
          "name": "",
          "type": "bool"
        }
      ],
      "stateMutability": "view",
      "type": "function"
    },
    {
      "inputs": [
        {
          "internalType": "address",
          "name": "",
          "type": "address"
        }
      ],
      "name": "lastPurchase",
      "outputs": [
        {
          "internalType": "uint256",
          "name": "",
          "type": "uint256"
        }
      ],
      "stateMutability": "view",
      "type": "function"
    },
    {
      "inputs": [],
      "name": "owner",
      "outputs": [
        {
          "internalType": "address",
          "name": "",
          "type": "address"
        }
      ],
      "stateMutability": "view",
      "type": "function"
    },
    {
      "inputs": [
        {
          "internalType": "uint256",
          "name": "cardId",
          "type": "uint256"
        },
        {
          "internalType": "bool",
          "name": "available",
          "type": "bool"
        }
      ],
      "name": "setCardAvailability",
      "outputs": [],
      "stateMutability": "nonpayable",
      "type": "function"
    },
    {
      "inputs": [
        {
          "internalType": "uint256",
          "name": "",
          "type": "uint256"
        }
      ],
      "name": "shopCards",
      "outputs": [
        {
          "internalType": "string",
          "name": "name",
          "type": "string"
        },
        {
          "internalType": "string",
          "name": "rarity",
          "type": "string"
        },
        {
          "internalType": "string",
          "name": "imageURI",
          "type": "string"
        },
        {
          "internalType": "uint256",
          "name": "price",
          "type": "uint256"
        },
        {
          "internalType": "bool",
          "name": "isSecret",
          "type": "bool"
        },
        {
          "internalType": "bool",
          "name": "available",
          "type": "bool"
        },
        {
          "internalType": "uint256",
          "name": "maxSupply",
          "type": "uint256"
        },
        {
          "internalType": "uint256",
          "name": "minted",
          "type": "uint256"
        }
      ],
      "stateMutability": "view",
      "type": "function"
    },
    {
      "inputs": [
        {
          "internalType": "address",
          "name": "newOwner",
          "type": "address"
        }
      ],
      "name": "transferOwnership",
      "outputs": [],
      "stateMutability": "nonpayable",
      "type": "function"
    }
  ],
  "bytecode": "0x60806040523480156200001157600080fd5b5060405162001df438038062001df48339810160408190526200003491620003eb565b600080546001600160a01b0383166001600160a01b0319918216179091556001805490911633179055620000676200006e565b506200058e565b620000e06040518060400160405280600b81526020016a447261676f6e20446f726560a81b8152506040518060400160405280600a8152602001696c6567656e646169726560b01b8152506040518060a00160405280606d815260200162001cad606d9139620f4240600080620002df565b620001576040518060400160405280601081526020016f141a1bd95b9a5e08125b5b5bdc9d195b60821b8152506040518060400160405280600a8152602001696c6567656e646169726560b01b8152506040518060a00160405280606d815260200162001c40606d9139620f4240600080620002df565b620001d96040518060400160405280601881526020017f4272696365203a204c6520646976696e2073757072656d650000000000000000815250604051806040016040528060078152602001667365637265746560c81b8152506040518060a00160405280606d815260200162001bd3606d9139624c4b4060016032620002df565b6200025b6040518060400160405280601381526020017f5061756c203a204c65206d616c69636965757800000000000000000000000000815250604051806040016040528060078152602001667365637265746560c81b8152506040518060a00160405280606d815260200162001d87606d9139624c4b4060016032620002df565b620002dd6040518060400160405280601881526020017f466c617669656e203a204c65206269656e666169746575720000000000000000815250604051806040016040528060078152602001667365637265746560c81b8152506040518060a00160405280606d815260200162001d1a606d9139624c4b4060016032620002df565b565b604080516101008101825287815260208101879052908101859052606081018490528215156080820152600160a0820181905260c08201839052600060e083018190526002805492830181559052815160079091027f405787fa12a823e0f2b7631cc41b3ba8828b3321ca811111fa75cd3aa3bb5ace01908190620003659082620004c2565b50602082015160018201906200037c9082620004c2565b5060408201516002820190620003939082620004c2565b5060608201516003820155608082015160048201805460a085015115156101000261ff00199315159390931661ffff199091161791909117905560c0820151600582015560e090910151600690910155505050505050565b600060208284031215620003fe57600080fd5b81516001600160a01b03811681146200041657600080fd5b9392505050565b634e487b7160e01b600052604160045260246000fd5b600181811c908216806200044857607f821691505b6020821081036200046957634e487b7160e01b600052602260045260246000fd5b50919050565b601f821115620004bd57600081815260208120601f850160051c81016020861015620004985750805b601f850160051c820191505b81811015620004b957828155600101620004a4565b5050505b505050565b81516001600160401b03811115620004de57620004de6200041d565b620004f681620004ef845462000433565b846200046f565b602080601f8311600181146200052e5760008415620005155750858301515b600019600386901b1c1916600185901b178555620004b9565b600085815260208120601f198616915b828110156200055f578886015182559484019460019091019084016200053e565b50858210156200057e5787850151600019600388901b60f8161c191681555b5050505050600190811b01905550565b611635806200059e6000396000f3fe608060405234801561001057600080fd5b50600436106100ea5760003560e01c80638da5cb5b1161008c578063aedd986211610066578063aedd986214610210578063c70f5eaa14610225578063f2fde38b14610238578063f8e8125a1461024b57600080fd5b80638da5cb5b146101e05780639188d312146101f3578063a2724a4d1461020657600080fd5b80635b46900c116100c85780635b46900c1461018b5780635d54322d1461019e57806364209a51146101b15780637d620130146101d857600080fd5b806311923132146100ef578063421da68a1461013257806343ea597714610160575b600080fd5b61011d6100fd36600461104b565b600360209081526000928352604080842090915290825290205460ff1681565b60405190151581526020015b60405180910390f35b610152610140366004611075565b60046020526000908152604090205481565b604051908152602001610129565b600054610173906001600160a01b031681565b6040516001600160a01b039091168152602001610129565b610152610199366004611075565b61025e565b61011d6101ac36600461104b565b6102cc565b6101c46101bf366004611097565b6105ba565b6040516101299897969594939291906110f6565b600254610152565b600154610173906001600160a01b031681565b6101c4610201366004611097565b6107b3565b6101526201518081565b61022361021e36600461116e565b610a6c565b005b610223610233366004611097565b610b3b565b610223610246366004611075565b610e09565b61022361025936600461123d565b610e9d565b6001600160a01b0381166000908152600460205260408120546102859062015180906112fe565b421061029357506000919050565b6001600160a01b03821660009081526004602052604090205442906102bc9062015180906112fe565b6102c69190611311565b92915050565b60025460009082106102e0575060006102c6565b6000600283815481106102f5576102f5611324565b90600052602060002090600702016040518061010001604052908160008201805461031f9061133a565b80601f016020809104026020016040519081016040528092919081815260200182805461034b9061133a565b80156103985780601f1061036d57610100808354040283529160200191610398565b820191906000526020600020905b81548152906001019060200180831161037b57829003601f168201915b505050505081526020016001820180546103b19061133a565b80601f01602080910402602001604051908101604052809291908181526020018280546103dd9061133a565b801561042a5780601f106103ff5761010080835404028352916020019161042a565b820191906000526020600020905b81548152906001019060200180831161040d57829003601f168201915b505050505081526020016002820180546104439061133a565b80601f016020809104026020016040519081016040528092919081815260200182805461046f9061133a565b80156104bc5780601f10610491576101008083540402835291602001916104bc565b820191906000526020600020905b81548152906001019060200180831161049f57829003601f168201915b505050918352505060038201546020820152600482015460ff8082161515604084015261010090910416151560608201526005820154608082015260069091015460a0918201528101519091506105175760009150506102c6565b6001600160a01b038416600090815260036020908152604080832086845290915290205460ff161561054d5760009150506102c6565b6001600160a01b0384166000908152600460205260409020546105749062015180906112fe565b4210156105855760009150506102c6565b60008160c001511180156105a157508060c001518160e0015110155b156105b05760009150506102c6565b5060019392505050565b600281815481106105ca57600080fd5b90600052602060002090600702016000915090508060000180546105ed9061133a565b80601f01602080910402602001604051908101604052809291908181526020018280546106199061133a565b80156106665780601f1061063b57610100808354040283529160200191610666565b820191906000526020600020905b81548152906001019060200180831161064957829003601f168201915b50505050509080600101805461067b9061133a565b80601f01602080910402602001604051908101604052809291908181526020018280546106a79061133a565b80156106f45780601f106106c9576101008083540402835291602001916106f4565b820191906000526020600020905b8154815290600101906020018083116106d757829003601f168201915b5050505050908060020180546107099061133a565b80601f01602080910402602001604051908101604052809291908181526020018280546107359061133a565b80156107825780601f1061075757610100808354040283529160200191610782565b820191906000526020600020905b81548152906001019060200180831161076557829003601f168201915b5050506003840154600485015460058601546006909601549495919460ff8083169550610100909204909116925088565b6060806060600080600080600060028054905089106107ed5760405162461bcd60e51b81526004016107e490611374565b60405180910390fd5b600060028a8154811061080257610802611324565b90600052602060002090600702016040518061010001604052908160008201805461082c9061133a565b80601f01602080910402602001604051908101604052809291908181526020018280546108589061133a565b80156108a55780601f1061087a576101008083540402835291602001916108a5565b820191906000526020600020905b81548152906001019060200180831161088857829003601f168201915b505050505081526020016001820180546108be9061133a565b80601f01602080910402602001604051908101604052809291908181526020018280546108ea9061133a565b80156109375780601f1061090c57610100808354040283529160200191610937565b820191906000526020600020905b81548152906001019060200180831161091a57829003601f168201915b505050505081526020016002820180546109509061133a565b80601f016020809104026020016040519081016040528092919081815260200182805461097c9061133a565b80156109c95780601f1061099e576101008083540402835291602001916109c9565b820191906000526020600020905b8154815290600101906020018083116109ac57829003601f168201915b50505050508152602001600382015481526020016004820160009054906101000a900460ff161515151581526020016004820160019054906101000a900460ff16151515158152602001600582015481526020016006820154815250509050806000015181602001518260400151836060015184608001518560a001518660c001518760e001519850985098509850985098509850985050919395975091939597565b6001546001600160a01b03163314610a965760405162461bcd60e51b81526004016107e49061139d565b6002548210610ab75760405162461bcd60e51b81526004016107e490611374565b8060028381548110610acb57610acb611324565b906000526020600020906007020160040160016101000a81548160ff0219169083151502179055507f4a2f8f64893906375e436da07c6baa76bfe72487f4abdc03f3c32c50991829008282604051610b2f9291909182521515602082015260400190565b60405180910390a15050565b6002548110610b5c5760405162461bcd60e51b81526004016107e490611374565b600060028281548110610b7157610b71611324565b906000526020600020906007020190508060040160019054906101000a900460ff16610bd45760405162461bcd60e51b815260206004820152601260248201527143617264206e6f7420617661696c61626c6560701b60448201526064016107e4565b33600090815260036020908152604080832085845290915290205460ff1615610c3f5760405162461bcd60e51b815260206004820152601b60248201527f416c72656164792070757263686173656420746869732063617264000000000060448201526064016107e4565b33600090815260046020526040902054610c5d9062015180906112fe565b421015610cc15760405162461bcd60e51b815260206004820152602c60248201527f436f6f6c646f776e20616374697665202d20776169742032346820626574776560448201526b656e2070757263686173657360a01b60648201526084016107e4565b600581015415610d12578060050154816006015410610d125760405162461bcd60e51b815260206004820152600d60248201526c10d85c99081cdbdb19081bdd5d609a1b60448201526064016107e4565b600054604051631a56bb5760e31b81526001600160a01b039091169063d2b5dab890610d499033908590600182019060040161143d565b600060405180830381600087803b158015610d6357600080fd5b505af1158015610d77573d6000803e3d6000fd5b50503360008181526003602090815260408083208884528252808320805460ff191660011790559282526004905290812042905560068401805493509150610dbe8361147d565b9091555050600381015460405133917ffeca51bf5b497432f180429f7309df5438daa8687f07ed2c2b765d720126ad0f91610dfd918691869190611496565b60405180910390a25050565b6001546001600160a01b03163314610e335760405162461bcd60e51b81526004016107e49061139d565b6001600160a01b038116610e7b5760405162461bcd60e51b815260206004820152600f60248201526e496e76616c6964206164647265737360881b60448201526064016107e4565b600180546001600160a01b0319166001600160a01b0392909216919091179055565b6001546001600160a01b03163314610ec75760405162461bcd60e51b81526004016107e49061139d565b610ed5868686868686610f29565b6002547fb882945999a04738baf2d6033ed7a9fb7b8cf1a6281e16ca59b01aa280d0cfd790610f0690600190611311565b878585604051610f1994939291906114bf565b60405180910390a1505050505050565b604080516101008101825287815260208101879052908101859052606081018490528215156080820152600160a0820181905260c08201839052600060e083018190526002805492830181559052815160079091027f405787fa12a823e0f2b7631cc41b3ba8828b3321ca811111fa75cd3aa3bb5ace01908190610fad908261153f565b5060208201516001820190610fc2908261153f565b5060408201516002820190610fd7908261153f565b5060608201516003820155608082015160048201805460a085015115156101000261ff00199315159390931661ffff199091161791909117905560c0820151600582015560e090910151600690910155505050505050565b80356001600160a01b038116811461104657600080fd5b919050565b6000806040838503121561105e57600080fd5b6110678361102f565b946020939093013593505050565b60006020828403121561108757600080fd5b6110908261102f565b9392505050565b6000602082840312156110a957600080fd5b5035919050565b6000815180845260005b818110156110d6576020818501810151868301820152016110ba565b506000602082860101526020601f19601f83011685010191505092915050565b600061010080835261110a8184018c6110b0565b9050828103602084015261111e818b6110b0565b90508281036040840152611132818a6110b0565b60608401989098525050931515608085015291151560a084015260c083015260e0909101529392505050565b8035801515811461104657600080fd5b6000806040838503121561118157600080fd5b823591506111916020840161115e565b90509250929050565b634e487b7160e01b600052604160045260246000fd5b600082601f8301126111c157600080fd5b813567ffffffffffffffff808211156111dc576111dc61119a565b604051601f8301601f19908116603f011681019082821181831017156112045761120461119a565b8160405283815286602085880101111561121d57600080fd5b836020870160208301376000602085830101528094505050505092915050565b60008060008060008060c0878903121561125657600080fd5b863567ffffffffffffffff8082111561126e57600080fd5b61127a8a838b016111b0565b9750602089013591508082111561129057600080fd5b61129c8a838b016111b0565b965060408901359150808211156112b257600080fd5b506112bf89828a016111b0565b945050606087013592506112d56080880161115e565b915060a087013590509295509295509295565b634e487b7160e01b600052601160045260246000fd5b808201808211156102c6576102c66112e8565b818103818111156102c6576102c66112e8565b634e487b7160e01b600052603260045260246000fd5b600181811c9082168061134e57607f821691505b60208210810361136e57634e487b7160e01b600052602260045260246000fd5b50919050565b6020808252600f908201526e125b9d985b1a590818d85c99081251608a1b604082015260600190565b6020808252600990820152682737ba1037bbb732b960b91b604082015260600190565b600081546113cd8161133a565b8085526020600183811680156113ea576001811461140457611432565b60ff1985168884015283151560051b880183019550611432565b866000528260002060005b8581101561142a5781548a820186015290830190840161140f565b890184019650505b505050505092915050565b6001600160a01b0384168152606060208201819052600090611461908301856113c0565b828103604084015261147381856113c0565b9695505050505050565b60006001820161148f5761148f6112e8565b5060010190565b8381526060602082015260006114af60608301856113c0565b9050826040830152949350505050565b8481526080602082015260006114d860808301866110b0565b60408301949094525090151560609091015292915050565b601f82111561153a57600081815260208120601f850160051c810160208610156115175750805b601f850160051c820191505b8181101561153657828155600101611523565b5050505b505050565b815167ffffffffffffffff8111156115595761155961119a565b61156d81611567845461133a565b846114f0565b602080601f8311600181146115a2576000841561158a5750858301515b600019600386901b1c1916600185901b178555611536565b600085815260208120601f198616915b828110156115d1578886015182559484019460019091019084016115b2565b50858210156115ef5787850151600019600388901b60f8161c191681555b5050505050600190811b0190555056fea2646970667358221220e0b7f40bf14f839feefb0defe0593c7d2ea9cdb8d2e627c185c181dba5f4aea664736f6c6343000814003368747470733a2f2f7265642d72656164792d636174666973682d3535342e6d7970696e6174612e636c6f75642f697066732f6261667962656965726e3472366532656477327a776f73683633797969756a78766c72336a336f3763657a717a7778746475627569346f3265636168747470733a2f2f7265642d72656164792d636174666973682d3535342e6d7970696e6174612e636c6f75642f697066732f62616679626569677362723278356d63666769326373746e726437783367796f74747835323232706a34726b37717633677635706f68703568367168747470733a2f2f7265642d72656164792d636174666973682d3535342e6d7970696e6174612e636c6f75642f697066732f6261667962656961343363377a7269376c7a3636746134627071626a707a72323372736d6836657476656a6c67336c75727764666862343473686d68747470733a2f2f7265642d72656164792d636174666973682d3535342e6d7970696e6174612e636c6f75642f697066732f6261667962656963726b626b75377a6f72636f77696d656d6a3363716f72636a7076766879726833646c746d766c336c6c69787a6a3733326f366d68747470733a2f2f7265642d72656164792d636174666973682d3535342e6d7970696e6174612e636c6f75642f697066732f62616679626569636166767134776d6d7968646b766f6e6b6b776d706f79697073696e65666f68726737686e6677666364717767667968726b6e69",
  "linkReferences": {},
  "deployedLinkReferences": {}
}