{
  "_format": "hh-sol-artifact-1",
  "contractName": "Team",
  "sourceName": "contracts/Team.sol",
  "abi": [
    {
      "inputs": [
        {
          "internalType": "address",
          "name": "_arenaCardsAddress",
          "type": "address"
        }
      ],
      "stateMutability": "nonpayable",
      "type": "constructor"
    },
    {
      "inputs": [
        {
          "internalType": "address",
          "name": "owner",
          "type": "address"
        }
      ],
      "name": "OwnableInvalidOwner",
      "type": "error"
    },
    {
      "inputs": [
        {
          "internalType": "address",
          "name": "account",
          "type": "address"
        }
      ],
      "name": "OwnableUnauthorizedAccount",
      "type": "error"
    },
    {
      "anonymous": false,
      "inputs": [
        {
          "indexed": true,
          "internalType": "address",
          "name": "previousOwner",
          "type": "address"
        },
        {
          "indexed": true,
          "internalType": "address",
          "name": "newOwner",
          "type": "address"
        }
      ],
      "name": "OwnershipTransferred",
      "type": "event"
    },
    {
      "anonymous": false,
      "inputs": [
        {
          "indexed": true,
          "internalType": "address",
          "name": "player",
          "type": "address"
        },
        {
          "indexed": false,
          "internalType": "uint256",
          "name": "timestamp",
          "type": "uint256"
        }
      ],
      "name": "TeamCleared",
      "type": "event"
    },
    {
      "anonymous": false,
      "inputs": [
        {
          "indexed": true,
          "internalType": "address",
          "name": "player",
          "type": "address"
        },
        {
          "indexed": false,
          "internalType": "uint256[]",
          "name": "cardIds",
          "type": "uint256[]"
        }
      ],
      "name": "TeamLoaded",
      "type": "event"
    },
    {
      "anonymous": false,
      "inputs": [
        {
          "indexed": true,
          "internalType": "address",
          "name": "player",
          "type": "address"
        },
        {
          "indexed": false,
          "internalType": "uint256[]",
          "name": "cardIds",
          "type": "uint256[]"
        },
        {
          "indexed": false,
          "internalType": "uint256",
          "name": "timestamp",
          "type": "uint256"
        }
      ],
      "name": "TeamSaved",
      "type": "event"
    },
    {
      "inputs": [],
      "name": "MAX_TEAM_SIZE",
      "outputs": [
        {
          "internalType": "uint256",
          "name": "",
          "type": "uint256"
        }
      ],
      "stateMutability": "view",
      "type": "function"
    },
    {
      "inputs": [],
      "name": "arenaCardsContract",
      "outputs": [
        {
          "internalType": "contract ArenaCards",
          "name": "",
          "type": "address"
        }
      ],
      "stateMutability": "view",
      "type": "function"
    },
    {
      "inputs": [],
      "name": "clearTeam",
      "outputs": [],
      "stateMutability": "nonpayable",
      "type": "function"
    },
    {
      "inputs": [],
      "name": "getMyTeam",
      "outputs": [
        {
          "internalType": "uint256[]",
          "name": "",
          "type": "uint256[]"
        }
      ],
      "stateMutability": "view",
      "type": "function"
    },
    {
      "inputs": [
        {
          "internalType": "address",
          "name": "player",
          "type": "address"
        }
      ],
      "name": "getTeam",
      "outputs": [
        {
          "internalType": "uint256[]",
          "name": "",
          "type": "uint256[]"
        }
      ],
      "stateMutability": "view",
      "type": "function"
    },
    {
      "inputs": [
        {
          "internalType": "address",
          "name": "player",
          "type": "address"
        }
      ],
      "name": "getTeamInfo",
      "outputs": [
        {
          "internalType": "uint256[]",
          "name": "cardIds",
          "type": "uint256[]"
        },
        {
          "internalType": "bool",
          "name": "isValid",
          "type": "bool"
        },
        {
          "internalType": "uint256",
          "name": "teamSize",
          "type": "uint256"
        }
      ],
      "stateMutability": "view",
      "type": "function"
    },
    {
      "inputs": [
        {
          "internalType": "address",
          "name": "player",
          "type": "address"
        }
      ],
      "name": "getTeamSize",
      "outputs": [
        {
          "internalType": "uint256",
          "name": "",
          "type": "uint256"
        }
      ],
      "stateMutability": "view",
      "type": "function"
    },
    {
      "inputs": [
        {
          "internalType": "address",
          "name": "",
          "type": "address"
        }
      ],
      "name": "hasTeam",
      "outputs": [
        {
          "internalType": "bool",
          "name": "",
          "type": "bool"
        }
      ],
      "stateMutability": "view",
      "type": "function"
    },
    {
      "inputs": [
        {
          "internalType": "address",
          "name": "player",
          "type": "address"
        }
      ],
      "name": "isTeamValid",
      "outputs": [
        {
          "internalType": "bool",
          "name": "",
          "type": "bool"
        }
      ],
      "stateMutability": "view",
      "type": "function"
    },
    {
      "inputs": [],
      "name": "owner",
      "outputs": [
        {
          "internalType": "address",
          "name": "",
          "type": "address"
        }
      ],
      "stateMutability": "view",
      "type": "function"
    },
    {
      "inputs": [],
      "name": "renounceOwnership",
      "outputs": [],
      "stateMutability": "nonpayable",
      "type": "function"
    },
    {
      "inputs": [
        {
          "internalType": "uint256[]",
          "name": "cardIds",
          "type": "uint256[]"
        }
      ],
      "name": "saveTeam",
      "outputs": [],
      "stateMutability": "nonpayable",
      "type": "function"
    },
    {
      "inputs": [
        {
          "internalType": "address",
          "name": "newOwner",
          "type": "address"
        }
      ],
      "name": "transferOwnership",
      "outputs": [],
      "stateMutability": "nonpayable",
      "type": "function"
    },
    {
      "inputs": [
        {
          "internalType": "address",
          "name": "_arenaCardsAddress",
          "type": "address"
        }
      ],
      "name": "updateArenaCardsContract",
      "outputs": [],
      "stateMutability": "nonpayable",
      "type": "function"
    }
  ],
  "bytecode": "0x608060405234801561001057600080fd5b50604051610d58380380610d5883398101604081905261002f9161012b565b338061005657604051631e4fbdf760e01b8152600060048201526024015b60405180910390fd5b61005f816100db565b506001600160a01b0381166100b65760405162461bcd60e51b815260206004820152601a60248201527f496e76616c6964204172656e6143617264732061646472657373000000000000604482015260640161004d565b600180546001600160a01b0319166001600160a01b039290921691909117905561015b565b600080546001600160a01b038381166001600160a01b0319831681178455604051919092169283917f8be0079c531659141344cd1fd0a4f28419497f9722a3daafe3b4186f6b6457e09190a35050565b60006020828403121561013d57600080fd5b81516001600160a01b038116811461015457600080fd5b9392505050565b610bee8061016a6000396000f3fe608060405234801561001057600080fd5b50600436106100ea5760003560e01c80637b1208a01161008c57806399d0e3241161006657806399d0e324146102145780639c8c3e8014610227578063d4b9c1291461022f578063f2fde38b1461023757600080fd5b80637b1208a0146101bc57806387529f0f146101cf5780638da5cb5b146101ef57600080fd5b8063410a1e01116100c8578063410a1e0114610142578063519f16401461014a578063715018a614610181578063775e779e1461018957600080fd5b80630bf9e7e9146100ef5780630d1b3bfb146101045780633590f4b314610117575b600080fd5b6101026100fd3660046109d1565b61024a565b005b610102610112366004610a0b565b6102c1565b61012a6101253660046109d1565b610490565b60405161013993929190610b04565b60405180910390f35b6101026105e2565b6101736101583660046109d1565b6001600160a01b031660009081526002602052604090205490565b604051908152602001610139565b61010261064d565b6101ac6101973660046109d1565b60036020526000908152604090205460ff1681565b6040519015158152602001610139565b6101ac6101ca3660046109d1565b610661565b6101e26101dd3660046109d1565b6107ba565b6040516101399190610b29565b6000546001600160a01b03165b6040516001600160a01b039091168152602001610139565b6001546101fc906001600160a01b031681565b6101e2610826565b610173600581565b6101026102453660046109d1565b610887565b6102526108c5565b6001600160a01b03811661029f5760405162461bcd60e51b815260206004820152600f60248201526e496e76616c6964206164647265737360881b60448201526064015b60405180910390fd5b600180546001600160a01b0319166001600160a01b0392909216919091179055565b6005815111156103135760405162461bcd60e51b815260206004820152601960248201527f5465616d2073697a652065786365656473206d6178696d756d000000000000006044820152606401610296565b60005b815181101561041757600154825133916001600160a01b031690636352211e9085908590811061034857610348610b3c565b60200260200101516040518263ffffffff1660e01b815260040161036e91815260200190565b602060405180830381865afa15801561038b573d6000803e3d6000fd5b505050506040513d601f19601f820116820180604052508101906103af9190610b52565b6001600160a01b0316146104055760405162461bcd60e51b815260206004820152601760248201527f596f7520646f6e2774206f776e207468697320636172640000000000000000006044820152606401610296565b8061040f81610b6f565b915050610316565b50336000908152600260209081526040909120825161043892840190610942565b503360008181526003602052604090819020805460ff19166001179055517fb0cd0966ae187ced096074c5761f0f5b5906359db11b705941248caaad955550906104859084904290610b96565b60405180910390a250565b6001600160a01b038116600090815260026020908152604080832080548251818502810185019093528083526060949384939291908301828280156104f457602002820191906000526020600020905b8154815260200190600101908083116104e0575b50505050509250825190506001915060005b83518110156105da5760015484516001600160a01b0390911690636352211e9086908490811061053857610538610b3c565b60200260200101516040518263ffffffff1660e01b815260040161055e91815260200190565b602060405180830381865afa925050508015610597575060408051601f3d908101601f1916820190925261059491810190610b52565b60015b6105a457600092506105da565b856001600160a01b0316816001600160a01b0316146105c75760009350506105da565b50806105d281610b6f565b915050610506565b509193909250565b3360009081526002602052604081206105fa9161098d565b3360008181526003602052604090819020805460ff19169055517fd3cd5c11aac9e7b755e7f2cad5199574f65dd02d19277bdd102ee9dd425f597e906106439042815260200190565b60405180910390a2565b6106556108c5565b61065f60006108f2565b565b6001600160a01b0381166000908152600260209081526040808320805482518185028101850190935280835284938301828280156106be57602002820191906000526020600020905b8154815260200190600101908083116106aa575b5050505050905080516000036106d75750600092915050565b60005b81518110156107b05760015482516001600160a01b0390911690636352211e9084908490811061070c5761070c610b3c565b60200260200101516040518263ffffffff1660e01b815260040161073291815260200190565b602060405180830381865afa92505050801561076b575060408051601f3d908101601f1916820190925261076891810190610b52565b60015b610779575060009392505050565b846001600160a01b0316816001600160a01b03161461079d57506000949350505050565b50806107a881610b6f565b9150506106da565b5060019392505050565b6001600160a01b03811660009081526002602090815260409182902080548351818402810184019094528084526060939283018282801561081a57602002820191906000526020600020905b815481526020019060010190808311610806575b50505050509050919050565b3360009081526002602090815260409182902080548351818402810184019094528084526060939283018282801561087d57602002820191906000526020600020905b815481526020019060010190808311610869575b5050505050905090565b61088f6108c5565b6001600160a01b0381166108b957604051631e4fbdf760e01b815260006004820152602401610296565b6108c2816108f2565b50565b6000546001600160a01b0316331461065f5760405163118cdaa760e01b8152336004820152602401610296565b600080546001600160a01b038381166001600160a01b0319831681178455604051919092169283917f8be0079c531659141344cd1fd0a4f28419497f9722a3daafe3b4186f6b6457e09190a35050565b82805482825590600052602060002090810192821561097d579160200282015b8281111561097d578251825591602001919060010190610962565b506109899291506109a7565b5090565b50805460008255906000526020600020908101906108c291905b5b8082111561098957600081556001016109a8565b6001600160a01b03811681146108c257600080fd5b6000602082840312156109e357600080fd5b81356109ee816109bc565b9392505050565b634e487b7160e01b600052604160045260246000fd5b60006020808385031215610a1e57600080fd5b823567ffffffffffffffff80821115610a3657600080fd5b818501915085601f830112610a4a57600080fd5b813581811115610a5c57610a5c6109f5565b8060051b604051601f19603f83011681018181108582111715610a8157610a816109f5565b604052918252848201925083810185019188831115610a9f57600080fd5b938501935b82851015610abd57843584529385019392850192610aa4565b98975050505050505050565b600081518084526020808501945080840160005b83811015610af957815187529582019590820190600101610add565b509495945050505050565b606081526000610b176060830186610ac9565b93151560208301525060400152919050565b6020815260006109ee6020830184610ac9565b634e487b7160e01b600052603260045260246000fd5b600060208284031215610b6457600080fd5b81516109ee816109bc565b600060018201610b8f57634e487b7160e01b600052601160045260246000fd5b5060010190565b604081526000610ba96040830185610ac9565b9050826020830152939250505056fea2646970667358221220987da98b89d416548d07b9e3b128b2046a6441a1caf3ee849bdf9e3eba785de464736f6c63430008140033",
  "linkReferences": {},
  "deployedLinkReferences": {}
}